S02B00004D61747465724C696768745377697463684F7665725468726561645F62726434313836635F763434FF
S3150800600000120020DD860008D3C80708DF24090827
S3150800601093ED0708D3C80708D3C80708D3C80708E5
S31508006020D3C80708D3C80708D3C8070851620008A9
S31508006030D3C80708C89D0B08F1610008F7F80708D8
S31508006040FD8B0008D3C80708D3C80708D3C80708B4
S31508006050D3C80708D3C80708D3C80708D3C807088A
S31508006060D3C80708D3C80708D3C8070815EB02081A
S31508006070D3C80708D3C80708D3C80708D3C807086A
S31508006080D3C80708D3C80708D3C80708D3C807085A
S31508006090D3C807086D930008D3C80708D3C80708EC
S315080060A0D3C807086D95000849950008D3C807089E
S315080060B0D3C807089D56070829610708657E0B0897
S315080060C0617E0B08D1580708717E0B08697E0B089C
S315080060D0016107086D7E0B0869610708D561070825
S315080060E0D3C80708D3C80708D3C80708D3C80708FA
S315080060F01BED0708D3C80708D3C80708D3C807087D
S31508006100D3C80708D3C80708D3C80708D3C80708D9
S31508006110D3C80708D3C80708D3C80708D3C80708C9
S31508006120D3C80708D3C80708D3C80708D3C80708B9
S31508006130D3C80708D3C80708D3C80708D3C80708A9
S31508006140D3C80708F1C70008D3C80708D9EE070857
S31508006150493E0708D3C80708EB7A0B08F17A0B08FB
S31508006160D3C80708D3C80708D3C80708D3C8070879
S31508006170013800D0FCE7704700000000000000006E
S315080061800B4A1168086806C881F30B88022181F357
S315080061901488203080F30988BFF36F8F4FF0000012
S315080061A080F31188104700BFAFF30080AFF300807B
S315080061B094570120000000000000000000000000C5
S315080061C007480068006880F3088862B661B6BFF3BE
S315080061D04F8FBFF36F8F02DF00BF00BFAFF30080A2
S315080061E008ED00E0000000000000000000000000CC
S315080061F0EFF30980EFF30B82734620E9FC0F104A90
S31508006200116808604FF0300080F31188BFF34F8F94
S31508006210BFF36F8F0EF082FB4FF0000080F31188FA
S31508006220074A11680868B0E8FC0F82F30B8880F308
S3150800623009881847AFF30080AFF30080AFF30080FA
S315080062409457012000000000000000000000000034
S315080062501EF0040F0CBFEFF30880EFF30980044922
S31508006260084700BFAFF30080AFF30080AFF30080AC
S3150800627049560108000000002DE9F043022089B0C4
S315080062800BF012FE00B9FEE75F4E336803B9FEE76E
S3150800629010200BF009FE33685C4C9B880DF10B014E
S315080062A08DF80B30012320681A46B0F0F4FF9DF8EC
S315080062B00B203168023A0023096892B22068B0F0D0
S315080062C0EAFF534B05AF93E8070087E807003368F2
S315080062D01B681D7815F020051FD02068B0F009FE50
S315080062E0002868D02068B0F004FE70F0A7FC0246CB
S315080062F00B4641A1D1E9000170F044FE804607989B
S31508006300894670F09BFC02460B464046494670F0AB
S3150800631059FB70F0A7FF012507902068B0F005FE2D
S315080063209DF80B30002849D0981DC00070F096FCE7
S3150800633033A3D3E9002370F0FBFC80462068894626
S31508006340B0F0F3FD70F07AFC02460B46404649462B
S3150800635070F018FE80460798894670F06FFC024672
S315080063600B464046494670F02DFB70F07BFF3268BD
S315080063700790D3697BBB10200BF096FD18B3079BDB
S31508006380326803F5FA7392F820100793214B997037
S3150800639021490978D970917900972A462068B0F082
S315080063A025FB28B14FF480500BF0A8FE4DF076FE81
S315080063B009B0BDE8F0830798C030ACE70798063304
S315080063C000EB4310D3E731683B462A4689792068B3
S315080063D0B0F0F6FAE5E791690B44A03B0393002376
S315080063E0ADF810300D4B9179009301972A46206835
S315080063F003ABB0F006FBD4E70000000060E366419B
S315080064000000000080842E417C490120D8480120E4
S315080064103CC20B08C413002095190020B8130020AD
S31508006420F7B501200BF040FD0446002840F0AB808C
S31508006430594D5A4B5A4EC5E9003005F11003AB6069
S3150800644041F60B23102230607F215648B380B3F003
S315080064504BF97F22544B1A70544B1B6ADB0700D446
S31508006460FEE72146284666F02BFA044600B9FEE701
S3150800647067F0E4FD00B1FEE720464D4967F0FEF8F7
S3150800648000B1FEE702212046B0F015FD00B1FEE797
S315080064902046484967F0BCFB00B1FEE701212046CB
S315080064A0B1F08EF800B1FEE701212046B1F09EF862
S315080064B0074600B1FEE701463C223F48B3F014F90F
S315080064C080233A46204605F11401B0F0FAFE8028EA
S315080064D000D0FEE7394D0120B0F06DFA2CA3D3E9C0
S315080064E000232C602046CDE900234FF0FF324FF001
S315080064F0FF33B0F095FD014600B1FEE728480BF0E2
S315080065002FFD012108460BF0FDFC01212868B0F09B
S315080065101FFC044600B1FEE701464FF40C6228480A
S31508006520B3F0E2F8274B284A9C801C60274B6FF093
S3150800653063001A609C80264A264B1A60264A9C806D
S315080065405A6115F061FA33790B2B00D9FEE7737996
S315080065500A2BFBD9214B1E6006F09CF820460BF04F
S315080065604FFD082228681146B0F074FD044600B1B4
S31508006570FEE70CF043FD1A4B1A481C7003B0BDE841
S31508006580F0407EF0B4BD03B0F0BD00BFAFF30080AD
S315080065900BE020FFE2030000E848012085210108FE
S315080065A0E0480120D81A0220D71A02200080E00FFE
S315080065B00700110008C20B0898480120D848012096
S315080065C080490120B8290020711B0220902900204B
S315080065D0F21A02206829002058290020DC480120E8
S315080065E0F31B0220FCC10B082DE9F04F00252DED09
S315080065F0028B044616462F46A8469FED378B90F821
S3150800660038309BB00591039300F1080A0295039A66
S315080066102BB29A420DD1029B20460CA9CDE90C3724
S315080066208DF8388031F052FF1BB0BDEC028BBDE807
S31508006630F08F5AF8043F615D2948049399F02AFBC4
S315080066400368069303798DF81C300BB183680893A9
S3150800665083893168ADF82430D0E90423CDE90A23CB
S315080066600B680CA89B699847DDE90AB30193019862
S31508006670DDE90C23984208BF93459DF8191026D1E9
S315080066809DF83890894522D1164BC8460C93059B30
S31508006690154A10930023314611A81192CDE91233F9
S315080066A08DF850308DED0E8BA8F042FB316816A898
S315080066B00B689B699847049AE36B12680CA906A8AD
S315080066C098470CA831F00AFD019FCDF808B00135AE
S315080066D09DE700BFAFF30080000000000000000047
S315080066E018D6002020480C08E4260D0800000000F3
S315080066F02DE9F04F2DED028B884204460D461746CC
S315080067001E4697B00AD1034601211D202E4A17B00E
S31508006710BDEC028BBDE8F04FA2F019BA9FED288BAD
S315080067200DF10C092A2148460DF114083DF0DAFA54
S3150800673099E8030088E80300DFF890A0DFF890B036
S31508006740BDF81400BDF81630834204D117B0BDEC6D
S31508006750028BBDE8F08F3DF02BFB337881468DF830
S3150800676024408DF825508DF826708DF828300BB109
S3150800677073680B9309AB0893CDF81CA02BF0F8FCB3
S3150800678000230E938DF840308DF851302A23ADF84A
S3150800679030904FF001090D930CAA6B4607A98DEDB1
S315080067A0128B8DF850908EF057FF034620B15A464B
S315080067B049461D20A2F0CBF9404699F018F9BFE7E3
S315080067C00000000000000000A8680C08B4690C0866
S315080067D0E8680C08000000002DE9F04F2DED028B4B
S315080067E09FED318B9DB00DF108092A21044604ADB1
S315080067F0484616461F46DDF8A4803DF073FA99E828
S31508006800030085E80300DFF8A8A0DFF8A8B0BDF804
S315080068101000BDF81230834204D11DB0BDEC028BC6
S31508006820BDE8F08F3DF0C4FA289B81461B78CDE978
S315080068300A6708948DF830301BB1289B5B788DF871
S31508006840313098F800308DF838301BB1D8E902237A
S31508006850CDE9102308AB0793CDF818A02BF088FCD8
S3150800686000232A228DF858308DF869300223ADF8B6
S3150800687048904FF00109CDE9132306A96B4612AAE1
S315080068808DED188B8DF868908EF0E6FE034620B1E4
S315080068905A4649461D20A2F05AF9284699F0A7F803
S315080068A0B5E700BFAFF3008000000000000000005D
S315080068B0DC690C083F690C082DE9F0472DED028BC1
S315080068C0C8B01AAB0293B6230393002304468B6021
S315080068D00CA80D4696F01AFA41490CA896F036FA15
S315080068E0204602AA0CA996F01FFFB8B902A904A867
S315080068F095F0F1FADDE904120CA8A0F01DF94FF4A1
S315080069008072002316210CA8A0F00AFC30B90DF1FC
S3150800691003010CA8A0F0F8FA064620B148B0BDEC71
S31508006920028BBDE8F08701A90CA8A0F0ACFC019A7F
S315080069306B689A4239D860249FED278B01270CA8EB
S31508006940A0F0B4FB50B12128E8D19DF903100CA89A
S31508006950A0F077FB0446B8B32046DFE76B689E4293
S3150800696001D3B2F026FC04FB06F9D5F800A0049082
S315080069708DF820000CA904A88DED068B0AEB0908F2
S3150800698073F0BEFE0028C9D1049B4AF80930DDE938
S315080069900623C8E902239DF8203093B1DDE90919D9
S315080069A0B9F1400F08F1200301D91920B6E74A4684
S315080069B01846B2F044FFC8E9050988F81070013690
S315080069C0BDE788F81030FAE70CA8A0F06FFB21287D
S315080069D0A4D1AE60C0E700BF0000000000000000C0
S315080069E07B6C0C08000000002DE9F04F2DED028BA2
S315080069F0ABB004460D4638F0E5FA074600287DD0C8
S31508006A00204696F0BCFF002196F0E5FF067CD0F8FC
S31508006A1000906EB1EC4600F1200200F16003664674
S31508006A2010685168083203C69A42B446F7D101265F
S31508006A3095F8383000200021002B62D1CDE91201EB
S31508006A4010938DF850308DF8A0304FF00008294685
S31508006A501AA8CDF86080A0F041F8204696F047FFC6
S31508006A609FED5F8B9DF99420189B01325FFA88FA97
S31508006A7011D083B91AA8A0F019FB189058B910902C
S31508006A808DF850001AA910A88DED128B73F038FEF8
S31508006A901890002843D0189B212B02D0002B40F0D9
S31508006AA08880C4F830A0FFB1204638F08BFAD8B1F8
S31508006AB0204696F064FF002196F08DFF0368057C5A
S31508006AC04B4500F0878065B15EB1103096F08EFFB9
S31508006AD04268402A05D169460068B2F0DBFD00B974
S31508006AE015B1042384F84C31204696F048FF014638
S31508006AF004F5A47037F08EFE034624E00646814668
S31508006B0096E7002310938DF85030012395F8392025
S31508006B10CDE912018DF8A0308DF8A12095E75146F0
S31508006B2004F1280096F057FF109A2F4902F52843DA
S31508006B30C0338B4205460CD9204696F007FF00283D
S31508006B4014BF0346B92318462BB0BDEC028BBDE82B
S31508006B50F08FDDE91231BAF1000F16D10B43EBD1F4
S31508006B602A60DDE91223C5E902239DF850303BB1BE
S31508006B7014A896F03BFFD0F804B0BBF1000F07D17C
S31508006B8000232B7408F101086CE70B43E8D1D3E71F
S31508006B90BBF1400FD0D805F1200A4022002150460B
S31508006BA0B2F0A2FD14A896F021FFD0E90012934591
S31508006BB008D2204696F0CAFE40F28553002818BF30
S31508006BC00346C0E75046B2F03AFE0122C5E905ABD6
S31508006BD02A74D7E7002D87D0002E85D0002574E7C4
S31508006BE00000000000000000A06D01000000000089
S31508006BF02DE9F04F2DED028B083085B00F469146F2
S31508006C00DDF85080A1F098FE0446002800F099802F
S31508006C106E4600259FED4E8B4FF0010B41F2A45AAC
S31508006C2010AB0FCB86E80F004B4BC4E90255236027
S31508006C30C4E90455C4E9065524336360474B04F197
S31508006C40480C0FCB84ED0E8BC4E90C5584F8205004
S31508006C5084F840508CE80F00414B84F858B0A4F8EB
S31508006C605AA0E565C4E91955236604F17403C4E915
S31508006C701D3304F18003C4E920333A4B1022C4F8CB
S31508006C8090302946C4E9255584F86C50E567C4F860
S31508006C908850C4F89C5004F1A000B2F025FD84F891
S31508006CA0B0B0A4F8B2A0C4F8B45004F1B800A2F089
S31508006CB09EFB4AF6C873C82284ED348B84ED368B66
S31508006CC0C4E9382304F1F803C4E93E3384F8C45010
S31508006CD0A4F8C850C4F8F05084F8F450C4F8005129
S31508006CE03B68A3607B68E360BB682361FB686361FC
S31508006CF03B69A3617B69E3613B7E84F8203033B14D
S31508006D0004F1240307F11C0207CA83E80700384682
S31508006D108DF0C7FBA8B9B9F1000F12D0B8F1000F72
S31508006D200FD003CE3378C4F8309084F8403001236E
S31508006D3084F8F030231DA063E163C4F88C80C4F89E
S31508006D409C30204605B0BDEC028BBDE8F08F00BF35
S31508006D5000000000000000005C390C086CB401203B
S31508006D60E4260D084C390C082DE9F04F2DED028B61
S31508006D709946002300240025CDB08DF8C8304993E4
S31508006D80ADF82831A64BCDE92E45CDE93045CDE9FC
S31508006D9034450C934FF6FF740123DFF89CA2064690
S31508006DA088461746CDF8D8A0ADF820410D93A2B372
S31508006DB0054600F53474A54206D10B2420464DB08D
S31508006DC0BDEC028BBDE8F08F28468EF06BFD08B14E
S31508006DD09035F0E79FED908BBDF864318DF8C8804B
S31508006DE0ADF820318F4B4FF4C8710E93002309A8D4
S31508006DF0CDE909330F93CDF870A00B9395F0FFF802
S31508006E00099C14BB0B240BA88DF067FA0AA88DF011
S31508006E1064FA09A88DF061FAD0E79BF012FA0446E5
S31508006E2008B9AC24CAE706F5347528468CF01BFA6F
S31508006E30B4F882308DF8C880ADF8203121460CA808
S31508006E4094ED028B9BF07FF9CCE74FF4C8710AA842
S31508006E5095F0D5F8DDF828A0BAF1000FD2D04FF496
S31508006E60C8710BA895F0CBF80B9A002ACAD04FF434
S31508006E70C8734146CDE91332304610AA1094CDE9BD
S31508006E80113A15939BF03DFA04460028BBD14146BA
S31508006E90304612AA9BF017FA04460028B3D1414699
S31508006EA0304614AA9BF0ECF904460028ABD110A989
S31508006EB016A895F010F812A918A895F00CF814A9B8
S31508006EC01AA895F008F836AB079330AB049334ABA1
S31508006ED003930DF1B80A0EAB0DF1700B8DED008B17
S31508006EE0CDE905AB02931AAA18A916A840F002FD27
S31508006EF00446002887D10BA88DF0EFF90AA88DF073
S31508006F00ECF909A88DF0E9F9B9F1000F13D1D6F813
S31508006F10640300285FD003689B6898470346D6F841
S31508006F206403002B4FD003685A4641465B6998476D
S31508006F30044690B142E7D9F8003048465B6998475D
S31508006F40036859465B6A984708B9C52436E79DF829
S31508006F506031CDF824918DF828319DF86831514675
S31508006F60B3FA83F328465B098DF829319BF014FCA4
S31508006F70044600287FF422AF28460CA99BF012F994
S31508006F8006F55D7495F881303FB302211120264A33
S31508006F90A1F0DDFDD5E900122B69CDE901210093A9
S31508006FA06B6902211120214AA1F0D1FD20460F99D3
S31508006FB042F08CFC034630BB96F88233013386F8E0
S31508006FC082330024FAE603684146DB6898470028BE
S31508006FD0C3D11024F2E60324F0E6D5E90012112005
S31508006FE0CDE900210221124AA1F0B1FD20460F99F0
S31508006FF042F06CFC03460028E3D0012111200D4A1B
S31508007000A1F0A5FDDDE7012111200A4AA1F09FFDA7
S31508007010D2E700BFAFF300800000000000000000C8
S31508007020C0CB0B08C0AF0C08EAAE0C080AAF0C08B8
S315080070304DAF0C0882AF0C08A8F30C08000000003E
S315080070402DE9F0478AB00DF10D0301931523064685
S3150800705000934FF48072002308460C46A0F0BEFB4E
S31508007060E8B996F892300122009320460023A0F052
S315080070703CFBA0B996F893300222009320460023E1
S31508007080A0F033FB58B90DF10E0301931623032222
S31508007090009320460023A0F0A1FB054610B10AB0D4
S315080070A0BDE8F0874FF0100906F1C8070DF118087A
S315080070B0102200214046B2F017FB0DF10F03019391
S315080070C015234FF48072009320460023A0F086FB18
S315080070D00028E4D196F89320EBB29A4251D917EDDD
S315080070E00C7BC44637F828ACA7F12603A7F1160E81
S315080070F0624618685968083303C273459446F7D13F
S315080071008DED007B042200232046A0F0C9FA002852
S31508007110C5D1052200232046CDF800A0A0F0E5FA47
S315080071200028BCD14046494606228DE803000023C4
S315080071302046CDE90489A0F00EFC0028AFD12046F0
S315080071409DF90F10A0F078FB013530370028A6D13D
S31508007150032DADD120469DF90E10A0F06DFB002839
S315080071609DD1B6F88A300722009320460023A0F066
S31508007170BCFA002893D120469DF90D10A0F05CFBBF
S315080071808DE782469FED027BBAE700BFAFF300802A
S315080071900000000000000000054B186803689969A4
S315080071A001A3D3E90023084700E0373B015D03004C
S315080071B09C1500200000000010B52A21ADF5956D3C
S315080071C06D4848F06DFF08B1B1F0F3FF029002A9CF
S315080071D0694848F011FE0028F6D1029B2A2BF3D104
S315080071E063A3D3E90023654848F072FF0028EBD172
S315080071F000220023614808A9CDE9082348F020FEAB
S315080072000028E1D1DDE9080240F6FA035C499A4212
S3150800721008BF8842D8D101215A4848F011FF0028F2
S31508007220D2D18DF807000DF10701564848F094FDB4
S315080072300028C9D19DF80730002BC5D04E4848F024
S31508007240DBFC0028C0D14C4803A948F0D5FD40F224
S315080072500124A042B8D14C494C48A2F0ECFB0028C6
S31508007260B2D14022494804AB0AA948F011FE0028C9
S31508007270AAD1049B0E2BA7D10F2243490AA8B2F024
S3150800728009FA0028A0D142494048A2F0D4FB0028B8
S315080072909AD104AB40223D480AA948F0F9FD049B5F
S315080072A0184391D19DF8281000298DD13748A2F0AE
S315080072B0C2FB002888D14022344805AB1AA948F0F9
S315080072C0E7FDA04280D1F1223249334848F032FF27
S315080072D000287FF479AF4FF400722F4806AB2AA92D
S315080072E048F02CFE00287FF46FAF069AF12A7FF447
S315080072F06BAF28492AA8B2F0CDF9024600287FF4D8
S3150800730063AF0146244848F015FF00287FF45CAFB8
S315080073104FF40072204807ABAAA948F00FFEA04216
S315080073207FF452AF154848F073FC00283FF44CAF81
S31508007330144848F06DFC00283FF446AF164848F05C
S3150800734067FC00287FF440AF48F0E2FC00287FF491
S315080073503BAF0A4848F05CFC00283FF435AF0948C3
S3150800736048F056FC00287FF42FAF0DF5956D10BD3B
S31508007370316EE595FA0800000573080001720800E9
S31508007380316EE5950673080050EC0C080273080088
S315080073904FEC0C085EEB0C080272080000000000B7
S315080073A0002370B5404C05468AB0E36318B10088DF
S315080073B023605AF087FA3D48AFF066FD3C4E3D4BD8
S315080073C0304633603C4B736055F058FE002130461A
S315080073D065F076FA32A3D3E90023A062C4E906234E
S315080073E0ABF0ECF8D4E9062319431043C4E90601C7
S315080073F0CDE900014FF0FF334FF0FF32A06AAFF03E
S315080074000FFE02224FF0FF31A06AAFF023FE0120E3
S3150800741059F0DAFF4FF4007300222849A06AAFF04A
S3150800742050FFB0F5007F38D100239422CDE9073309
S3150800743009933C23CDE9033205939623A06A03A951
S31508007440069365F053FE35B3287C5AF0B9FB05461A
S31508007450F0B9A06AB0F007F95AF060FB59F096FF48
S3150800746020B14FF48070002157F062FF59F09EFF5B
S3150800747020B14FF40060002157F05AFFABF061F9D4
S315080074800120AFF098FA0E4A0E49A06AABF08AF8C6
S3150800749028460AB070BDFF20D7E70725F8E700BFE2
S315080074A00DD501552000000098340120690345ECEC
S315080074B0980402204D120608A80402209802022009
S315080074C04D250B088D250B080348044B834202D033
S315080074D0034B03B118477047F4280020F42800200E
S315080074E000000000064B0749C91A891048BF013138
S315080074F0491003D0044B0BB101481847704700BF29
S31508007500F4280020F42800200000000010B5064CDE
S31508007510237843B9FFF7D8FF044B13B10448AFF3F8
S3150800752000800123237010BD921102200000000084
S315080075306C880D0808B5054B1BB105490548AFF31E
S315080075400080BDE80840FFF7CDBF00BF000000007F
S31508007550103A01206C880D08A3F5803A704700BFE1
S31508007560174B002B08BF134B9D46FFF7F5FF00216D
S315080075708B460F461348144A121AB2F0B5F80E4B4A
S31508007580002B00D098470D4B002B00D098470020C1
S31508007590002104000D000D48002802D00C48B1F067
S315080075A00FFE71F051FE20002900A8F0F5FA70F0E0
S315080075B0A1FD00BF00000800000000000000000058
S315080075C000120020F428002094020320C1910B0821
S315080075D00000000010B5224C03F0E8FC236F23F0EE
S315080075E0070343F00203236775F088FCD4F82031BB
S315080075F0002023F0070343F00103C4F82031D4F830
S31508007600283123F0070343F00103C4F82831D4F8DE
S31508007610403123F0030343F00203C4F84031D4F8A1
S31508007620603123F0030343F00203C4F86031D4F851
S31508007630403223F0030343F00203C4F84032D4F87F
S31508007640003223F0070343F00203C4F80032D4F8EB
S31508007650083223F0070343F00203C4F8083210BDCA
S315080076600080005008B5044875F05BFABDE808408C
S31508007670024875F056BA00BFB89C0B08A09C0B08C8
S3150800768008B5044875F07BFABDE80840024875F06D
S3150800769076BA00BFE89C0B08D09C0B0818B1034BC0
S315080076A01860002070472520704700BF283A01203F
S315080076B010B5054C0549206802F098FB2068BDE81E
S315080076C01040FFF7EBBF00BF401300201412002044
S315080076D070B58B680646012B0D4614468CB025D02E
S315080076E0022B33D0002B3ED119461C2205A8B1F037
S315080076F0FBFF214605A872F0CCFD044638B9294699
S31508007700304605AA30F0E0F800283ED1044629465E
S315080077103046002385228DF038F9234602211D20A4
S315080077201B4A0CB0BDE87040A1F011BA00231146FF
S3150800773005A8ADF8143072F0E5FD04460028E6D138
S315080077402946304605AA30F04BF9DDE7114605A86B
S3150800775072F0DAFD04460028D9D12946304605AA32
S3150800776030F0A6F9D0E7002381228DF00EF9D5E98D
S31508007770012391B2120C01929AB202910092012150
S315080077801D20044A1B0CA1F0E2F90CB070BD00BF25
S31508007790349D0B08009D0B0870B58B6806460C4691
S315080077A088B0F3B9114604A8ADF810308DF8143036
S315080077B072F065FF054628B92146304604AA92F0BC
S315080077C0C8FD00BB21463046002385228DF0DDF832
S315080077D02B4602211D200D4A08B0BDE87040A1F0D5
S315080077E0B6B9002381228DF0D0F8D4E9012391B2ED
S315080077F0120C01929AB20291009201211D20044AAC
S315080078001B0CA1F0A4F908B070BD00BF349D0B088D
S31508007810009D0B0870B58B6806460C4686B0D3B932
S31508007820114605A872F063FC054628B9214630467C
S3150800783005AA92F0CFFD00BB2146304600238522DB
S315080078408DF0A3F82B4602211D200D4A06B0BDE88F
S315080078507040A1F07CB9002381228DF096F8D4E916
S31508007860012391B2120C01929AB20291009201215F
S315080078701D20044A1B0CA1F06AF906B070BD00BFB2
S31508007880349D0B08009D0B0870B58B680646022BC5
S315080078900D4614468AB026D0042B36D0002B41D18B
S315080078A00022ADF810300023214604A8CDE90623AE
S315080078B072F034FB044638B92946304604AA31F03A
S315080078C009FA002840D10446294630460023852275
S315080078D08DF05BF8234602211D201C4A0AB0BDE83C
S315080078E07040A1F034B91822002104A8B1F0FCFEBA
S315080078F0214604A873F09EFC04460028E4D12946D4
S31508007900304604AA31F0F2FADBE7114604A872F011
S315080079102EFB04460028D7D12946304604AA31F062
S315080079204FFACEE7002381228DF02FF8D5E90123FF
S3150800793091B2120C01929AB20291009201211D2075
S31508007940034A1B0CA1F003F90AB070BD349D0B085D
S31508007950009D0B0870B58B6806460C4688B003BBBD
S3150800796000200021CDE90601114604A8CDE904331B
S3150800797072F000FB054628B92146304604AA31F0C4
S3150800798067FD00BB21463046002385228CF0FDFFAB
S315080079902B4602211D200D4A08B0BDE87040A1F013
S315080079A0D6B8002381228CF0F0FFD4E9012391B2E6
S315080079B0120C01929AB20291009201211D20044AEA
S315080079C01B0CA1F0C4F808B070BD00BF349D0B08AD
S315080079D0009D0B0870B50D46AB68064611469CB06F
S315080079E0042B5BD8DFE803F003305A3F4E00002330
S315080079F004A8ADF810308DF812308DF814308DF8D3
S31508007A0020308DF830308DF840308DF850308DF8B4
S31508007A10603074F0A2F9044638B92946304604AAFB
S31508007A2031F02AFE00284CD1044629463046002368
S31508007A3085228CF0AAFF234602211D20224A1CB06B
S31508007A40BDE87040A1F083B8002304A8ADF8103053
S31508007A5072F0FCFC04460028E7D12946304604AA01
S31508007A6031F022FFDEE7002304A8ADF8103072F0EB
S31508007A70EFFC04460028D8D12946304604AA31F03E
S31508007A80E5FECFE704A872F0E5FC04460028CCD151
S31508007A902946304604AA31F061FFC3E70023812254
S31508007AA029468CF072FFD5E9012391B2120C019296
S31508007AB09AB20291009201211D20044A1B0CA1F0E2
S31508007AC046F81CB070BD00BF349D0B08009D0B081E
S31508007AD070B58B6806460D46144694B0052B79D8C2
S31508007AE0DFE803F00325354959660023214604A833
S31508007AF0CDE90533ADF8103072F011F8044638B9FF
S31508007B002946304604AA93F0F4F8002874D10446AE
S31508007B1029463046002385228CF037FF234602216A
S31508007B201D20364A14B0BDE87040A1F010B80023F5
S31508007B30214604A8ADF8103071F0F3FF044600287A
S31508007B40E6D12946304604AA93F00FF9DDE700226C
S31508007B5004A811468DF848209EF0EEFF214604A899
S31508007B6074F028F804460028D2D12946304604AADB
S31508007B7032F0F2FAC9E70023214604A8ADF810301E
S31508007B8071F0D1FF04460028C2D12946304604AA1E
S31508007B9032F060FAB9E7214604A871F0C6FF044638
S31508007BA00028B5D12946304604AA32F0AFFAACE728
S31508007BB00023214604A8CDE90533ADF8103071F04D
S31508007BC0C8FF04460028A3D12946304604AA93F0E4
S31508007BD039F99AE7002381228CF0D7FED5E90123EB
S31508007BE091B2120C01929AB20291009201211D20C3
S31508007BF0034A1B0CA0F0ABFF14B070BD349D0B08F4
S31508007C00009D0B0870B58B6806460D4686B0ABB16D
S31508007C10402B32D0002381228CF0B7FED5E9012310
S31508007C2091B2120C01929AB20291009201211D2082
S31508007C301A4A1B0CA0F08BFF06B070BD114605A8AA
S31508007C40ADF8143071F008FF044638B929463046B5
S31508007C5005AA93F039FA0028EED10446294630469B
S31508007C60002385228CF091FE234602211D200C4A12
S31508007C7006B0BDE87040A0F06ABF0023114605A80B
S31508007C80ADF8143071F00AFF04460028E6D12946FB
S31508007C90304605AA32F0A6FCDDE700BF009D0B08BA
S31508007CA0349D0B0870B58B6806460C468CB033BB02
S31508007CB000200021CDE90401114604A8ADF81830CA
S31508007CC08DF81A308DF81C30ADF8283073F0B8F8F6
S31508007CD0054628B92146304604AA36F01FFB00BBE4
S31508007CE021463046002385228CF04FFE2B46022182
S31508007CF01D200D4A0CB0BDE87040A0F028BF002337
S31508007D0081228CF042FED4E9012391B2120C019231
S31508007D109AB20291009201211D20044A1B0CA0F080
S31508007D2016FF0CB070BD00BF349D0B08009D0B08F4
S31508007D302DE970430D46AB680646114690B00B2BED
S31508007D4000F2A280DFE803F006A026A035A046616F
S31508007D50A0728190002304A8CDE9043372F0D7FA03
S31508007D60044640B92946304604AA33F07DFF002868
S31508007D7040F09D80044629463046002385228CF033
S31508007D8004FE234602211D204A4A10B0BDE870436E
S31508007D90A0F0DDBE002304A88DF8103072F0D9FAE1
S31508007DA004460028E7D12946304604AA33F0FAFEED
S31508007DB0DDE7002304A8CDE904338DF8183072F006
S31508007DC0B9FF04460028D6D12946304604AA34F01D
S31508007DD029F8CCE700234FF000084FF0000904A863
S31508007DE0CDE90433CDE90933CDE90C898DF818308E
S31508007DF0ADF8383073F06DF804460028BBD1294633
S31508007E00304604AA33F03AFCB1E7002304A8CDE9CA
S31508007E1004338DF8183073F099F804460028AAD16F
S31508007E202946304604AA33F019FBA0E7002304A824
S31508007E30CDE9043372F0B7FA044600289BD12946E7
S31508007E40304604AA33F088FA91E7002304A88DF88F
S31508007E50103072F0CAFA044600288CD129463046FA
S31508007E6004AA33F005FA82E7002304A8CDE904330F
S31508007E7072F0BDFA044600287FF47DAF29463046E5
S31508007E8004AA33F097FB72E70023812229468CF077
S31508007E907CFDD5E9012391B2120C01929AB20291A6
S31508007EA0009201211D20044A1B0CA0F050FE10B0C0
S31508007EB0BDE87083349D0B08009D0B0870B58B6870
S31508007EC006460C4686B0D3B9114605A872F09DF849
S31508007ED0054628B92146304605AA95F0DEFA00BBC4
S31508007EE021463046002385228CF04FFD2B46022181
S31508007EF01D200D4A06B0BDE87040A0F028BE00233C
S31508007F0081228CF042FDD4E9012391B2120C019230
S31508007F109AB20291009201211D20044A1B0CA0F07E
S31508007F2016FE06B070BD00BF349D0B08009D0B08F9
S31508007F3070B58B6806460C4686B0D3B9114605A8B7
S31508007F4072F066F8054628B92146304605AA36F085
S31508007F502DFB00BB21463046002385228CF015FDFB
S31508007F602B4602211D200D4A06B0BDE87040A0F040
S31508007F70EEBD002381228CF008FDD4E9012391B2DD
S31508007F80120C01929AB20291009201211D20044A14
S31508007F901B0CA0F0DCFD06B070BD00BF349D0B08BD
S31508007FA0009D0B0870B58B6806460D46144694B0BE
S31508007FB0052B70D8DFE803F00327376F4B5F0022E5
S31508007FC00023CDE904230023214604A8ADF8183080
S31508007FD073F0ABFD044638B92946304604AA36F094
S31508007FE07FFF002869D104462946304600238522AA
S31508007FF08CF0CBFC234602211D20314A14B0BDE883
S315080080007040A0F0A4BD0023214604A88DF81030C6
S3150800801072F0CAF804460028E6D12946304604AA72
S3150800802036F08EFFDDE7002204A811468DF84820B9
S315080080309EF082FD214604A873F0DEFD0446002862
S31508008040D2D12946304604AA37F016FAC9E70022E3
S3150800805004A811468DF848209EF06EFD214604A816
S3150800806073F0CCFD04460028BED12946304604AA42
S3150800807037F0CCF9B5E70023214604A88DF810306F
S3150800808073F0EBFC04460028AED12946304604AA14
S3150800809037F008F8A5E7002381228CF076FCD5E9AD
S315080080A0012391B2120C01929AB202910092012117
S315080080B01D20044A1B0CA0F04AFD14B070BD00BF79
S315080080C0349D0B08009D0B0870B58B6806460C4658
S315080080D086B0D3B9114605A871F09DFF054628B9A3
S315080080E02146304605AA96F017F800BB21463046C9
S315080080F0002385228CF049FC2B4602211D200D4ABF
S3150800810006B0BDE87040A0F022BD002381228CF0A5
S315080081103CFCD4E9012391B2120C01929AB2029165
S31508008120009201211D20044A1B0CA0F010FD06B088
S3150800813070BD00BF349D0B08009D0B0837B543681A
S3150800814004463F2B154605D8292B14D8032B7DD07A
S31508008150042B73D09AB2009201211D20574A1B0C9A
S31508008160A0F0F5FC0023C3222146284603B0BDE84B
S3150800817030408CF00ABCA3F12A02152AEAD801A0DD
S3150800818050F822F05D8200085581000855810008E4
S315080081905581000855810008558100080D820008A0
S315080081A055810008ED8100081D8200087D820008BF
S315080081B08D820008AD820008FD8100089D820008B6
S315080081C0558100085581000855810008DD810008A1
S315080081D0558100086D8200082D8200080A46284647
S315080081E0214603B0BDE83040FFF772BA0A46284672
S315080081F0214603B0BDE83040FFF7CEBA0A46284606
S31508008200214603B0BDE83040FFF704BB0A462846BE
S31508008210214603B0BDE83040FFF736BB0A4628467C
S31508008220214603B0BDE83040FFF794BB0A4628460E
S31508008230214603B0BDE83040FFF7CCBB0A460146ED
S31508008240284603B0BDE83040FFF742BC0A4601465F
S31508008250284603B0BDE83040FFF7D4BC0A46284696
S31508008260214603B0BDE83040FFF71CBD0A46284644
S31508008270214603B0BDE83040FFF75ABD0A462846F6
S31508008280214603B0BDE83040FFF718BE0A46284627
S31508008290214603B0BDE83040FFF74ABE0A462846E5
S315080082A0214603B0BDE83040FFF77CBE0A462846A3
S315080082B0214603B0BDE83040FFF706BF5D9D0B08B9
S315080082C040F20E53984227D007D83C280AD040F2ED
S315080082D0011398420BD000207047124B9842FAD1EE
S315080082E0122915E002298CBF002001207047272992
S315080082F0F1D8192903D8012909D80120704743F272
S315080083000913A1F11A00C34003F0010070470329BD
S3150800831014BF0020012070470029EED0881E0128CE
S31508008320E1E700BF05FCF1FF2DE9F043044689B0FB
S31508008330214E01AD884617460FCE0FC596E80700B1
S3150800834085E807001D4E01213A20D4F80090D6F89A
S31508008350205702F099F96068012102F095F9617BCE
S31508008360207B0023042203F095FB0422617A207AFD
S31508008370002303F08FFB0123484601A98DF812302C
S31508008380CDF80C80ADF8147003F0A2FD0020627AD7
S31508008390237A05F0040543EA0243C6F83837627BB8
S315080083A0237B45F0180543EA0243C6F83437C6F876
S315080083B0205709B0BDE8F0837C9D0B0800C0035028
S315080083C04022024BC3F8A020704700BF00F00350BC
S315080083D013B5044608F0B2FC00230122217BCDE93F
S315080083E000324900B0FBF1F1024A034876F004FD79
S315080083F002B010BDC1830008A03A0120F7B54FF4BA
S315080084008076104C054604F58053C3F8A060407B7F
S3150800841008F0CCFE04230C4F02220DF10601384663
S31508008420ADF8063074F035FA384674F043FAA87B8E
S3150800843008F0BCFE002004F50054C4F8A06003B0A0
S31508008440F0BD00BF00C003504413002070B50646B7
S31508008450354601213A2002F017F9B16800220F4883
S31508008460FFF762FF0E4C002304220821022003F0C6
S3150800847011FB002304220621022003F00BFB0FCD7B
S315080084800FC401222B6830462360064B1A70FFF78B
S315080084909FFF3046FFF7B2FF002070BD441300204F
S315080084A08C3A0120931102202DE9F74F14464FF418
S315080084B0807206889846037901345E43254BA4B238
S315080084C0C3F8A0200546407B0F4608F06FFE23023E
S315080084D043F00103022220480DF10601ADF80630EB
S315080084E04FF0000B74F0D5F901342402DFF86890D8
S315080084F0F610A4B208F1FF3AC34511D1164874F034
S31508008500D9F9A87B08F052FE4FF48072134B124833
S31508008510C3F8A02074F0D3F9002003B0BDE8F08FAB
S3150800852039463246484674F0B4F9DA450CBF4FF678
S31508008530FF7344F0FF03022248460DF1060104F5D5
S315080085408074ADF80630374474F0A3F90BF1010BCB
S31508008550A4B2D1E700D003504413002000E0035032
S31508008560034B04481B78002B08BF0020704700BF48
S31508008570931102208C3A012030B5064D87B001AC24
S315080085800FCD0FC42B6801A82360FFF75FFF07B064
S3150800859030BD00BF989D0B082DE9F043434D89B0C7
S315080085A001AC0FCD0FC495E80700012584E8070044
S315080085B001213A2002F068F83D4F0121292002F0F6
S315080085C063F83C4B384601A903938DF8125003F023
S315080085D07FFC2B4629460422022003F05BFA02217F
S315080085E02A460846002303F055FA2B46042203219F
S315080085F0022003F04FFA04222B461146022003F00C
S3150800860049FA2D4C2D4B1026C4F834374FF0021377
S31508008610C4F83037A3F58033C4F838371C2304F57B
S315080086200059C4F820374FF4487008F0BFFD04F528
S3150800863080581420C9F8A06008F0B8FD2320C8F8AF
S31508008640A06008F0B3FDB9213846C9F8A06074F0F7
S3150800865065FD002329461A460220C8F8A06003F0E3
S3150800866019FA002302211A46084603F013FA2B4684
S3150800867000220321022003F00DFA2B4600220421D2
S31508008680022003F007FA384603F000FC00212920EF
S31508008690C4F83417C4F83017C4F83817C4F82017C4
S315080086A001F0F2FF09B0BDE8F08300BFAC9D0B08EE
S315080086B000C0055000127A0000C0035002000300F3
S315080086C00348044A0449121A921074F003B900BF09
S315080086D0749F0D08749F0D089402032008B500F0D6
S315080086E02FF8FFF7EDFF124B12498B4212D30020E9
S315080086F0114B12498B4218D3FEF732FF186850F80F
S315080087002240586840F82240013298688242F5D3E0
S315080087100C33EAE70022F8E71C6844F82200013225
S315080087205C68A242F8D30833E4E70022F8E700BF02
S3150800873074880D0880880D0880880D0880880D08C3
S315080087404FF480414FF0FF3010B5114B114A9A6033
S31508008750D3F8882042F47002C3F888200E4A91663E
S315080087600E4901F5005210660D4850660220C3F8FE
S31508008770D000BFF34F8FBFF36F8F01244FF4403300
S315080087800848C0F88041D36004600B6110BD00BF83
S3150800879000ED00E0006000080090005000800044F2
S315080087A0F7FF370000E100E0014B1868704700BF8B
S315080087B058130020014B1860704700BF581300205B
S315080087C0084B1B6F03F00703022B04D0032B05D0BD
S315080087D0012B05D0FEE7044B18687047034BFBE7EF
S315080087E0034870470080005058130020601300208B
S315080087F0002D310108B5FFF7E3FF054B1B6FC3F3E7
S3150800880003330133B0FBF3F0024B186008BD00BF19
S3150800881000800050541300200048704700B4C40478
S31508008820014B1868704700BF60130020054B18609D
S31508008830054B1B6F03F00703032B01D1FFF7DABFC4
S31508008840704700BF60130020008000500048704742
S31508008850002D31014FF0B4439868C0F304400C284A
S315080088600AD8DFE800F00B090909090907211909DF
S315080088701B1D1F000F487047002070479B6803F0B8
S315080088804073B3F1807F11D0B3F1007F10D00A4A4C
S31508008890002B08BF104670470848704708487047BD
S315080088A0084870470848704708487047084870479E
S315080088B008487047405DC60000093D00C0EA21012E
S315080088C080BA8C010048E801005A62020024F400CC
S315080088D080841E0040420F00014B1868704700BF95
S315080088E05C130020BFF34F8F0549064BCA6802F494
S315080088F0E0621343CB60BFF34F8F00BFFDE700BFB5
S3150800890000ED00E00400FA054FF000639A6A02F1F0
S315080089107841B1F5C04F03D21168074A914203D096
S315080089200023037083607047012202709A6A926876
S3150800893042609B6A9B69F5E707B0CD5E08B54FF0C4
S315080089400053024A1A60FFF7CDFF00BF02020FF07C
S3150800895073B54F4B04461A781AB102221A7002B040
S3150800896070BDCDE900220028F9D001261E7074F0EA
S31508008970E1FA484D484B186069F04AFF2B785BB915
S3150800898000F006FE40B945480823454A45490068AF
S3150800899063F066FA00B92E70434B5A6E62619B6E9D
S315080089A0424AA3614FF480439366414B5968E1619B
S315080089B040499960196E2160596E6160D3F870114B
S315080089C0A160196CE160596C21613B49086C186417
S315080089D0496C5964012151661B6E9C0441D5374A7E
S315080089E0D368D807FCD4364B1A68531C3ED04FF4CC
S315080089F080139340334A13664FF400730426314CB0
S31508008A002666236673F0D4FF01300DD073F0D0FFCD
S31508008A1040F20113984207D04FF4005323664FF4EF
S31508008A2080432366C4F870610823264C684623668B
S31508008A304FF4805323664FF0006323664FF40023F8
S31508008A4001A9636673F059FF009B2366019B636661
S31508008A502B78002B83D0124B1A6822665B686366F4
S31508008A607DE7194AD368D907FCD4BCE7174B1B78AE
S31508008A70002BC1D14FF400720C4B5A6603F5A6239E
S31508008A805B68002BB8D14FF480120E4B1A66B3E719
S31508008A909511022096110220E03A01208813002041
S31508008AA0E43A012000710800008000500090005050
S31508008AB00080004455CEAC0000C0005400000440BD
S31508008AC06413002000900044000004509411022012
S31508008AD070B5224D04462E78012E02D001232B7044
S31508008AE070BD0028FCD073F063FF01300BD073F023
S31508008AF05FFF40F20113984205D0194B194A5E668A
S31508008B00D368DE07FCD42268174B1A6662685A6671
S31508008B10A268C3F87021E2681A6422695A64E26995
S31508008B20D00744BF00229A60104B1A68013207D159
S31508008B300F4A127822B90F494968C90748BF1A600F
S31508008B4062690D4B5A66A2699A6669F069FE0B4B13
S31508008B50186874F0F5F90023C1E700BF95110220E3
S31508008B600090004000000440008000446413002088
S31508008B709411022000C0055000800050E03A012000
S31508008B8070B54FF00064A36A03F17842B2F5C04F9E
S31508008B9024D21A68134B9A4220D1134E337813F015
S31508008BA0FD0F02D00024204670BD1048FFF7D0FE06
S31508008BB001254FF480330E4A0E49C2F88051CB6026
S31508008BC015600D4A1361A36ADB699847044607488E
S31508008BD0FFF77EFF002CE6D13570E3E74FF481748A
S31508008BE0E1E700BF07B0CD5E94110220C03A01202C
S31508008BF000E100E000A000440090004413B5204BBB
S31508008C001B7803B9FEE700231E4CCDE900336A46FC
S31508008C1008231D49206863F023F9F0B91B4AD2F8E6
S31508008C204031D2F840211F2B4FF0010310D9203ACA
S31508008C309340019A1A43019208236A46124920680A
S31508008C4063F0C4F84FF00053114A1A60FFF74AFE62
S31508008C509340009A1A430092EEE70E4B9842F1D1E0
S31508008C600A4AD2F84031D2F840211F2B4FF00103AF
S31508008C7085BF203A93409340019398BF0093DBE762
S31508008C809511022088130020007108000080004416
S31508008C900B020FF00BE000F038B54FF00065AB6A39
S31508008CA0044603F17842B2F5C04F12D21B6B03F1AA
S31508008CB07843B3F5C04F0CD20648FFF749FEAB6AB6
S31508008CC020461B6B5B689847BDE838400148FFF7AC
S31508008CD0FFBE38BDEC3A012013B54FF00064019091
S31508008CE0A36A03F17842B2F5C04F15D21B6B03F1A4
S31508008CF07843B3F5C04F0FD20948FFF729FEA36A98
S31508008D0001211B6B01A89B69984704460448FFF795
S31508008D10DFFE204602B010BD4FF48174F9E700BFAC
S31508008D20EC3A0120F8B54FF00067BB6A164603F126
S31508008D307842B2F5C04F04460D4611D21B6B7BB183
S31508008D400948FFF705FEBB6A20461B6B32462946D3
S31508008D505B6A984704460448FFF7BAFE2046F8BD02
S31508008D604FF40174FAE700BFEC3A012070B54FF0F2
S31508008D700066B36A044603F17842B2F5C04F0D4661
S31508008D8014D21B6B03F17843B3F5C04F0ED20948D2
S31508008D90FFF7DEFDB36A20461B6B29469B6A984798
S31508008DA004460448FFF794FE204670BD4FF401744C
S31508008DB0FAE700BFEC3A0120F8B54FF00067BB6A46
S31508008DC0164603F17842B2F5C04F04460D4615D251
S31508008DD01B6B03F17843B3F5C04F0FD20948FFF771
S31508008DE0B7FDBB6A20461B6B324629469B6B9847E4
S31508008DF004460448FFF76CFE2046F8BD40F201140D
S31508008E00FAE700BFEC3A012070B54FF00066B36A86
S31508008E10044603F17842B2F5C04F0D4614D21B6BD7
S31508008E2003F17843B3F5C04F0ED20948FFF790FD1A
S31508008E30B36A20461B6B2946DB6B984704460448F1
S31508008E40FFF746FE204670BD40F20114FAE700BF60
S31508008E50EC3A012010B40A6808461378022B10D0A1
S31508008E6014213023147913FB041307495B585179ED
S31508008E70CB40DB4303F0010313705DF8044B4BF062
S31508008E8053BB5DF8044B704730C00350F7B5046810
S31508008E90012105463A2001F0F7FB002301226179FA
S31508008EA0207902F0F7FD14223023217913FB0123E0
S31508008EB01D4A99586379D940C943A37901F001013C
S31508008EC0022B217017D100F0A7FA184A2B466179B0
S31508008ED0207900F0CBFAFF28024660790ED12A469F
S31508008EE0124900F0FFFA0123024661792079CDE99B
S31508008EF0003302F075FD002003B0F0BD0126277986
S31508008F00002301460096384602F02CFE2A460749F9
S31508008F10607900F0E7FA0023617902462079009328
S31508008F2001963346E5E700BF30C00350558E00086A
S31508008F3002681378022B24D014213023107913FBEE
S31508008F40001310495B585179CB40917903F001031E
S31508008F50012912D1508843EA40034FF6E07063F0C6
S31508008F603F039BB2834202D11170538070474FF67C
S31508008F70DF718B42F9D10021F6E711B983F00103BD
S31508008F801370704730C0035010B50122437801783A
S31508008F90847830209A40054B00FB01331CB903F551
S31508008FA001531A6010BD03F58253FAE700C0035057
S31508008FB010B5012243780178847830209A40054B11
S31508008FC000FB01331CB903F582531A6010BD03F583
S31508008FD00153FAE700C003500122437801789A400A
S31508008FE030235943014B5A50704700BF40F0035095
S31508008FF0102130230246007813FB001305495B58FD
S315080090005178CB4003F0010093780BB980F001004A
S31508009010704700BF30C003502DE9F04F9A46564BB3
S3150800902085B01B7806460F461546DDF83C909DF838
S3150800903044B0DDF85080002B00F09780072A00F234
S3150800904096800E9B002B00F09280B9F1000F00F07D
S315080090508E80129BB3F5006F00F38980012803D137
S31508009060109B002B00F08380444B03EB05131B7BFE
S31508009070002B7ED0424C102200216846B0F034FB0B
S3150800908004EB45141022A7BB39462046B0F02CFB4A
S3150800909043F210036380BBF1000F03D1E37843F07A
S315080090A00303E370364A0E9B02EB451CCCE9019399
S315080090B0129BCDF800A0581E9DF84C30690103F0AC
S315080090C00303C0F30A009B0643EA001E53582D48C3
S315080090D0012E00EA03004EEA0003535017D0B8F1F8
S315080090E0000F2ED19CF8023068F304138CF8023076
S315080090F027E000212046B0F0F7FA4FF44473638066
S31508009100BBF1000FCED1E37843F03003C9E7132350
S315080091100CF1100ECCF80C309CE80F008EE80F000E
S315080091206FF00301DCF81C20109B61F39F02012FEE
S31508009130CCF81C20CCF8143003D1CCF81890CCF815
S31508009140043000270D4A290102EB051342F8018075
S31508009150159A28465A60694622469F605E7302F051
S315080091605FFD384605B0BDE8F08F0748FAE70748BF
S31508009170F8E70748F6E700BF971102200C3C0120E4
S315080091800C3B01200F80FFF3028000F0018000F005
S31508009190078000F038B5124B05461B78DBB1E0B105
S315080091A073F0C8FE0F4A00231146147B54B92B608E
S315080091B001251A0101EB03131D738C5073F0C0FED1
S315080091C0204638BD0133082B02F11002EDD173F0A9
S315080091D0B7FE0548F5E70548F3E70548F1E700BF98
S315080091E0971102200C3C0120048000F0028000F058
S315080091F0018000F0154B13B51868002301908DF80F
S31508009200043073F097FE124B1C7824B173F098FE65
S31508009210104802B010BD01221A7073F091FE0E4B71
S3150800922001A81C731C7783F82C4083F83C4083F80C
S315080092304C4083F85C4083F86C4083F87C400823F4
S315080092408DF8073002F0BAFC2046E2E7189E0B08B4
S3150800925097110220038000F00C3C012008B50A4A49
S3150800926012785AB107280BD8084A02EB00131B7B61
S3150800927043B1002102F094FC002008BD0448FCE735
S315080092800448FAE70448F8E7971102200C3C012045
S31508009290028000F0018000F0078000F008B50A4A55
S315080092A012785AB107280BD8084A02EB00131B7B21
S315080092B043B1012102F074FC002008BD0448FCE714
S315080092C00448FAE70448F8E7971102200C3C012005
S315080092D0028000F0018000F0078000F00C4B1B783C
S315080092E07BB107280FD871B10A4B03EB00131B7B20
S315080092F05BB1094BDB6AC34003F0010300200B7026
S31508009300704706487047064870470648704700BFCA
S31508009310971102200C3C012000000450028000F046
S31508009320018000F0078000F010B50B4A0C46127851
S3150800933062B107280CD859B1084A02EB00131B7B07
S3150800934043B102F0B5FC2060002010BD0448FCE7DC
S315080093500448FAE70448F8E7971102200C3C012074
S31508009360028000F0018000F0078000F02DE9F0414E
S31508009370174B1F6D5B6D1F4000D5FEE701260025C4
S31508009380144CDFF85880374218D0C8F85060236864
S31508009390A3B1A168284601316268A1609847637B3A
S315080093A0012B0BD150B90C4B03EB45131A7B60F319
S315080093B041021A731A7F60F341021A770135082DA4
S315080093C04FEA460604F11004DDD1BDE8F08100BF7E
S315080093D0000004500C3C01200C3B012000200450E6
S315080093E070B5044601250B4E04B970BD94FAA4F075
S315080093F0B0FA80F005FA00F306EB001224EA03043B
S315080094005368002BF0D0117B11B191689847EBE7B0
S315080094109847E9E78C3C012008B5192001F0EAFED7
S3150800942028B14FF00072074BC3F880211A601A2042
S3150800943001F0E0FE28B14FF08062024BC3F88021AC
S315080094401A6008BD00E100E038B505460C4673F021
S3150800945071FD0022044B03EB05135C601A73BDE82B
S31508009460384073F06DBD00BF8C3C0120F8B504464A
S315080094700D4617461E4673F05DFD1CB9052D1AD01C
S31508009480FF2421E0012C05D1012D21D0032DF7D190
S31508009490042410E0022C07D1052D1BD0072D1BD064
S315080094A0002DEDD1062406E0032CE9D1022D15D0B6
S315080094B0052DE5D10A240A4904F1100301EB03112D
S315080094C00123C1E901760B7373F03AFD2046F8BD16
S315080094D00324F0E70724EEE70824ECE70924EAE783
S315080094E08C3C0120F8B505460E46174673F022FD5A
S315080094F0134B2C46D3F8242405F0FC0122FA05F375
S31508009500DB0712D500230133DBB2042B04D1FF2479
S3150800951073F016FD2046F8BDEC1804F003040C445D
S3150800952022FA04FC1CF0010FEDD1FF2CF0D0012229
S31508009530044B03EB0413C3E901671A73E8E700BF9A
S3150800954000C003508C3C0120074BD3F82404D3F801
S31508009550202403F50053104000F0553020F0502029
S31508009560C3F82004FFF73CBF00C00350074BD3F8ED
S315080095702404D3F8202403F50053104000F0AA3041
S3150800958020F0A020C3F82004FFF72ABF00C003502C
S31508009590024B1968024B186862F03EBB681300203C
S315080095A08813002070B59400224605460E46B0F092
S315080095B023FA431C0AD058B9224631462846B0F049
S315080095C069F80028034808BF002070BD0248FCE778
S315080095D00248FAE710E000F021E000F024E000F08D
S315080095E010B50446B0F00CFA431C10D088B902F046
S315080095F015FC234620F003002044984201D10020A0
S3150800960010BD53F8042B0132F7D00348F8E7034896
S31508009610F6E70348F4E700BF0EE000F021E000F0AB
S3150800962024E000F038B141B1013AB2F5006F0448C0
S3150800963038BF00207047034870470148704700BF8D
S31508009640037000F0027000F030B51049104B0A782C
S315080096502AB9C3E90022C3E9022201220A700C4989
S3150800966000220C4654F8045B854208D00132042ACD
S31508009670F8D1002251F8044B1CB943F82200002007
S3150800968030BD0132042AF5D10248F9E798110220C3
S315080096907C450120027000F038B504460D4673F08B
S315080096A049FCA3889BB223B92B6073F049FC064892
S315080096B038BD142263889BB202FB034408342C602D
S315080096C073F03EFC0020F3E70B7000F010B504467B
S315080096D0FFF790FD002104F10800FFF75BFD014646
S315080096E008B1044810BD04F10C00FFF753FD00282B
S315080096F0F8D0F6E70E7000F0F8B5044616460F46A1
S3150800970073F018FCA388E2889BB29A42054605D8EE
S315080097100023336073F014FC1748F8BD142223881D
S3150800972007F1100C9BB202FB03433A46083317466F
S3150800973003CF6745186059603A4603F10803F6D126
S31508009740142238681860238828469BB202FB034314
S31508009750083333602388E2889BB20133B3FBF2F106
S3150800976002FB11339BB22380A38801339BB2A380EB
S3150800977073F0E6FB0020D0E70A7000F090F8353069
S31508009780022B0DD114223023417F13FB0123054AF6
S315080097909B5890F8212023FA02F000F00100704748
S315080097A00020704730C00350002313B51D4A52F8F5
S315080097B0044B94F8211081420ED00133042BF6D1C4
S315080097C002B010BD0028FBD19DF80730002BF7D05A
S315080097D0A068FFF743FDF3E794F83530022BEFD185
S315080097E02046FFF7CBFF637E2076022BE8D194F85C
S315080097F0323003F0FF02002BE2D1A0680DF1070119
S315080098008DF80720FFF76AFD237E1BB194F83330E5
S31508009810002BD7D00023A06884F83330FFF73EFD2D
S31508009820CEE700BF7C45012090F8363053B90421B5
S3150800983003790A4A03F239135B01D15002220368FD
S315080098405A617047022B07D10068816C11F002013A
S3150800985018BF062173F0B7BB704700BF00C003509E
S3150800986090F836306BB9012203685A610268936929
S31508009870D907FCD504210379074AB9335B01D150CE
S315080098807047022B07D10068836C9B074CBF0521E4
S31508009890092173F098BB704700C0035010B590F8C3
S315080098A0363004466BB9042203685A610268936924
S315080098B09907FCD523790C4AB9335B0110219950D5
S315080098C010BD022BFCD10068836CDB074CBF052159
S315080098D0062173F078FB237941F294425B0103F188
S315080098E0A04303F57033E9E700C0035013B591F8B8
S315080098F036200B68022A0CBF9B6C9B690C469B069C
S31508009900084604D502B0BDE8104073F047BA73F0B4
S315080099102EFA00230146CDE90033044A234604F112
S315080099203C0075F085FA02B010BD00BFED9800083E
S31508009930012370B580F8303090F8363004460E466C
S3150800994086B0A3B905682435204673F041FA0D4B55
S3150800995004940393002302937368019301230093ED
S3150800996032682B466169E06873F043F907E0022B19
S3150800997002D105683C35E7E7002380F8303006B0A9
S3150800998070BD00BFE19C000801232DE9F04180F875
S31508009990313090F8363004460E4688B05BBB056811
S315080099A03C3573F0C7FA04F13C0807460DF11F0170
S315080099B0404607F047F940B99DF81F302BB140469D
S315080099C007F00EF9204673F0E9F9384673F0B8FA4D
S315080099D0204673F0FDF90D4B04940393002302937C
S315080099E073682A4601930123009333682169A068A6
S315080099F073F0E5F807E0022B02D105684435D0E795
S31508009A00002380F8313008B0BDE8F081119A0008CB
S31508009A102DE9FF41D06A03A91446FFF73DFE064625
S31508009A20204673F0A4F9002501462346CDE90055E2
S31508009A30184A04F13C0075F0FBF9174B9E4221D0F9
S31508009A40039E3561B56073F075FAD6F80C80074643
S31508009A50B8F1000F04D0D6E9002329462046C047AE
S31508009A60E06A03A973F0CDF9E06A83889BB26BB10B
S31508009A7003A9FFF711FE20460399FFF785FF38462D
S31508009A8073F05EFA012004B0BDE8F08184F8313045
S31508009A90F5E700BFED9800080B7000F02DE9F041DE
S31508009AA004461746FFF7BEFD88460646E8B9152060
S31508009AB001F0AEFB0546E26A93889BB213B194F8AF
S31508009AC03230ABB194F83630BBB923689D6915F0CE
S31508009AD0020527D0012384F834304744B845206866
S31508009AE044D183699B06FCD545B33046BDE8F08171
S31508009AF0002DE1D0FFF73AFCDDE7022B12D12368EF
S31508009B009D6C15F002050DD0012384F834304744C6
S31508009B104745206831D142F22002836C32EA0303BA
S31508009B20FBD1E1E72046FFF7B9FE012394F836504A
S31508009B3084F83430002DD0D0022D1CD094F836305D
S31508009B4003B3022BD1D12068816C11F0010118BF33
S31508009B50092173F038FA42F29442102123795B0105
S31508009B6003F1A04303F570339950BEE718F8011BBB
S31508009B7073F0DEFAB2E70025C9E718F8011B73F09F
S31508009B8027FAC5E710212379044A03F239135B0142
S31508009B90D150082223685A61A7E700BF00C00350C6
S31508009BA010B5044680B190F832302BB9FFF7E6FDC0
S31508009BB010B9A068FFF752FB002094F83230013341
S31508009BC0DBB284F8323010BD0048FCE7027000F0C2
S31508009BD010B50446A0B190F832309BB190F83230F7
S31508009BE0012B05D1FFF7CAFD10B9A068FFF756FB90
S31508009BF0002094F83230013BDBB284F8323010BDD5
S31508009C000148FCE70148FAE7027000F0057000F029
S31508009C1037B590F835500446022D1DD1012290F82B
S31508009C202230457E817F9A403020164B3DB900FB95
S31508009C30013303F501531A60002003B030BD012D2E
S31508009C4004D100FB013303F58253F4E7247E00FBBD
S31508009C500133002CF7D1ECE7012DEDD1037E73B962
S31508009C6011238DF80730FFF79BFF2A4620460DF192
S31508009C700701FFF713FF2046FFF7AAFFDCE71323C8
S31508009C80EFE700BF00C00350F0B587B0054616469B
S31508009C90FFF7C8FC0446F0B90493104BCDE901164A
S31508009CA06A46A86A01A903960593FFF725FD0446A7
S31508009CB088B995F8303073B92846FFF7D1FD28469C
S31508009CC00099FFF735FE95F83530032B03D0284663
S31508009CD02C76FFF79DFF204607B0F0BD017000F017
S31508009CE0F7B5906A01A91446FFF7D6FC0546204643
S31508009CF073F054F83A4B9D4231D094F83620019DC2
S31508009D00002A3BD121688B6C13F400732AD0AA6011
S31508009D104FF40072334B2B61236803F500539A64A2
S31508009D2073F008F9EF68064637B16A68AB682046EB
S31508009D30D31A29692A68B847A06A01A973F061F895
S31508009D40A06A8588ADB2002D3AD001A9FFF7A4FC18
S31508009D5020460199FFF7ECFD304673F0F1F8012033
S31508009D6003B0F0BD8A6CD10526D51F4AAB602A61BF
S31508009D7023684FF4807203F50053D0E7022A1BD1FB
S31508009D802268D36C13F400730AD0164B4FF4007292
S31508009D902B610023AB60236803F50053DA64BFE741
S31508009DA0D26CD20508D5104AAB602A6123684FF4F5
S31508009DB0807203F50053F1E700232B61AB60AFE730
S31508009DC0012320462376FFF723FF94F8353084F8DD
S31508009DD03050032BC0D02046FFF726FDBCE700BF56
S31508009DE00B7000F00D7000F00C7000F02DE9F043D8
S31508009DF005468FB0874F06AE0C460FCF0FC697E8BD
S31508009E000F0086E80F00182200216846AFF06CFCA8
S31508009E10002D00F0FC8024B97F4E30460FB0BDE817
S31508009E20F083602200212846AFF05EFC23682846AE
S31508009E302B60022385F83630237C2B71FFF704FC50
S31508009E4006460028E9D1237F744A85F83530236809
S31508009E50934200F0BC80724A9342DDD157214FF4F9
S31508009E608013704AC5E904230023696285F83130F6
S31508009E7085F83030D4E90912A9620B80A96A3A201C
S31508009E804B80A96A684E8B8085F83030EA62138069
S31508009E90EA6A01215380EA6A938085F8313085F8A9
S31508009EA0333000F0F1FB0121686A00F0EDFB2379FD
S31508009EB0002B00F091800121362000F0E5FBD6F852
S31508009EC0203223F0070343F003031022C6F820329A
S31508009ED0237C564F284607EB4313C3F89424A17BEB
S31508009EE0237C227B07EB431342EA0142C3F8AC24E6
S31508009EF0237CE17B627B253342EA014207EB43136D
S31508009F005A60237B0121EB76A37BEB77637B2B7768
S31508009F10E37B85F82030637F6B77A37F85F8213054
S31508009F20E37FAB7794F8203085F8223072F0B0FEE4
S31508009F30064600287FF471AFA3684FF0020908931C
S31508009F40638A8DF82590ADF82830A38ACDF834D0E9
S31508009F50ADF82630A37D8DF82430A3690B93012331
S31508009F60ADF8063072F0E6FF227F8046032A3AD122
S31508009F7041F29441237C07EB431343F80190237C79
S31508009F8094F82000E17F07EB431341EA004103F50B
S31508009F90A5531960217CA07F07EB411741F29C412C
S31508009FA0637F43EA00437B508DF8002006238DF833
S31508009FB018302379206806A933B373F012F82846B7
S31508009FC0FFF784FB0646404672F0BAFF25E756219E
S31508009FD04FF47023164A45E7D6F8203223F00703D4
S31508009FE043F0010371E7022AE0D195F821001149EF
S31508009FF0FFF72AFAFFF710FA4FF4007328462B8367
S3150800A000AE76FFF705FED1E772F0E7FFD7E70A4E0F
S3150800A01003E700BF5C9E0B08037000F00000015BBD
S3150800A02000000A50010010000080005000C00350D4
S3150800A03001000F00A9970008027000F0F0B587B07C
S3150800A04004461646FFF7EEFA054658BB0493194B25
S3150800A050CDE90116059394F8363003962BBB236891
S3150800A0609B6903F0020313B92046FFF717FC6A46FB
S3150800A070E06A01A9FFF740FB054698B994F8313024
S3150800A08083B972F057FFE36A06469B889BB233B1E1
S3150800A09020460099FFF778FC012384F834303046CF
S3150800A0A072F04EFF284607B0F0BD022BDCD12368BC
S3150800A0B09B6CD6E7017000F0044BD3F88420D206D7
S3150800A0C0FBD4D3F88400C0F38110704700400050D9
S3150800A0D02E4B98424AD022D82D4B984240D014D8BD
S3150800A0E02C4B984239D00AD82B4B984232D02B4B5E
S3150800A0F098422FD02A4B98422CD000207047294BE3
S3150800A1009842FAD1284B186F7047284B98422AD0A4
S3150800A110274B9842F1D1244BD3F880007047254B42
S3150800A12098422BD009D8244B984223D0234B9842E7
S3150800A130E3D11D4BD3F88C007047214B984221D0B0
S3150800A14003F5740303F510539842D6D1164BD3F88A
S3150800A15098007047144B986D7047134B586E7047AC
S3150800A160114B586F7047104B986F70470E4BD3F8CA
S3150800A170840070470C4BD3F8880070470A4BD3F815
S3150800A18090007047084BD3F8940070470048E801E0
S3150800A1900024F400C0CF6A0080841E0000093D0038
S3150800A1A040420F00405DC6000080E00FC0EA210172
S3150800A1B080BA8C01007E560380D54302006CDC020F
S3150800A1C00090D00338B5104B0546D3F880300C46BE
S3150800A1D003F00303022B0BD0032B0DD0012B0FD159
S3150800A1E0FEF7EEFA0E2305B1286004B1236038BDE8
S3150800A1F0FEF730FB0723F6E7FEF7D6FA0623F2E763
S3150800A20000231846EFE700BF0080005038B5184B0A
S3150800A2100546D3F820010C4600F00700062823D887
S3150800A220DFE800F0040A0E16121A1E00012305B113
S3150800A230286004B1236038BDFEF7B6FA0523F6E7B1
S3150800A240FEF7EEFA0323F2E7FEF704FB0723EEE731
S3150800A250FEF7FCFA0223EAE7FEF7A6FA0623E6E784
S3150800A260FEF7DEFA0423E2E700231846DFE700BF1D
S3150800A2700080005038B5174B0546D3F828310C46F0
S3150800A28003F00703013B052B20D8DFE803F003138F
S3150800A2901B0F0B17FEF788FA052305B1286004B1D2
S3150800A2A0236038BDFEF780FA0623F6E7FEF7D2FAF2
S3150800A2B00723F2E7FEF7B4FA0323EEE7FEF7B0FA50
S3150800A2C00423EAE7FEF7C2FA0223E6E70023184664
S3150800A2D0E3E700BF0080005073B50D460021114B1F
S3150800A2E00191D3F88041064604F00304022C13D0EA
S3150800A2F0032C0CD0012C13D101A8FFF787FF1024DB
S3150800A3000EB1019B336005B12C6002B070BDFEF73B
S3150800A310A1FA07240190F3E7FEF798FA0190EFE710
S3150800A3200C46EDE700800050002337B50193164B25
S3150800A3300546D3F820320C4603F00703042B21D830
S3150800A340DFE803F0030B11161B0001230DB1019A78
S3150800A3502A6004B1236003B030BD002101A8FFF7CD
S3150800A36089FF1223F2E7FEF775FA07230190EDE756
S3150800A37072F0BDFA0A230190E8E7FEF7ADFA092361
S3150800A3800190E3E70023E1E70080005038B5104B61
S3150800A3900546D3F840310C4603F00303022B0BD0D5
S3150800A3A0032B0DD0012B0FD172F0A1FA0A2305B1A8
S3150800A3B0286004B1236038BDFEF78EFA0923F6E754
S3150800A3C072F098FA0C23F2E701230020EFE700BFAA
S3150800A3D000800050002337B50193164B0546D3F885
S3150800A3E060320C4603F00703013B032B1FD8DFE856
S3150800A3F003F0020E1914002101A8FFF707FF102326
S3150800A4000DB1019A2A6004B1236003B030BD002162
S3150800A41001A8FFF7BBFF1123F2E7FEF71BFA072394
S3150800A4200190EDE7FEF712FA02230190E8E7002310
S3150800A430E6E700BF00800050002337B50193164BAE
S3150800A4400546D3F894320C4603F00703013B032B69
S3150800A4501FD8DFE803F0020E1914002101A8FFF740
S3150800A460D5FE10230DB1019A2A6004B1236003B00A
S3150800A47030BD002101A8FFF789FF1123F2E7FEF797
S3150800A480E9F907230190EDE7FEF7E0F902230190C9
S3150800A490E8E70023E6E700BF0080005038B5144B14
S3150800A4A00546D3F800020C4600F0070004281BD81E
S3150800A4B0DFE800F003090D111500012305B1286036
S3150800A4C004B1236038BD72F012FA0A23F6E7FEF7E4
S3150800A4D003FA0923F2E772F00DFA0C23EEE7FEF70A
S3150800A4E089F90F23800AE9E700231846E6E700BF43
S3150800A4F00080005038B5144B0546D3F808020C46C0
S3150800A50000F0070004281BD8DFE800F003090D1146
S3150800A5101500012305B1286004B1236038BD72F027
S3150800A520E6F90A23F6E7FEF7D7F90923F2E772F008
S3150800A530E1F90C23EEE7FEF75DF90F23800AE9E758
S3150800A54000231846E6E700BF0080005038B5104BD8
S3150800A5500546D3F840320C4603F00303022B0BD012
S3150800A560032B0DD0012B0FD172F0C1F90A2305B1C7
S3150800A570286004B1236038BDFEF7AEF90923F6E773
S3150800A58072F0B8F90C23F2E701230020EFE700BFC9
S3150800A5900080005038B5104B0546D3F860310C469C
S3150800A5A003F00303022B0BD0032B0DD0012B0FD185
S3150800A5B072F09DF90A2305B1286004B1236038BDFD
S3150800A5C0FEF78AF90923F6E772F094F90C23F2E705
S3150800A5D001230020EFE700BF00800050B0F5207F80
S3150800A5E01FD009D8B0F5007F15D003D868B1B0F5EB
S3150800A5F0C07F0AD000200CE0B0F5607FFAD10B4B83
S3150800A600D3F88000C0F3011003E0084B186FC0F3BD
S3150800A610033001307047054BD3F89000C0F304604F
S3150800A620F7E7024B186FC0F38020F2E7008000506E
S3150800A63002464FF48030104B10B598660020FFF79D
S3150800A640CDFF504341F671320C4BDC69DA635A6828
S3150800A65004F4803422F4401259B90949884294BF57
S3150800A66000200120000502435A600CB10022DA637B
S3150800A67010BD0449F2E700BF0090005000000350E7
S3150800A680005A6202002D3101430905D0012B0CD076
S3150800A690022B084B18BF002300F01F0039B103F541
S3150800A6A08053012282401A607047034BF4E703F592
S3150800A6B00053F6E768800050648000501FB50021FB
S3150800A6C080280446CDE9001100F0A58035D85E281B
S3150800A6D046D85E2844D8DFE800F0A2434343434304
S3150800A6E0434343434343434343434343434343432C
S3150800A6F043434343434343434343A2AAA2AABABAA2
S3150800A700BABABAAAC44DDA714DAAAAAA43434343B0
S3150800A71043434343AAAAAA79E4AA43434343434388
S3150800A72043434343434343BAA2A2A2DF4D4DE988BC
S3150800A7305EBF434343434399A200B0F5B06F00F0B0
S3150800A74090802DD8B0F5207F71D00CD8B0F5C07F99
S3150800A75065D0B0F5007F65D0B0F5807F00F08680C3
S3150800A760009804B010BDB0F5607F6BD00DD8B0F579
S3150800A770407FF5D1FEF73EF802464FF42070FFF70A
S3150800A7802DFFB2FBF0F252085AE0B0F5806F5ED0AA
S3150800A790B0F5A06FE4D100216846FFF7C5FDDFE7F5
S3150800A7A0B0F5106F78D016D8B0F5E06F79D00AD822
S3150800A7B0B0F5C06F6BD0B0F5D06FD1D10021684627
S3150800A7C0FFF76CFECCE7B0F5F06FC9D100216846FB
S3150800A7D0FFF7E0FEC4E7B0F5406F3DD013D8B0F5FB
S3150800A7E0206F63D0B0F5286FBAD10021324B0391A0
S3150800A7F0D3F8703203F00303012B02D103A8FFF745
S3150800A800C5FD039B3CE0B0F5486FA9D10021684619
S3150800A810FFF712FEA4E7FDF7D3FF0090A0E7FDF7C8
S3150800A820E9FFFAE7FDF7CCFF0246204604E0FDF70C
S3150800A830E1FF02464FF42070FFF7D0FEB2FBF0F2BC
S3150800A84000928DE701A8FFF7BDFC019AEDE700210C
S3150800A8506846FFF7DBFC83E700216846FFF70AFD39
S3150800A8607EE700216846FFF737FD79E74FF0E023DA
S3150800A87002911B695B0705D5FDF7BCFF0290029B99
S3150800A88000936DE703A902A8FFF780FDF7E700210B
S3150800A8906846FFF77BFD63E700216846FFF72AFE57
S3150800A8A05EE700216846FFF751FE59E70021684632
S3150800A8B0FFF790FD54E700BF0080005008B58020E0
S3150800A8C0FFF7FCFE034B98429EBF4FF48032024BC3
S3150800A8D01A6708BD005A620200A000501FB5034659
S3150800A8E00020B3F5807F019000F0C18064D85D2B0D
S3150800A8F055D84C2B07D82D2B48D8232B2CD8019864
S3150800A90005B05DF804FB4D3B102BF8D801A252F8B0
S3150800A91023F000BF65AA0008FFA80008FFA80008E2
S3150800A920FFA800081BAA0008FFA80008FFA800083F
S3150800A930E9AA000839AA0008DFA90008DFAA000862
S3150800A940FFA80008FFA80008FFA80008FFA800083D
S3150800A950FFA80008F3AA0008243B092BCFD801A2B8
S3150800A96052F823F065AA000865AA000865AA000837
S3150800A97065AA000865AA0008FFA800085BAA0008DF
S3150800A980FFA80008FBA900089BAA00083D2B7FD05A
S3150800A9903E2BB4D1002001A9FFF7D8FDAFE7802BE5
S3150800A9A0ADD1594B1B6F03F00703013B032BA6D808
S3150800A9B0DFE803F0514E858DB3F5F06F68D021D8E6
S3150800A9C0B3F5B06F49D00FD8B3F5607F00F0838038
S3150800A9D095D3B3F5806F45D0B3F5A06F8FD100201E
S3150800A9E001A9FFF7A1FC8AE7B3F5D06F55D0B3F5F7
S3150800A9F0E06FCFD0B3F5C06F81D1002001A9FFF772
S3150800AA00C5FC7CE7B3F5206F6ED00BD8B3F5086F9D
S3150800AA1048D0B3F5106F7FF472AF002001A9FFF795
S3150800AA2069FD6CE7B3F5406F59D0B3F5486F60D050
S3150800AA30B3F5286F7FF463AF334BD3F8703203F066
S3150800AA400303012B5AD0022B0CBF1523002300E069
S3150800AA500523019353E70223FBE7002001A9FFF72B
S3150800AA603BFC4CE7002001A9FFF7D0FB47E74FF076
S3150800AA70E02302901B695B0705D5FDF7BBFE0D2396
S3150800AA800393039BE5E703A902A8FFF77FFCF8E712
S3150800AA90002001A9FFF77EFD31E7002001A9FFF795
S3150800AAA0FDFC2CE7184BD3F8003103F00303022B07
S3150800AAB007D0032B09D0012B0BD1FDF7B1FE0323D9
S3150800AAC0C7E7FDF709FF0923C3E771F00EFF08235F
S3150800AAD0BFE70123BDE701A9FFF774FB0FE70020D5
S3150800AAE001A9FFF7C7FB0AE7002001A9FFF772FCD7
S3150800AAF005E7002001A9FFF79FFC00E7002103A84E
S3150800AB00FFF744FC1123A4E70080005008B5FFF7BF
S3150800AB10E5FE092811D00A38012802D94FF6FF7038
S3150800AB2008BD4FF48002064B5A6603F5D8335B6AB4
S3150800AB30DB07F3D54FF4FA70F2E7024B1888EFE714
S3150800AB40009000507219002038B504468020FFF79F
S3150800AB50C5FE032800F08A804FF48012544B4FF04C
S3150800AB60A0615A6645F60E03524AC2F88030524B27
S3150800AB7099624FF4803103F580539962936DD90336
S3150800AB80FCD4916D11F08041FBD1D4E900031B057B
S3150800AB9043EA0063E07B0343207B43EA0043607B90
S3150800ABA043EA0033A07B43EA801313619069D4E932
S3150800ABB004531B0643EA856300F000400343A07E66
S3150800ABC00343207E43EA0043607E43EA0023936101
S3150800ABD0136AE06923F00F030343003818BF012006
S3150800ABE0E57E43EA850343EAC0031362E369334D0E
S3150800ABF0002B3CD194F82430916A94F82000DB00AD
S3150800AC00294043EA40130B4394F8211043EA011301
S3150800AC1043F4803393622A49264A936D31EA030343
S3150800AC20FBD14FF08071244881621369A56823F42B
S3150800AC30700343EA055313614FF00043836194F8A8
S3150800AC4022300BB91F4B996294F823303BB94FF465
S3150800AC5080321C4B9A62174A936D5B00FCD494F8B9
S3150800AC6025301BB1134B184AC3F8802038BD022B78
S3150800AC7008D11161154891614FF408524FF47F418C
S3150800AC8072F01AF90B4994F822308A6A94F820006F
S3150800AC901B062A4043EA4013134394F8242043EA48
S3150800ACA0C20394F8232043EA02438B62D7E700BF26
S3150800ACB0009000500040005A0050005AC7FFFEFEA0
S3150800ACC0030001000060005AF1A7FFFF3440005A54
S3150800ACD070B5194CFF28A66A2BD8A36D4FF0807162
S3150800ACE013F4803F18BF4FF48032144B18BF9A6292
S3150800ACF09962134AA36992F9005023F47F03054425
S3150800AD0023F47F4343EA002385F3080543EA054312
S3150800AD10A36132460B4872F0CFF8A36DDB0301D46A
S3150800AD20002070BD32464FF48031064872F0C4F8F0
S3150800AD30F6E72120F5E700BF0040005A0050005A08
S3150800AD40901900202840005A014B93F900007047DB
S3150800AD50901900204FF4803311481249826A8B6299
S3150800AD60836D03F00303032BFAD14FF080730E486B
S3150800AD708B620B4B996D30EA0101FBD10120094921
S3150800AD800865996D8907FCD4054B996D8807FCD52C
S3150800AD90996D8907FCD50549054872F08DB800BF3D
S3150800ADA00040005A0050005A03000100000001014B
S3150800ADB02840005A4FF400011B4A437810B55166E3
S3150800ADC04FF4D151022402F5B832516217494F2B7C
S3150800ADD04C604FF0010428BF4F2301F580514C60A9
S3150800ADE01169C903FCD4017843EA01235361D0E908
S3150800ADF001131B0143EA0123417B0B43017B43EA11
S3150800AE0041039360C37B817B1B0143EA4113417C69
S3150800AE100B43017C43EA41035360837C13B16FF40F
S3150800AE20D153536210BD00BF00900050001002506D
S3150800AE30014B1880704700BF72190020014B18801B
S3150800AE40704700BF701900204FF4800208B5184BF0
S3150800AE505A660223174A5360936813F48033FBD16A
S3150800AE60012822D1FDF7DCFC134B984215D003F5D7
S3150800AE70122303F5F863984213D0104B00EB8002B7
S3150800AE80400AB3FBF0F3520A0A49CA620B6301236C
S3150800AE904B620022074B5A6008BD45F67A13084AEA
S3150800AEA0F2E745F61A03074AEEE75362F1E700BFF1
S3150800AEB0009000500040025000F049026466666641
S3150800AEC0D8B80500BBCF0500B0F5207F10B50C46F5
S3150800AED05DD008D8B0F5007F4ED003D8C0B1B0F524
S3150800AEE0C07F15D010BDB0F5607FFBD12C4B4C1E32
S3150800AEF0D3F8FC202B4912F0807F4FEA041427D19F
S3150800AF00D1F8803023F030032343C1F88030E9E7D5
S3150800AF1071F0E1FF71F0EDFF4FF48031224B214AC9
S3150800AF201967136F013C23F4704343EA043313672C
S3150800AF30FDF760FC0446FFF7BFF8C0F102012046A2
S3150800AF4071F0D1FF00F042F8BDE81040FFF7B6BC3B
S3150800AF50D3F8FC2022F08072C3F8FC20D1F88020B8
S3150800AF6022F030022243C1F88020D3F8FC2042F0B8
S3150800AF708072C3F8FC20B5E70A4A4C1ED2F8903016
S3150800AF8023F0F85343EA0463C2F89030AAE7054A67
S3150800AF904C1E136F23F4806343EA84231367A1E7E7
S3150800AFA000ED00E0008000500090005008B5012137
S3150800AFB0022000F0B1F971F08EFF71F09AFF4FF49C
S3150800AFC08032014B1A6708BD0090005008B54FF44F
S3150800AFD0C070FFF773FBBDE808400449884294BF78
S3150800AFE0012102214FF42070FFF76EBF80F0FA02AC
S3150800AFF04FF4C02201212DE9F0410746684B5A66F5
S3150800B000684A03F598335C6851605D6815F0020577
S3150800B010FBD13E68FFF750F8012805D1624B9E42E6
S3150800B02002D90020BDE8F081604A00231146106865
S3150800B030864202D35068864205D90133192B02F19C
S3150800B0401002F4D1002301EB0313D3E9028028B1DF
S3150800B050FFF73EF800F07F0048EA00088020FFF777
S3150800B0603DFC05287AD171F036FF71F042FF4FF4A6
S3150800B07080324B4B4FF4C0701A67FFF7AFFA0128BE
S3150800B080054667D102214FF4C070FFF71DFF012660
S3150800B090474BDA6812F0060FFBD19968C3F80880A7
S3150800B0A09A6882EA080212F4F81F6BD1BA88FB88FC
S3150800B0B043EA02433F4AD360BB68032B50D1A2F54B
S3150800B0C0A032D2F8003123F0030343F00103C2F89B
S3150800B0D000317B7D3A7D9B0143EA82033A6913433B
S3150800B0E03A7B43EA4203334A93603868FDF762FBCA
S3150800B0F0002707222B4B1A610122A3F580535A60B9
S3150800B100A3F580531C6914F00704FBD08020FFF7D1
S3150800B110E5FB052817D126B129464FF4C070FFF77D
S3150800B120D3FEFDF767FB0546FDF73EFBFDF73CFB47
S3150800B130FEF7C2FFC0F10201284671F0D4FEFFF700
S3150800B14045FFFFF7BBFB002F7FF46BAF631E58422A
S3150800B150584167E7022801D1042194E7002697E7BA
S3150800B160092B07D1144AD2F8003123F0030343F020
S3150800B1700203ACE7082BACD10F4AD2F8003143F0F2
S3150800B1800303A4E714F00104996001D00127B0E78E
S3150800B1908020FFF7A3FB05287FF443AF0127BAE712
S3150800B1A00090005000E00150005A62027C9E0B0895
S3150800B1B00000015000C00150008000500028ABBFBD
S3150800B1C000F16040054B00F5614000F00F00ACBF90
S3150800B1D090F80003185C0009704700BF14ED00E002
S3150800B1E0034B5868C0F30800003818BF01207047A1
S3150800B1F000ED00E0054B420953F8223000F01F002D
S3150800B20023FA00F0C04300F00100704700E100E0B7
S3150800B210014608B5EFF31083DB0702D50122104675
S3150800B22008BDFFF7E7FF02460028F7D10846FFF7F3
S3150800B230C5FF0146EFF3118313B1B0EB131FEDD22F
S3150800B240074B5B68C3F30803002BE8D0103B58B2E2
S3150800B250FFF7B4FF88428CBF00220122DFE700BF58
S3150800B26000ED00E0024A536B0342FCD1704700BF71
S3150800B27000400950044A4178536F23F4407343EA67
S3150800B28001235367704700BF0040005010B50C4AB1
S3150800B2900446136943F00403136105F071FA71F06B
S3150800B2A052FE084B084AC3F8202430BF71F04CFE02
S3150800B2B005F0A0FA1CB9BDE81040FDF79BBA10BD11
S3150800B2C000ED00E000E003500000FF0F10B50A4A49
S3150800B2D00446136943F004031361084B084AC3F88C
S3150800B2E0202405F04DFA30BF05F084FA1CB9BDE8F4
S3150800B2F01040FDF77FBA10BD00ED00E000E00350F6
S3150800B3000000FF0F034A0179D36E23F030030B4385
S3150800B310D366704700400050F8B504461C4BD3F876
S3150800B3208420D106FBD4D3F88430C3F381139C421E
S3150800B3302CD0FDF745FA012C064602D1214671F0BC
S3150800B340D2FD71F0F0FD4FF00072124B07465A66B7
S3150800B350204671F0FCFD4FF480630D4D621E93404C
S3150800B3602B676B6E9A0103D4D5F884309B060AD5F1
S3150800B370384671F0DCFD022C08D13046BDE8F840AD
S3150800B380002171F0B0BDD5F88430EAE7F8BD00BFFA
S3150800B390004000500060005010B50C4608B9FDF793
S3150800B3A00FFA074B21461B783BB1064B984204D847
S3150800B3B00120BDE81040FFF7AFBF0220F9E700BF44
S3150800B3C099110220005A62020278034B01210020DB
S3150800B3D01A70FFF7E1BF00BF991102204FF0004233
S3150800B3E038B5244B244C5A664AF6CD33656C01466B
S3150800B3F005F00105236428BB0120FFF733FF6368C6
S3150800B400DB0715D51D4B586008461D4B226BD20726
S3150800B4100CD4984208D1072415B1174B194A1A6457
S3150800B420ABF048FE204638BD0130EFE79842F2D02F
S3150800B4300024F1E70132236B13F0080305D08A4292
S3150800B440F8D1E8E700220E49F5E78A42E3D0202141
S3150800B4500A4A91620121A2F5805251600649084ABA
S3150800B460886A800603D49342D5D00133F8E793421D
S3150800B470DDE700BF00900050004009500060095009
S3150800B48040420F003254FFFF4FF0004238B5164BCA
S3150800B49001465A664AF6CD33144C154A656C236440
S3150800B4A043780B205B0043F00103D363FFF7DAFE12
S3150800B4B063688A7823F4F87343EA02136360CA78E8
S3150800B4C04B7943EA0223A3600A798B7943EA02237C
S3150800B4D023610878FFF782FFEB0744BF054B236417
S3150800B4E0ABF0E8FD012038BD00900050004009503F
