S02B00004D61747465724C696768745377697463684F7665725468726561645F62726434313836635F763434FF
S315080060000012002025870008B5DD0708E7390908CA
S315080060109B020808B5DD0708B5DD0708B5DD0708E2
S31508006020B5DD0708B5DD0708B5DD070851620008C4
S31508006030B5DD0708C8BA0B08F1610008FF0D0808A6
S31508006040458C0008B5DD0708B5DD0708B5DD070886
S31508006050B5DD0708B5DD0708B5DD0708B5DD0708AE
S31508006060B5DD0708B5DD0708B5DD070835EB020815
S31508006070B5DD0708B5DD0708B5DD0708B5DD07088E
S31508006080B5DD0708B5DD0708B5DD0708B5DD07087E
S31508006090B5DD0708B5930008B5DD0708B5DD0708BF
S315080060A0B5DD0708B595000891950008B5DD070820
S315080060B0B5DD0708116A07089D740708519B0B0888
S315080060C04D9B0B08456C07085D9B0B08559B0B08F9
S315080060D075740708599B0B08DD7407084975070886
S315080060E0B5DD0708B5DD0708B5DD0708B5DD07081E
S315080060F0D7010808B5DD0708B5DD0708B5DD0708C7
S31508006100B5DD0708B5DD0708B5DD0708B5DD0708FD
S31508006110B5DD0708B5DD0708B5DD0708B5DD0708ED
S31508006120B5DD0708B5DD0708B5DD0708B5DD0708DD
S31508006130B5DD0708B5DD0708B5DD0708B5DD0708CD
S31508006140B5DD070839C80008B5DD0708E103080802
S31508006150BD510708B5DD0708D7970B08DD970B086B
S31508006160B5DD0708B5DD0708B5DD0708B5DD07089D
S31508006170013800D0FCE7704700000000000000006E
S315080061800B4A1168086806C881F30B88022181F357
S315080061901488203080F30988BFF36F8F4FF0000012
S315080061A080F31188104700BFAFF30080AFF300807B
S315080061B0D057012000000000000000000000000089
S315080061C007480068006880F3088862B661B6BFF3BE
S315080061D04F8FBFF36F8F02DF00BF00BFAFF30080A2
S315080061E008ED00E0000000000000000000000000CC
S315080061F0EFF30980EFF30B82734620E9FC0F104A90
S31508006200116808604FF0300080F31188BFF34F8F94
S31508006210BFF36F8F0EF0B0FB4FF0000080F31188CC
S31508006220074A11680868B0E8FC0F82F30B8880F308
S3150800623009881847AFF30080AFF30080AFF30080FA
S31508006240D0570120000000000000000000000000F8
S315080062501EF0040F0CBFEFF30880EFF30980044922
S31508006260084700BFAFF30080AFF30080AFF30080AC
S31508006270A5560108000000002DE9F043022089B068
S315080062800BF040FE00B9FEE75F4E336803B9FEE740
S3150800629010200BF037FE33685C4C9B880DF10B0120
S315080062A08DF80B30012320681A46B2F06AFE9DF875
S315080062B00B203168023A0023096892B22068B2F0CE
S315080062C060FE534B05AF93E8070087E8070033687D
S315080062D01B681D7815F020051FD02068B2F07FFCDA
S315080062E0002868D02068B2F07AFC71F061FE024698
S315080062F00B4641A1D1E9000171F0FEFF80460798DF
S31508006300894671F055FE02460B464046494671F0ED
S3150800631013FD72F061F9012507902068B2F07BFC45
S315080063209DF80B30002849D0981DC00071F050FE2A
S3150800633033A3D3E9002371F0B5FE80462068894669
S31508006340B2F069FC71F034FE02460B4640464946F7
S3150800635071F0D2FF80460798894671F029FE0246F9
S315080063600B464046494671F0E7FC72F035F932684B
S315080063700790D3697BBB10200BF0C4FD18B3079BAD
S31508006380326803F5FA7392F820100793214B997037
S3150800639021490978D970917900972A462068B2F080
S315080063A09BF928B14FF480500BF0D6FE4EF062FCF4
S315080063B009B0BDE8F0830798C030ACE70798063304
S315080063C000EB4310D3E731683B462A4689792068B3
S315080063D0B2F06CF9E5E791690B44A03B03930023FF
S315080063E0ADF810300D4B9179009301972A46206835
S315080063F003ABB2F07CF9D4E70000000060E3664125
S315080064000000000080842E41B8490120144901206B
S315080064103CDF0B08C413002098190020B81300208D
S31508006420F7B501200BF06EFD0446002840F0AB805E
S31508006430594D5A4B5A4EC5E9003005F11003AB6069
S3150800644041F60B23102230607F215648B380B4F002
S31508006450C1FF7F22544B1A70544B1B6ADB0700D4CA
S31508006460FEE72146284667F0E5FB044600B9FEE745
S3150800647068F09EFF00B1FEE720464D4968F0B8FA7D
S3150800648000B1FEE702212046B2F08BFB00B1FEE721
S315080064902046484968F076FD00B1FEE7012120460E
S315080064A0B2F004FF00B1FEE701212046B2F014FF66
S315080064B0074600B1FEE701463C223F48B4F08AFF92
S315080064C080233A46204605F11401B2F070FD802873
S315080064D000D0FEE7394D0120B2F0E3F82CA3D3E94A
S315080064E000232C602046CDE900234FF0FF324FF001
S315080064F0FF33B2F00BFC014600B1FEE728480BF06B
S315080065005DFD012108460BF02BFD01212868B2F03C
S3150800651095FA044600B1FEE701464FF40C62284896
S31508006520B4F058FF274B284A9C801C60274B6FF015
S3150800653063001A609C80264A264B1A60264A9C806D
S315080065405A6115F08FFA33790B2B00D9FEE7737968
S315080065500A2BFBD9214B1E6006F0C0F820460BF02B
S315080065607DFD082228681146B2F0EAFB044600B110
S31508006570FEE70CF071FD1A4B1A481C7003B0BDE813
S31508006580F04080F038B803B0F0BD00BFAFF300802C
S315080065900BE020FFE203000024490120E121010865
S315080065A01C490120191C0220181C02200080E00F3B
S315080065B00700110008DF0B08D44801201449012000
S315080065C0BC490120C0290020B21C022098290020BD
S315080065D0331C022070290020602900201849012058
S315080065E0341D0220FCDE0B082DE9F04F00252DEDA9
S315080065F0028B04462F46A8469FED398B9BB03A4B33
S315080066000591164602212120384AA3F0B5FF94F8D1
S31508006610383004F1080A03930295039A2BB29A427A
S315080066200DD1029B20460CA9CDE90C378DF8388090
S3150800663032F036FD1BB0BDEC028BBDE8F08F5AF880
S31508006640043F615D2A4804939AF086FF036806931F
S3150800665003798DF81C300BB18368089383893168F8
S31508006660ADF82430D0E90423CDE90A230B680CA839
S315080066709B699847DDE90AB301930198DDE90C2384
S31508006680984208BF93459DF8191026D19DF8389071
S31508006690894522D1174BC8460C93059B164A109379
S315080066A00023314611A81192CDE912338DF85030E6
S315080066B08DED0E8BA9F0FBFF316816A80B689B6958
S315080066C09847049AE36B12680CA906A898470CA881
S315080066D032F0EEFA019FCDF808B001359DE700BF0C
S315080066E00000000000000000675A0C0853690C08F7
S315080066F020D60020C4690C08CC480D08000000000C
S315080067002DE9F04F2DED028B884204460D461746BB
S315080067101E4697B00AD1034601211D202E4A17B0FE
S31508006720BDEC028BBDE8F04FA3F026BF9FED288B8A
S315080067300DF10C092A2148460DF114083EF0BCF863
S3150800674099E8030088E80300DFF890A0DFF890B026
S31508006750BDF81400BDF81630834204D117B0BDEC5D
S31508006760028BBDE8F08F3EF00DF9337881468DF83F
S3150800677024408DF825508DF826708DF828300BB1F9
S3150800678073680B9309AB0893CDF81CA02BF058FE41
S3150800679000230E938DF840308DF851302A23ADF83A
S315080067A030904FF001090D930CAA6B4607A98DEDA1
S315080067B0128B8DF8509090F054FB034620B15A4640
S315080067C049461D20A3F0D8FE40469AF072FDBFE761
S315080067D000000000000000004C8A0C08588B0C08CA
S315080067E08C8A0C08000000002DE9F04F2DED028B75
S315080067F09FED318B9DB00DF108092A21044604ADA1
S31508006800484616461F46DDF8A4803EF055F899E836
S31508006810030085E80300DFF8A8A0DFF8A8B0BDF8F4
S315080068201000BDF81230834204D11DB0BDEC028BB6
S31508006830BDE8F08F3EF0A6F8289B81461B78CDE987
S315080068400A6708948DF830301BB1289B5B788DF861
S31508006850313098F800308DF838301BB1D8E902236A
S31508006860CDE9102308AB0793CDF818A02BF0E8FD67
S3150800687000232A228DF858308DF869300223ADF8A6
S3150800688048904FF00109CDE9132306A96B4612AAD1
S315080068908DED188B8DF8689090F0E3FA034620B1D9
S315080068A05A4649461D20A3F067FE28469AF001FD80
S315080068B0B5E700BFAFF3008000000000000000004D
S315080068C0808B0C08E38A0C082DE9F0472DED028B26
S315080068D0C8B01AAB0293B6230393002304468B6011
S315080068E00CA80D4697F074FE41490CA897F090FE47
S315080068F0204602AA0CA998F079FBB8B902A904A8FF
S3150800690096F04BFFDDE904120CA8A1F012FE4FF435
S315080069108072002316210CA8A2F0FFF830B90DF1F9
S3150800692003010CA8A1F0EDFF064620B148B0BDEC66
S31508006930028BBDE8F08701A90CA8A2F0A1F9019A7B
S315080069406B689A4239D860249FED278B01270CA8DB
S31508006950A2F0A9F850B12128E8D19DF903100CA896
S31508006960A2F06CF80446B8B32046DFE76B689E428F
S3150800697001D3B4F094FA04FB06F9D5F800A0049004
S315080069808DF820000CA904A88DED068B0AEB0908E2
S3150800699075F027F90028C9D1049B4AF80930DDE9C2
S315080069A00623C8E902239DF8203093B1DDE90919C9
S315080069B0B9F1400F08F1200301D91920B6E74A4674
S315080069C01846B4F0B2FDC8E9050988F81070013612
S315080069D0BDE788F81030FAE70CA8A2F064F8212879
S315080069E0A4D1AE60C0E700BF0000000000000000B0
S315080069F01F8E0C08000000002DE9F04F2DED028BCC
S31508006A00ABB004460D4639F0C7F8074600287DD0D6
S31508006A10204698F016FC002198F03FFC067CD0F83A
S31508006A2000906EB1EC4600F1200200F16003664664
S31508006A3010685168083203C69A42B446F7D101264F
S31508006A4095F8383000200021002B62D1CDE91201DB
S31508006A5010938DF850308DF8A0304FF00008294675
S31508006A601AA8CDF86080A1F036FD204698F0A1FB63
S31508006A709FED5F8B9DF99420189B01325FFA88FA87
S31508006A8011D083B91AA8A2F00EF8189058B9109028
S31508006A908DF850001AA910A88DED128B75F0A1F883
S31508006AA01890002843D0189B212B02D0002B40F0C9
S31508006AB08880C4F830A0FFB1204639F06DF8D8B107
S31508006AC0204698F0BEFB002198F0E7FB0368057C9A
S31508006AD04B4500F0878065B15EB1103098F0E8FB51
S31508006AE04268402A05D169460068B4F049FC00B9F5
S31508006AF015B1042384F84C31204698F0A2FB0146D0
S31508006B0004F5A47038F070FC034624E00646814676
S31508006B1096E7002310938DF85030012395F8392015
S31508006B20CDE912018DF8A0308DF8A12095E75146E0
S31508006B3004F1280098F0B1FB109A2F4902F5284372
S31508006B40C0338B4205460CD9204698F061FB0028D5
S31508006B5014BF0346B92318462BB0BDEC028BBDE81B
S31508006B60F08FDDE91231BAF1000F16D10B43EBD1E4
S31508006B702A60DDE91223C5E902239DF850303BB1AE
S31508006B8014A898F095FBD0F804B0BBF1000F07D114
S31508006B9000232B7408F101086CE70B43E8D1D3E70F
S31508006BA0BBF1400FD0D805F1200A402200215046FB
S31508006BB0B4F010FC14A898F07BFBD0E900129345BA
S31508006BC008D2204698F024FB40F28553002818BFC7
S31508006BD00346C0E75046B4F0A8FC0122C5E905AB58
S31508006BE02A74D7E7002D87D0002E85D0002574E7B4
S31508006BF00000000000000000A06D01000000000079
S31508006C002DE9F04F2DED028B083085B00F469146E1
S31508006C10DDF85080A3F0A5FB0446002800F0998013
S31508006C206E4600259FED4E8B4FF0010B41F2A45A9C
S31508006C3010AB0FCB86E80F004B4BC4E90255236017
S31508006C40C4E90455C4E9065524336360474B04F187
S31508006C50480C0FCB84ED0E8BC4E90C5584F82050F4
S31508006C6084F840508CE80F00414B84F858B0A4F8DB
S31508006C705AA0E565C4E91955236604F17403C4E905
S31508006C801D3304F18003C4E920333A4B1022C4F8BB
S31508006C9090302946C4E9255584F86C50E567C4F850
S31508006CA08850C4F89C5004F1A000B4F093FB84F813
S31508006CB0B0B0A4F8B2A0C4F8B45004F1B800A4F077
S31508006CC0ABF84AF6C873C82284ED348B84ED368B4C
S31508006CD0C4E9382304F1F803C4E93E3384F8C45000
S31508006CE0A4F8C850C4F8F05084F8F450C4F8005119
S31508006CF03B68A3607B68E360BB682361FB686361EC
S31508006D003B69A3617B69E3613B7E84F8203033B13C
S31508006D1004F1240307F11C0207CA83E80700384672
S31508006D208EF0C4FFA8B9B9F1000F12D0B8F1000F60
S31508006D300FD003CE3378C4F8309084F8403001235E
S31508006D4084F8F030231DA063E163C4F88C80C4F88E
S31508006D509C30204605B0BDEC028BBDE8F08F00BF25
S31508006D600000000000000000D0570C08A8B401205D
S31508006D70CC480D08C0570C082DE9F04F2DED028BB5
S31508006D809946002300240025CDB08DF8C8304993D4
S31508006D90ADF82831A64BCDE92E45CDE93045CDE9EC
S31508006DA034450C934FF6FF740123DFF89CA2064680
S31508006DB088461746CDF8D8A0ADF820410D93A2B362
S31508006DC0054600F53474A54206D10B2420464DB07D
S31508006DD0BDEC028BBDE8F08F284690F068F908B143
S31508006DE09035F0E79FED908BBDF864318DF8C8803B
S31508006DF0ADF820318F4B4FF4C8710E93002309A8C4
S31508006E00CDE909330F93CDF870A00B9396F059FD91
S31508006E10099C14BB0B240BA88EF045FD0AA88EF01E
S31508006E2042FD09A88EF03FFDD0E79CF007FF044617
S31508006E3008B9AC24CAE706F5347528468DF097FCE0
S31508006E40B4F882308DF8C880ADF8203121460CA8F8
S31508006E5094ED028B9CF074FECCE74FF4C8710AA837
S31508006E6096F02FFDDDF828A0BAF1000FD2D04FF426
S31508006E70C8710BA896F025FD0B9A002ACAD04FF4C4
S31508006E80C8734146CDE91332304610AA1094CDE9AD
S31508006E90113A15939CF032FF04460028BBD14146AF
S31508006EA0304612AA9CF00CFF04460028B3D141468E
S31508006EB0304614AA9CF0E1FE04460028ABD110A97E
S31508006EC016A896F06AFC12A918A896F066FC14A9EA
S31508006ED01AA896F062FC36AB079330AB049334AB32
S31508006EE003930DF1B80A0EAB0DF1700B8DED008B07
S31508006EF0CDE905AB02931AAA18A916A841F0E6FA35
S31508006F000446002887D10BA88EF0CDFC0AA88EF07F
S31508006F10CAFC09A88EF0C7FCB9F1000F13D1D6F840
S31508006F20640300285FD003689B6898470346D6F831
S31508006F306403002B4FD003685A4641465B6998475D
S31508006F40044690B142E7D9F8003048465B6998474D
S31508006F50036859465B6A984708B9C52436E79DF819
S31508006F606031CDF824918DF828319DF86831514665
S31508006F70B3FA83F328465B098DF829319DF009F9A0
S31508006F80044600287FF422AF28460CA99CF007FE89
S31508006F9006F55D7495F881303FB302211120264A23
S31508006FA0A3F0EAFAD5E900122B69CDE9012100938D
S31508006FB06B6902211120214AA3F0DEFA20460F99B7
S31508006FC043F070FA034630BB96F88233013386F8ED
S31508006FD082330024FAE603684146DB6898470028AE
S31508006FE0C3D11024F2E60324F0E6D5E900121120F5
S31508006FF0CDE900210221124AA3F0BEFA20460F99D4
S3150800700043F050FA03460028E3D0012111200D4A27
S31508007010A3F0B2FADDE7012111200A4AA3F0ACFA7F
S31508007020D2E700BFAFF300800000000000000000B8
S31508007030C0E80B0864D10C088ED00C08AED00C083A
S31508007040F1D00C0826D10C0868150D0800000000C0
S315080070502DE9F0478AB00DF10D0301931523064675
S3150800706000934FF48072002308460C46A2F0B3F84A
S31508007070E8B996F892300122009320460023A2F040
S3150800708031F8A0B996F893300222009320460023DF
S31508007090A2F028F858B90DF10E030193162303221E
S315080070A0009320460023A2F096F8054610B10AB0D0
S315080070B0BDE8F0874FF0100906F1C8070DF118086A
S315080070C0102200214046B4F085F90DF10F03019313
S315080070D015234FF48072009320460023A2F07BF814
S315080070E00028E4D196F89320EBB29A4251D917EDCD
S315080070F00C7BC44637F828ACA7F12603A7F1160E71
S31508007100624618685968083303C273459446F7D12E
S315080071108DED007B042200232046A1F0BEFF002847
S31508007120C5D1052200232046CDF800A0A1F0DAFF3C
S315080071300028BCD14046494606228DE803000023B4
S315080071402046CDE90489A2F003F90028AFD12046EC
S315080071509DF90F10A2F06DF8013530370028A6D139
S31508007160032DADD120469DF90E10A2F062F8002835
S315080071709DD1B6F88A300722009320460023A1F055
S31508007180B1FF002893D120469DF90D10A2F051F8C1
S315080071908DE782469FED027BBAE700BFAFF300801A
S315080071A00000000000000000054B18680368996994
S315080071B001A3D3E90023084700E0373B015D03003C
S315080071C09C1500200000000010B52A21ADF5956D2C
S315080071D06D4849F051FD08B1B3F061FE029002A96D
S315080071E0694849F0F5FB0028F6D1029B2A2BF3D112
S315080071F063A3D3E90023654849F056FD0028EBD17F
S3150800720000220023614808A9CDE9082349F004FCB7
S315080072100028E1D1DDE9080240F6FA035C499A4202
S3150800722008BF8842D8D101215A4849F0F5FC002800
S31508007230D2D18DF807000DF10701564849F078FBC1
S315080072400028C9D19DF80730002BC5D04E4849F013
S31508007250BFFA0028C0D14C4803A949F0B9FB40F24F
S315080072600124A042B8D14C494C48A4F0F9F80028AA
S31508007270B2D14022494804AB0AA949F0F5FB0028D7
S31508007280AAD1049B0E2BA7D10F2243490AA8B4F012
S3150800729077F80028A0D142494048A4F0E1F8002830
S315080072A09AD104AB40223D480AA949F0DDFB049B6C
S315080072B0184391D19DF8281000298DD13748A4F09C
S315080072C0CFF8002888D14022344805AB1AA949F0DE
S315080072D0CBFBA04280D1F1223249334849F016FD52
S315080072E000287FF479AF4FF400722F4806AB2AA91D
S315080072F049F010FC00287FF46FAF069AF12A7FF454
S315080073006BAF28492AA8B4F03BF8024600287FF458
S3150800731063AF0146244849F0F9FC00287FF45CAFC6
S315080073204FF40072204807ABAAA949F0F3FBA04224
S315080073307FF452AF154849F057FA00283FF44CAF8E
S31508007340144849F051FA00283FF446AF164849F068
S315080073504BFA00287FF440AF49F0C6FA00287FF4BC
S315080073603BAF0A4849F040FA00283FF435AF0948D0
S3150800737049F03AFA00287FF42FAF0DF5956D10BD48
S31508007380316EE595FA0800000573080001720800D9
S31508007390316EE59506730800100E0D080273080095
S315080073A00F0E0D081E0D0D080272080000000000E1
S315080073B0002370B5404C05468AB0E36318B10088CF
S315080073C023605BF039FC3D48B1F0D4FB3C4E3D4BA5
S315080073D0304633603C4B736057F00AF8002130465C
S315080073E066F028FC32A3D3E90023A062C4E9062389
S315080073F0ACF05AFFD4E9062319431043C4E9060141
S31508007400CDE900014FF0FF334FF0FF32A06AB1F02B
S315080074107DFC02224FF0FF31A06AB1F091FC0120F9
S315080074205BF08CF94FF4007300222849A06AB1F08A
S31508007430BEFDB0F5007F38D100239422CDE907338D
S3150800744009933C23CDE9033205939623A06A03A941
S31508007450069367F005F835B3287C5BF06BFD0546A7
S31508007460F0B9A06AB1F075FF5BF012FD5BF048F960
S3150800747020B14FF48070002159F014F95BF050F9EF
S3150800748020B14FF40060002159F00CF9ACF0CFFFA1
S315080074900120B1F006F90E4A0E49A06AACF0F8FED2
S315080074A028460AB070BDFF20D7E70725F8E700BFD2
S315080074B00DD5015520000000D0340120690345ECA4
S315080074C0D8050220C1250608E8050220D8030220AF
S315080074D039420B0879420B080348044B834202D011
S315080074E0034B03B118477047FC280020FC280020EE
S315080074F000000000064B0749C91A891048BF013128
S31508007500491003D0044B0BB101481847704700BF18
S31508007510FC280020FC2800200000000010B5064CBE
S31508007520237843B9FFF7D8FF044B13B10448AFF3E8
S3150800753000800123237010BDD21202200000000033
S3150800754030AC0D0808B5054B1BB105490548AFF326
S315080075500080BDE80840FFF7CDBF00BF000000006F
S31508007560483A012030AC0D08A3F5803A704700BFB1
S31508007570174B002B08BF134B9D46FFF7F5FF00215D
S315080075808B460F461348144A121AB3F023FF0E4BC4
S31508007590002B00D098470D4B002B00D098470020B1
S315080075A0002104000D000D48002802D00C48B3F055
S315080075B07DFC73F0B7F820002900AAF063F971F092
S315080075C053FF00BF00000800000000000000000094
S315080075D000120020FC280020D4030320ADAE0B08BF
S315080075E00000000010B5224C03F004FD236F23F0C1
S315080075F0070343F00203236776F0DEFED4F8203152
S31508007600002023F0070343F00103C4F82031D4F81F
S31508007610283123F0070343F00103C4F82831D4F8CE
S31508007620403123F0030343F00203C4F84031D4F891
S31508007630603123F0030343F00203C4F86031D4F841
S31508007640403223F0030343F00203C4F84032D4F86F
S31508007650003223F0070343F00203C4F80032D4F8DB
S31508007660083223F0070343F00203C4F8083210BDBA
S315080076700080005008B5044876F0B1FCBDE8084023
S31508007680024876F0ACBC00BFB8B90B08A0B90B0825
S3150800769008B5044876F0D1FCBDE80840024876F003
S315080076A0CCBC00BFE8B90B08D0B90B0818B1034B1E
S315080076B01860002070472520704700BF603A0120F7
S315080076C010B5054C0549206802F0B4FB2068BDE8F2
S315080076D01040FFF7EBBF00BF401300201412002034
S315080076E070B58B680646012B0D4614468CB025D01E
S315080076F0022B33D0002B3ED119461C2205A8B3F025
S3150800770069FE214605A874F035F8044638B92946B5
S31508007710304605AA30F0C2FE00283ED10446294666
S315080077203046002385228EF035FD234602211D2092
S315080077301B4A0CB0BDE87040A2F01EBF00231146DC
S3150800774005A8ADF8143074F04EF804460028E6D1C2
S315080077502946304605AA30F02DFFDDE7114605A873
S3150800776074F043F804460028D9D12946304605AABC
S3150800777030F088FFD0E7002381228EF00BFDD5E993
S31508007780012391B2120C01929AB202910092012140
S315080077901D20044A1B0CA2F0EFFE0CB070BD00BF02
S315080077A034BA0B0800BA0B0870B58B6806460C4647
S315080077B088B0F3B9114604A8ADF810308DF8143026
S315080077C074F0CEF9054628B92146304604AA94F045
S315080077D022FA00BB21463046002385228EF0DAFCC9
S315080077E02B4602211D200D4A08B0BDE87040A2F0C4
S315080077F0C3BE002381228EF0CDFCD4E9012391B2C9
S31508007800120C01929AB20291009201211D20044A9B
S315080078101B0CA2F0B1FE08B070BD00BF34BA0B084D
S3150800782000BA0B0870B58B6806460C4686B0D3B905
S31508007830114605A873F0CCFE054628B92146304600
S3150800784005AA94F029FA00BB214630460023852272
S315080078508EF0A0FC2B4602211D200D4A06B0BDE87D
S315080078607040A2F089BE002381228EF093FCD4E9F1
S31508007870012391B2120C01929AB20291009201214F
S315080078801D20044A1B0CA2F077FE06B070BD00BF8F
S3150800789034BA0B0800BA0B0870B58B680646022B7B
S315080078A00D4614468AB026D0042B36D0002B41D17B
S315080078B00022ADF810300023214604A8CDE906239E
S315080078C073F09DFD044638B92946304604AA31F0BE
S315080078D0EBFF002840D1044629463046002385227E
S315080078E08EF058FC234602211D201C4A0AB0BDE82A
S315080078F07040A2F041BE1822002104A8B3F06AFD28
S31508007900214604A874F007FF04460028E4D1294656
S31508007910304604AA32F0D4F8DBE7114604A873F01F
S3150800792097FD04460028D7D12946304604AA32F0E6
S3150800793031F8CEE7002381228EF02CFCD5E901230D
S3150800794091B2120C01929AB20291009201211D2065
S31508007950034A1B0CA2F010FE0AB070BD34BA0B081D
S3150800796000BA0B0870B58B6806460C4688B003BB90
S3150800797000200021CDE90601114604A8CDE904330B
S3150800798073F069FD054628B92146304604AA32F047
S3150800799049FB00BB21463046002385228EF0FAFBC0
S315080079A02B4602211D200D4A08B0BDE87040A2F002
S315080079B0E3BD002381228EF0EDFBD4E9012391B2C9
S315080079C0120C01929AB20291009201211D20044ADA
S315080079D01B0CA2F0D1FD08B070BD00BF34BA0B086D
S315080079E000BA0B0870B50D46AB68064611469CB042
S315080079F0042B5BD8DFE803F003305A3F4E00002320
S31508007A0004A8ADF810308DF812308DF814308DF8C2
S31508007A1020308DF830308DF840308DF850308DF8A4
S31508007A20603075F00BFC044638B92946304604AA7E
S31508007A3032F00CFC00284CD1044629463046002377
S31508007A4085228EF0A7FB234602211D20224A1CB060
S31508007A50BDE87040A2F090BD002304A8ADF8103030
S31508007A6073F065FF04460028E7D12946304604AA84
S31508007A7032F004FDDEE7002304A8ADF8103073F0F9
S31508007A8058FF04460028D8D12946304604AA32F0C1
S31508007A90C7FCCFE704A873F04EFF04460028CCD1F4
S31508007AA02946304604AA32F043FDC3E70023812263
S31508007AB029468EF06FFBD5E9012391B2120C01928B
S31508007AC09AB20291009201211D20044A1B0CA2F0D1
S31508007AD053FD1CB070BD00BF34BA0B0800BA0B08C2
S31508007AE070B58B6806460D46144694B0052B79D8B2
S31508007AF0DFE803F00325354959660023214604A823
S31508007B00CDE90533ADF8103073F07AFA044638B982
S31508007B102946304604AA94F04EFD002874D104463E
S31508007B2029463046002385228EF034FB234602215F
S31508007B301D20364A14B0BDE87040A2F01DBD0023D2
S31508007B40214604A8ADF8103073F05CFA0446002804
S31508007B50E6D12946304604AA94F069FDDDE70022FD
S31508007B6004A811468DF84820A0F0E3FC214604A895
S31508007B7075F091FA04460028D2D12946304604AA5F
S31508007B8033F0D4F8C9E70023214604A8ADF810302D
S31508007B9073F03AFA04460028C2D12946304604AAA8
S31508007BA033F042F8B9E7214604A873F02FFA0446E1
S31508007BB00028B5D12946304604AA33F091F8ACE737
S31508007BC00023214604A8CDE90533ADF8103073F03B
S31508007BD031FA04460028A3D12946304604AA94F06F
S31508007BE093FD9AE7002381228EF0D4FAD5E9012382
S31508007BF091B2120C01929AB20291009201211D20B3
S31508007C00034A1B0CA2F0B8FC14B070BD34BA0B08BA
S31508007C1000BA0B0870B58B6806460D4686B0ABB140
S31508007C20402B32D0002381228EF0B4FAD5E9012305
S31508007C3091B2120C01929AB20291009201211D2072
S31508007C401A4A1B0CA2F098FC06B070BD114605A88E
S31508007C50ADF8143073F071F9044638B92946304640
S31508007C6005AA94F093FE0028EED10446294630462C
S31508007C70002385228EF08EFA234602211D200C4A07
S31508007C8006B0BDE87040A2F077BC0023114605A8EF
S31508007C90ADF8143073F073F904460028E6D1294686
S31508007CA0304605AA33F088FADDE700BF00BA0B08AC
S31508007CB034BA0B0870B58B6806460C468CB033BBD5
S31508007CC000200021CDE90401114604A8ADF81830BA
S31508007CD08DF81A308DF81C30ADF8283074F021FB79
S31508007CE0054628B92146304604AA37F001F900BBF3
S31508007CF021463046002385228EF04CFA2B46022177
S31508007D001D200D4A0CB0BDE87040A2F035BC00231A
S31508007D1081228EF03FFAD4E9012391B2120C019226
S31508007D209AB20291009201211D20044A1B0CA2F06E
S31508007D3023FC0CB070BD00BF34BA0B0800BA0B08A0
S31508007D402DE970430D46AB680646114690B00B2BDD
S31508007D5000F2A280DFE803F006A026A035A046615F
S31508007D60A0728190002304A8CDE9043373F040FD86
S31508007D70044640B92946304604AA34F05FFD002877
S31508007D8040F09D80044629463046002385228EF021
S31508007D9001FA234602211D204A4A10B0BDE8704365
S31508007DA0A2F0EABB002304A88DF8103073F042FD58
S31508007DB004460028E7D12946304604AA34F0DCFCFC
S31508007DC0DDE7002304A8CDE904338DF8183074F0F4
S31508007DD022FA04460028D6D12946304604AA34F0A9
S31508007DE00BFECCE700234FF000084FF0000904A86B
S31508007DF0CDE90433CDE90933CDE90C898DF818307E
S31508007E00ADF8383074F0D6FA04460028BBD12946B6
S31508007E10304604AA34F01CFAB1E7002304A8CDE9D9
S31508007E2004338DF8183074F002FB04460028AAD1F2
S31508007E302946304604AA34F0FBF8A0E7002304A834
S31508007E40CDE9043373F020FD044600289BD129466A
S31508007E50304604AA34F06AF891E7002304A88DF89E
S31508007E60103073F033FD044600288CD1294630467D
S31508007E7004AA33F0E7FF82E7002304A8CDE9043318
S31508007E8073F026FD044600287FF47DAF2946304668
S31508007E9004AA34F079F972E70023812229468EF084
S31508007EA079F9D5E9012391B2120C01929AB202919D
S31508007EB0009201211D20044A1B0CA2F05DFB10B0A4
S31508007EC0BDE8708334BA0B0800BA0B0870B58B6826
S31508007ED006460C4686B0D3B9114605A873F006FBCC
S31508007EE0054628B92146304605AA96F038FF00BB54
S31508007EF021463046002385228EF04CF92B46022176
S31508007F001D200D4A06B0BDE87040A2F035BB00231F
S31508007F1081228EF03FF9D4E9012391B2120C019225
S31508007F209AB20291009201211D20044A1B0CA2F06C
S31508007F3023FB06B070BD00BF34BA0B0800BA0B08A5
S31508007F4070B58B6806460C4686B0D3B9114605A8A7
S31508007F5073F0CFFA054628B92146304605AA37F008
S31508007F600FF900BB21463046002385228EF012F910
S31508007F702B4602211D200D4A06B0BDE87040A2F02E
S31508007F80FBBA002381228EF005F9D4E9012391B2C8
S31508007F90120C01929AB20291009201211D20044A04
S31508007FA01B0CA2F0E9FA06B070BD00BF34BA0B0884
S31508007FB000BA0B0870B58B6806460D46144694B091
S31508007FC0052B70D8DFE803F00327376F4B5F0022D5
S31508007FD00023CDE904230023214604A8ADF8183070
S31508007FE075F014F8044638B92946304604AA37F01D
S31508007FF061FD002869D104462946304600238522BA
S315080080008EF0C8F8234602211D20314A14B0BDE877
S315080080107040A2F0B1BA0023214604A88DF81030AA
S3150800802073F033FB04460028E6D12946304604AAF5
S3150800803037F070FDDDE7002204A811468DF84820C8
S31508008040A0F077FA214604A875F047F804460028F8
S31508008050D2D12946304604AA37F0F8FFC9E70022EC
S3150800806004A811468DF84820A0F063FA214604A812
S3150800807075F035F804460028BED12946304604AACC
S3150800808037F0AEFFB5E70023214604A88DF8103077
S3150800809074F054FF04460028AED12946304604AA97
S315080080A037F0EAFDA5E7002381228EF073F8D5E9BB
S315080080B0012391B2120C01929AB202910092012107
S315080080C01D20044A1B0CA2F057FA14B070BD00BF5D
S315080080D034BA0B0800BA0B0870B58B6806460C460E
S315080080E086B0D3B9114605A873F006FA054628B92D
S315080080F02146304605AA97F071FC00BB214630465A
S31508008100002385228EF046F82B4602211D200D4AB3
S3150800811006B0BDE87040A2F02FBA002381228EF087
S3150800812039F8D4E9012391B2120C01929AB202915C
S31508008130009201211D20044A1B0CA2F01DFA06B06C
S3150800814070BD00BF34BA0B0800BA0B0837B54368D0
S3150800815004463F2B154605D8292B14D8032B7DD06A
S31508008160042B73D09AB2009201211D20574A1B0C8A
S31508008170A2F002FA0023C3222146284603B0BDE82E
S3150800818030408EF007B8A3F12A02152AEAD801A0D2
S3150800819050F822F06D8200086581000865810008A4
S315080081A06581000865810008658100081D82000850
S315080081B065810008FD8100082D8200088D8200086F
S315080081C09D820008BD8200080D820008AD82000865
S315080081D0658100086581000865810008ED81000851
S315080081E0658100087D8200083D8200080A46284607
S315080081F0214603B0BDE83040FFF772BA0A46284662
S31508008200214603B0BDE83040FFF7CEBA0A462846F5
S31508008210214603B0BDE83040FFF704BB0A462846AE
S31508008220214603B0BDE83040FFF736BB0A4628466C
S31508008230214603B0BDE83040FFF794BB0A462846FE
S31508008240214603B0BDE83040FFF7CCBB0A460146DD
S31508008250284603B0BDE83040FFF742BC0A4601464F
S31508008260284603B0BDE83040FFF7D4BC0A46284686
S31508008270214603B0BDE83040FFF71CBD0A46284634
S31508008280214603B0BDE83040FFF75ABD0A462846E6
S31508008290214603B0BDE83040FFF718BE0A46284617
S315080082A0214603B0BDE83040FFF74ABE0A462846D5
S315080082B0214603B0BDE83040FFF77CBE0A46284693
S315080082C0214603B0BDE83040FFF706BF5DBA0B088C
S315080082D040F20E53984227D007D83C280AD040F2DD
S315080082E0011398420BD000207047124B9842FAD1DE
S315080082F0122915E002298CBF002001207047272982
S31508008300F1D8192903D8012909D80120704743F261
S315080083100913A1F11A00C34003F0010070470329AD
S3150800832014BF0020012070470029EED0881E0128BE
S31508008330E1E700BF05FCF1FF012208B5074B1A70FB
S315080083400022074B1A700422064B1A701F22064B8E
S315080083501A7007F071FD054B186008BD92190020C8
S31508008360D31202209119002090190020C43A012046
S315080083702DE9F043044689B0214E01AD88461746DB
S315080083800FCE0FC596E8070085E807001D4E0121A8
S315080083903A20D4F80090D6F8205702F099F9606888
S315080083A0012102F095F9617B207B0023042203F06A
S315080083B095FB0422617A207A002303F08FFB0123C0
S315080083C0484601A98DF81230CDF80C80ADF8147026
S315080083D003F0A2FD0020627A237A05F0040543EA39
S315080083E00243C6F83837627B237B45F0180543EA13
S315080083F00243C6F83437C6F8205709B0BDE8F083FB
S315080084007CBA0B0800C003504022024BC3F8A020D8
S31508008410704700BF00F0035013B5044608F0BCFCD3
S3150800842000230122217BCDE900324900B0FBF1F19E
S31508008430024A034877F064FF02B010BD09840008B9
S31508008440DC3A0120F7B54FF48076104C054604F562
S315080084508053C3F8A060407B08F0D6FE04230C4F77
S3150800846002220DF106013846ADF8063075F082FC99
S31508008470384675F090FCA87B08F0C6FE002004F587
S315080084800054C4F8A06003B0F0BD00BF00C003509C
S315080084904413002070B50646354601213A2002F0FD
S315080084A017F9B16800220F48FFF762FF0E4C002348
S315080084B004220821022003F011FB002304220621CE
S315080084C0022003F00BFB0FCD0FC401222B683046A8
S315080084D02360064B1A70FFF79FFF3046FFF7B2FF7F
S315080084E0002070BD44130020C83A0120D41202208F
S315080084F02DE9F74F14464FF480720688984603799B
S3150800850001345E43254BA4B2C3F8A0200546407B40
S315080085100F4608F079FE230243F0010302222048A1
S315080085200DF10601ADF806304FF0000B75F022FC90
S3150800853001342402DFF86890F610A4B208F1FF3A75
S31508008540C34511D1164875F026FCA87B08F05CFED9
S315080085504FF48072134B1248C3F8A02075F020FC24
S31508008560002003B0BDE8F08F39463246484675F01C
S3150800857001FCDA450CBF4FF6FF7344F0FF030222F5
S3150800858048460DF1060104F58074ADF80630374407
S3150800859075F0F0FB0BF1010BA4B2D1E700D0035044
S315080085A04413002000E00350034B04481B78002BBB
S315080085B008BF0020704700BFD4120220C83A012025
S315080085C030B5064D87B001AC0FCD0FC42B6801A896
S315080085D02360FFF75FFF07B030BD00BF98BA0B08EE
S315080085E02DE9F043434D89B001AC0FCD0FC495E892
S315080085F00700012584E8070001213A2002F068F8FF
S315080086003D4F0121292002F063F83C4B384601A969
S3150800861003938DF8125003F07FFC2B46294604225B
S31508008620022003F05BFA02212A460846002303F0DB
S3150800863055FA2B4604220321022003F04FFA04229E
S315080086402B461146022003F049FA2D4C2D4B1026D5
S31508008650C4F834374FF00213C4F83037A3F5803323
S31508008660C4F838371C2304F50059C4F820374FF4EA
S31508008670487008F0C9FD04F580581420C9F8A060B0
S3150800868008F0C2FD2320C8F8A06008F0BDFDB92196
S315080086903846C9F8A06075F09FFF002329461A4698
S315080086A00220C8F8A06003F019FA002302211A462E
S315080086B0084603F013FA2B4600220321022003F092
S315080086C00DFA2B4600220421022003F007FA384649
S315080086D003F000FC00212920C4F83417C4F8301729
S315080086E0C4F83817C4F8201701F0F2FF09B0BDE83E
S315080086F0F08300BFACBA0B0800C0055000127A0020
S3150800870000C00350020003000348044A0449121A31
S31508008710921075F050BB00BF40C30D0840C30D084A
S31508008720D403032008B500F02FF8FFF7EDFF124B2E
S3150800873012498B4212D30020114B12498B4218D38F
S31508008740FEF716FF186850F82240586840F822408D
S31508008750013298688242F5D30C33EAE70022F8E73B
S315080087601C6844F8220001325C68A242F8D3083338
S31508008770E4E70022F8E700BF38AC0D0844AC0D0862
S3150800878044AC0D0844AC0D084FF480414FF0FF305F
S3150800879010B5114B114A9A60D3F8882042F470023A
S315080087A0C3F888200E4A91660E4901F500521066F4
S315080087B00D4850660220C3F8D000BFF34F8FBFF3B1
S315080087C06F8F01244FF440330848C0F88041D360C6
S315080087D004600B6110BD00BF00ED00E000600008FA
S315080087E00090005000800044F7FF370000E100E0E9
S315080087F0014B1868704700BF58130020014B1860DA
S31508008800704700BF58130020084B1B6F03F007037F
S31508008810022B04D0032B05D0012B05D0FEE7044B11
S3150800882018687047034BFBE7034870470080005001
S315080088305813002060130020002D310108B5FFF7FA
S31508008840E3FF054B1B6FC3F303330133B0FBF3F0B0
S31508008850024B186008BD00BF00800050541300206A
S315080088600048704700B4C404014B1868704700BF3D
S3150800887060130020054B1860054B1B6F03F00703B8
S31508008880032B01D1FFF7DABF704700BF6013002042
S315080088900080005000487047002D31014FF0B44366
S315080088A09868C0F304400C280AD8DFE800F00B09E2
S315080088B009090909072119091B1D1F000F487047D7
S315080088C0002070479B6803F04073B3F1807F11D096
S315080088D0B3F1007F10D00A4A002B08BF1046704734
S315080088E0084870470848704708487047084870475E
S315080088F0084870470848704708487047405DC600F2
S3150800890000093D00C0EA210180BA8C010048E8014F
S31508008910005A62020024F40080841E0040420F00C0
S31508008920014B1868704700BF5C130020BFF34F8FD8
S315080089300549064BCA6802F4E0621343CB60BFF3ED
S315080089404F8F00BFFDE700BF00ED00E00400FA0509
S315080089504FF000639A6A02F17841B1F5C04F03D22D
S315080089601168074A914203D0002303708360704759
S31508008970012202709A6A926842609B6A9B69F5E7CF
S3150800898007B0CD5E08B54FF00053024A1A60FFF7EC
S31508008990CDFF00BF02020FF073B54F4B04461A789D
S315080089A01AB102221A7002B070BDCDE90022002861
S315080089B0F9D001261E7075F01BFD484D484B18600E
S315080089C06BF0E0F82B785BB900F006FE40B9454835
S315080089D00823454A4549006864F0FCFB00B92E7037
S315080089E0434B5A6E62619B6E424AA3614FF48043C1
S315080089F09366414B5968E16140499960196E216057
S31508008A00596E6160D3F87011A160196CE160596CF8
S31508008A1021613B49086C1864496C59640121516607
S31508008A201B6E9C0441D5374AD368D807FCD4364B0D
S31508008A301A68531C3ED04FF480139340334A13668A
S31508008A404FF400730426314C2666236675F021FA26
S31508008A5001300DD075F01DFA40F20113984207D087
S31508008A604FF4005323664FF480432366C4F87061BD
S31508008A700823264C684623664FF4805323664FF036
S31508008A80006323664FF4002301A9636675F0A6F90F
S31508008A90009B2366019B63662B78002B83D0124BC1
S31508008AA01A6822665B6863667DE7194AD368D90740
S31508008AB0FCD4BCE7174B1B78002BC1D14FF40072CE
S31508008AC00C4B5A6603F5A6235B68002BB8D14FF406
S31508008AD080120E4B1A66B3E7D6120220D71202206E
S31508008AE01C3B012088130020203B01200071080050
S31508008AF000800050009000500080004455CEAC0025
S31508008B0000C0005400000440641300200090004494
S31508008B1000000450D512022070B5224D04462E7866
S31508008B20012E02D001232B7070BD0028FCD075F0F1
S31508008B30B0F901300BD075F0ACF940F20113984248
S31508008B4005D0194B194A5E66D368DE07FCD422683D
S31508008B50174B1A6662685A66A268C3F87021E268FB
S31508008B601A6422695A64E269D00744BF00229A60EF
S31508008B70104B1A68013207D10F4A127822B90F49E9
S31508008B804968C90748BF1A6062690D4B5A66A269E7
S31508008B909A666AF0FFFF0B4B186875F02FFC0023E6
S31508008BA0C1E700BFD6120220009000400000044032
S31508008BB00080004464130020D512022000C005502E
S31508008BC0008000501C3B012070B54FF00064A36A7A
S31508008BD003F17842B2F5C04F24D21A68134B9A4271
S31508008BE020D1134E337813F0FD0F02D0002420460F
S31508008BF070BD1048FFF7D0FE01254FF480330E4AAA
S31508008C000E49C2F88051CB6015600D4A1361A36AFC
S31508008C10DB69984704460748FFF77EFF002CE6D134
S31508008C203570E3E74FF48174E1E700BF07B0CD5E26
S31508008C30D5120220FC3A012000E100E000A0004421
S31508008C400090004413B5204B1B7803B9FEE70023B8
S31508008C501E4CCDE900336A4608231D49206864F096
S31508008C60B9FAF0B91B4AD2F84031D2F840211F2B85
S31508008C704FF0010310D9203A9340019A1A43019202
S31508008C8008236A461249206864F05AFA4FF00053DE
S31508008C90114A1A60FFF74AFE9340009A1A43009257
S31508008CA0EEE70E4B9842F1D10A4AD2F84031D2F893
S31508008CB040211F2B4FF0010385BF203A9340934074
S31508008CC0019398BF0093DBE7D61202208813002091
S31508008CD000710800008000440B020FF00BE000F062
S31508008CE038B54FF00065AB6A044603F17842B2F531
S31508008CF0C04F12D21B6B03F17843B3F5C04F0CD2A9
S31508008D000648FFF749FEAB6A20461B6B5B68984727
S31508008D10BDE838400148FFF7FFBE38BD283B0120B3
S31508008D2013B54FF000640190A36A03F17842B2F5D7
S31508008D30C04F15D21B6B03F17843B3F5C04F0FD262
S31508008D400948FFF729FEA36A01211B6B01A89B6945
S31508008D50984704460448FFF7DFFE204602B010BDD8
S31508008D604FF48174F9E700BF283B0120F8B54FF0AE
S31508008D700067BB6A164603F17842B2F5C04F04464F
S31508008D800D4611D21B6B7BB10948FFF705FEBB6A7E
S31508008D9020461B6B324629465B6A984704460448B8
S31508008DA0FFF7BAFE2046F8BD4FF40174FAE700BF94
S31508008DB0283B012070B54FF00066B36A044603F1FC
S31508008DC07842B2F5C04F0D4614D21B6B03F17843B7
S31508008DD0B3F5C04F0ED20948FFF7DEFDB36A204649
S31508008DE01B6B29469B6A984704460448FFF794FE7E
S31508008DF0204670BD4FF40174FAE700BF283B0120F6
S31508008E00F8B54FF00067BB6A164603F17842B2F52B
S31508008E10C04F04460D4615D21B6B03F17843B3F5D4
S31508008E20C04F0FD20948FFF7B7FDBB6A20461B6B38
S31508008E30324629469B6B984704460448FFF76CFE62
S31508008E402046F8BD40F20114FAE700BF283B01208E
S31508008E5070B54FF00066B36A044603F17842B2F57E
S31508008E60C04F0D4614D21B6B03F17843B3F5C04FC0
S31508008E700ED20948FFF790FDB36A20461B6B2946B8
S31508008E80DB6B984704460448FFF746FE204670BD4C
S31508008E9040F20114FAE700BF283B012010B40A6823
S31508008EA008461378022B10D014213023147913FBAB
S31508008EB0041307495B585179CB40DB4303F00103A0
S31508008EC013705DF8044B4CF01BB95DF8044B704702
S31508008ED030C00350F7B50468012105463A2001F071
S31508008EE0F7FB002301226179207902F0F7FD1422AD
S31508008EF03023217913FB01231D4A99586379D940F8
S31508008F00C943A37901F00101022B217017D100F0A2
S31508008F10A7FA184A2B466179207900F0CBFAFF2880
S31508008F20024660790ED12A46124900F0FFFA01235B
S31508008F30024661792079CDE9003302F075FD0020FB
S31508008F4003B0F0BD0126277900230146009638466E
S31508008F5002F02CFE2A460749607900F0E7FA00235A
S31508008F60617902462079009301963346E5E700BF0A
S31508008F7030C003509D8E000802681378022B24D057
S31508008F8014213023107913FB001310495B585179CB
S31508008F90CB40917903F00103012912D1508843EAA5
S31508008FA040034FF6E07063F03F039BB2834202D161
S31508008FB01170538070474FF6DF718B42F9D100214B
S31508008FC0F6E711B983F001031370704730C00350F8
S31508008FD010B5012243780178847830209A40054BF1
S31508008FE000FB01331CB903F501531A6010BD03F5E4
S31508008FF08253FAE700C0035010B50122437801787E
S31508009000847830209A40054B00FB01331CB903F5E0
S3150800901082531A6010BD03F50153FAE700C00350E6
S315080090200122437801789A4030235943014B5A501C
S31508009030704700BF40F003501021302302460078E5
S3150800904013FB001305495B585178CB4003F0010028
S3150800905093780BB980F00100704700BF30C0035009
S315080090602DE9F04F9A46564B85B01B7806460F46B3
S315080090701546DDF83C909DF844B0DDF85080002B8D
S3150800908000F09780072A00F296800E9B002B00F0CE
S315080090909280B9F1000F00F08E80129BB3F5006F35
S315080090A000F38980012803D1109B002B00F08380F0
S315080090B0444B03EB05131B7B002B7ED0424C10223E
S315080090C000216846B2F086F904EB45141022A7BBC6
S315080090D039462046B2F07EF943F210036380BBF1AD
S315080090E0000F03D1E37843F00303E370364A0E9B7F
S315080090F002EB451CCCE90193129BCDF800A0581E43
S315080091009DF84C30690103F00303C0F30A009B067F
S3150800911043EA001E53582D48012E00EA03004EEA82
S315080091200003535017D0B8F1000F2ED19CF8023027
S3150800913068F304138CF8023027E000212046B2F0C9
S3150800914049F94FF444736380BBF1000FCED1E3783D
S3150800915043F03003C9E713230CF1100ECCF80C309A
S315080091609CE80F008EE80F006FF00301DCF81C2066
S31508009170109B61F39F02012FCCF81C20CCF8143009
S3150800918003D1CCF81890CCF8043000270D4A2901F1
S3150800919002EB051342F80180159A28465A6069467B
S315080091A022469F605E7302F05FFD384605B0BDE853
S315080091B0F08F0748FAE70748F8E70748F6E700BFD9
S315080091C0D8120220483C0120483B01200F80FFF3BB
S315080091D0028000F0018000F0078000F038B5124BDD
S315080091E005461B78DBB1E0B175F002F90F4A00239A
S315080091F01146147B54B92B6001251A0101EB0313A0
S315080092001D738C5075F0FAF8204638BD0133082BCB
S3150800921002F11002EDD175F0F1F80548F5E70548B9
S31508009220F3E70548F1E700BFD8120220483C0120C1
S31508009230048000F0028000F0018000F0154B13B5A1
S315080092401868002301908DF8043075F0D1F8124B98
S315080092501C7824B175F0D2F8104802B010BD01226E
S315080092601A7075F0CBF80E4B01A81C731C7783F89F
S315080092702C4083F83C4083F84C4083F85C4083F8E4
S315080092806C4083F87C4008238DF8073002F0BAFC5E
S315080092902046E2E718BB0B08D8120220038000F02C
S315080092A0483C012008B50A4A12785AB107280BD853
S315080092B0084A02EB00131B7B43B1002102F094FC21
S315080092C0002008BD0448FCE70448FAE70448F8E724
S315080092D0D8120220483C0120028000F0018000F0EC
S315080092E0078000F008B50A4A12785AB107280BD841
S315080092F0084A02EB00131B7B43B1012102F074FC00
S31508009300002008BD0448FCE70448FAE70448F8E7E3
S31508009310D8120220483C0120028000F0018000F0AB
S31508009320078000F00C4B1B787BB107280FD871B16A
S315080093300A4B03EB00131B7B5BB1094BDB6AC3408B
S3150800934003F0010300200B70704706487047064873
S3150800935070470648704700BFD8120220483C0120D3
S3150800936000000450028000F0018000F0078000F041
S3150800937010B50B4A0C46127862B107280CD859B1B9
S31508009380084A02EB00131B7B43B102F0B5FC2060D0
S31508009390002010BD0448FCE70448FAE70448F8E74B
S315080093A0D8120220483C0120028000F0018000F01B
S315080093B0078000F02DE9F041174B1F6D5B6D1F40CC
S315080093C000D5FEE701260025144CDFF85880374201
S315080093D018D0C8F850602368A3B1A168284601319F
S315080093E06268A1609847637B012B0BD150B90C4B7F
S315080093F003EB45131A7B60F341021A731A7F60F375
S3150800940041021A770135082D4FEA460604F1100481
S31508009410DDD1BDE8F08100BF00000450483C0120C2
S31508009420483B01200020045070B5044601250B4E28
S3150800943004B970BD94FAA4F0B0FA80F005FA00F306
S3150800944006EB001224EA03045368002BF0D0117BC4
S3150800945011B191689847EBE79847E9E7C83C0120BE
S3150800946008B5192001F0EAFE28B14FF00072074B43
S31508009470C3F880211A601A2001F0E0FE28B14FF0E7
S315080094808062024BC3F880211A6008BD00E100E043
S3150800949038B505460C4674F0ABFF0022044B03EBC7
S315080094A005135C601A73BDE8384074F0A7BF00BFA7
S315080094B0C83C0120F8B504460D4617461E4674F00A
S315080094C097FF1CB9052D1AD0FF2421E0012C05D1E0
S315080094D0012D21D0032DF7D1042410E0022C07D149
S315080094E0052D1BD0072D1BD0002DEDD1062406E037
S315080094F0032CE9D1022D15D0052DE5D10A240A49F8
S3150800950004F1100301EB03110123C1E901760B7382
S3150800951074F074FF2046F8BD0324F0E70724EEE74D
S315080095200824ECE70924EAE7C83C0120F8B5054613
S315080095300E46174674F05CFF134B2C46D3F82424CA
S3150800954005F0FC0122FA05F3DB0712D500230133E7
S31508009550DBB2042B04D1FF2474F050FF2046F8BD7B
S31508009560EC1804F003040C4422FA04FC1CF0010F66
S31508009570EDD1FF2CF0D00122044B03EB0413C3E911
S3150800958001671A73E8E700BF00C00350C83C012012
S31508009590074BD3F82404D3F8202403F500531040CE
S315080095A000F0553020F05020C3F82004FFF73CBFE8
S315080095B000C00350074BD3F82404D3F8202403F53E
S315080095C00053104000F0AA3020F0A020C3F8200471
S315080095D0FFF72ABF00C00350024B1968024B1868F0
S315080095E063F0D4BC681300208813002070B594007B
S315080095F0224605460E46B2F07FF8431C0AD058B9F3
S31508009600224631462846B1F0BBFE0028034808BF6B
S31508009610002070BD0248FCE70248FAE710E000F0B7
S3150800962021E000F024E000F010B50446B2F068F836
S31508009630431C10D088B902F015FC234620F003001D
S315080096402044984201D1002010BD53F8042B013262
S31508009650F7D00348F8E70348F6E70348F4E700BFFE
S315080096600EE000F021E000F024E000F038B141B14E
S31508009670013AB2F5006F044838BF00207047034826
S3150800968070470148704700BF037000F0027000F091
S3150800969030B51049104B0A782AB9C3E90022C3E944
S315080096A0022201220A700C4900220C4654F8045B77
S315080096B0854208D00132042AF8D1002251F8044B19
S315080096C01CB943F82200002030BD0132042AF5D126
S315080096D00248F9E7D9120220B8450120027000F0C5
S315080096E038B504460D4674F083FEA3889BB223B9A9
S315080096F02B6074F083FE064838BD142263889BB23B
S3150800970002FB034408342C6074F078FE0020F3E76B
S315080097100B7000F010B50446FFF790FD002104F128
S315080097200800FFF75BFD014608B1044810BD04F1C7
S315080097300C00FFF753FD0028F8D0F6E70E7000F08E
S31508009740F8B5044616460F4674F052FEA388E2881A
S315080097509BB29A42054605D80023336074F04EFE44
S315080097601748F8BD1422238807F1100C9BB202FB98
S3150800977003433A460833174603CF674518605960CE
S315080097803A4603F10803F6D114223868186023888C
S3150800979028469BB202FB0343083333602388E288DA
S315080097A09BB20133B3FBF2F102FB11339BB2238068
S315080097B0A38801339BB2A38074F020FE0020D0E773
S315080097C00A7000F090F83530022B0DD114223023A0
S315080097D0417F13FB0123054A9B5890F8212023FA61
S315080097E002F000F0010070470020704730C00350B7
S315080097F0002313B51D4A52F8044B94F821108142F0
S315080098000ED00133042BF6D102B010BD0028FBD1CF
S315080098109DF80730002BF7D0A068FFF743FDF3E764
S3150800982094F83530022BEFD12046FFF7CBFF637E45
S315080098302076022BE8D194F8323003F0FF02002B91
S31508009840E2D1A0680DF107018DF80720FFF76AFD40
S31508009850237E1BB194F83330002BD7D00023A068A1
S3150800986084F83330FFF73EFDCEE700BFB845012048
S3150800987090F8363053B9042103790A4A03F23913AA
S315080098805B01D150022203685A617047022B07D147
S315080098900068816C11F0020118BF062174F0F1BD51
S315080098A0704700BF00C0035090F836306BB90122EC
S315080098B003685A6102689369D907FCD504210379BC
S315080098C0074AB9335B01D1507047022B07D10068AC
S315080098D0836C9B074CBF0521092174F0D2BD7047E4
S315080098E000C0035010B590F8363004466BB9042210
S315080098F003685A61026893699907FCD523790C4A6B
S31508009900B9335B011021995010BD022BFCD10068B8
S31508009910836CDB074CBF0521062174F0B2FD237961
S3150800992041F294425B0103F1A04303F57033E9E782
S3150800993000C0035013B591F836200B68022A0CBFF5
S315080099409B6C9B690C469B06084604D502B0BDE88D
S31508009950104074F081BC74F068FC00230146CDE920
S315080099600033044A234604F13C0076F0E5FC02B0D5
S3150800997010BD00BF35990008012370B580F8303056
S3150800998090F8363004460E4686B0A3B905682435E5
S31508009990204674F07BFC0D4B04940393002302933A
S315080099A0736801930123009332682B466169E06866
S315080099B074F07DFB07E0022B02D105683C35E7E72A
S315080099C0002380F8303006B070BD00BF299D00081E
S315080099D001232DE9F04180F8313090F836300446FD
S315080099E00E4688B05BBB05683C3574F001FD04F192
S315080099F03C0807460DF11F01404607F051F940B9EA
S31508009A009DF81F302BB1404607F018F9204674F030
S31508009A1023FC384674F0F2FC204674F037FC0D4BF4
S31508009A20049403930023029373682A46019301233F
S31508009A30009333682169A06874F01FFB07E0022BC6
S31508009A4002D105684435D0E7002380F8313008B0E4
S31508009A50BDE8F081599A00082DE9FF41D06A03A9AB
S31508009A601446FFF73DFE0646204674F0DEFB002549
S31508009A7001462346CDE90055184A04F13C0076F024
S31508009A805BFC174B9E4221D0039E3561B56074F08E
S31508009A90AFFCD6F80C800746B8F1000F04D0D6E91B
S31508009AA0002329462046C047E06A03A974F007FC4C
S31508009AB0E06A83889BB26BB103A9FFF711FE2046C3
S31508009AC00399FFF785FF384674F098FC012004B027
S31508009AD0BDE8F08184F83130F5E700BF3599000814
S31508009AE00B7000F02DE9F04104461746FFF7BEFD5E
S31508009AF088460646E8B9152001F0AEFB0546E26A37
S31508009B0093889BB213B194F83230ABB194F83630DF
S31508009B10BBB923689D6915F0020527D0012384F88F
S31508009B2034304744B845206844D183699B06FCD540
S31508009B3045B33046BDE8F081002DE1D0FFF73AFC89
S31508009B40DDE7022B12D123689D6C15F002050DD0B6
S31508009B50012384F8343047444745206831D142F21E
S31508009B602002836C32EA0303FBD1E1E72046FFF7C4
S31508009B70B9FE012394F8365084F83430002DD0D03D
S31508009B80022D1CD094F8363003B3022BD1D12068AD
S31508009B90816C11F0010118BF092174F072FC42F2C0
S31508009BA09442102123795B0103F1A04303F5703336
S31508009BB09950BEE718F8011B74F018FDB2E70025A6
S31508009BC0C9E718F8011B74F061FCC5E71021237971
S31508009BD0044A03F239135B01D150082223685A61FB
S31508009BE0A7E700BF00C0035010B5044680B190F83F
S31508009BF032302BB9FFF7E6FD10B9A068FFF752FB24
S31508009C00002094F832300133DBB284F8323010BDCC
S31508009C100048FCE7027000F010B50446A0B190F8C1
S31508009C2032309BB190F83230012B05D1FFF7CAFDCF
S31508009C3010B9A068FFF756FB002094F83230013BB4
S31508009C40DBB284F8323010BD0148FCE70148FAE778
S31508009C50027000F0057000F037B590F835500446EC
S31508009C60022D1DD1012290F82230457E817F9A402F
S31508009C703020164B3DB900FB013303F501531A603A
S31508009C80002003B030BD012D04D100FB013303F5DC
S31508009C908253F4E7247E00FB0133002CF7D1ECE76E
S31508009CA0012DEDD1037E73B911238DF80730FFF727
S31508009CB09BFF2A4620460DF10701FFF713FF2046B2
S31508009CC0FFF7AAFFDCE71323EFE700BF00C0035046
S31508009CD0F0B587B005461646FFF7C8FC0446F0B946
S31508009CE00493104BCDE901166A46A86A01A90396A2
S31508009CF00593FFF725FD044688B995F8303073B902
S31508009D002846FFF7D1FD28460099FFF735FE95F856
S31508009D103530032B03D028462C76FFF79DFF2046C7
S31508009D2007B0F0BD017000F0F7B5906A01A91446B6
S31508009D30FFF7D6FC0546204674F08EFA3A4B9D424C
S31508009D4031D094F83620019D002A3BD121688B6CCE
S31508009D5013F400732AD0AA604FF40072334B2B61B8
S31508009D60236803F500539A6474F042FBEF680646CD
S31508009D7037B16A68AB682046D31A29692A68B84792
S31508009D80A06A01A974F09BFAA06A8588ADB2002D75
S31508009D903AD001A9FFF7A4FC20460199FFF7ECFD8C
S31508009DA0304674F02BFB012003B0F0BD8A6CD10558
S31508009DB026D51F4AAB602A6123684FF4807203F5E3
S31508009DC00053D0E7022A1BD12268D36C13F4007320
S31508009DD00AD0164B4FF400722B610023AB60236840
S31508009DE003F50053DA64BFE7D26CD20508D5104AEA
S31508009DF0AB602A6123684FF4807203F50053F1E7DC
S31508009E0000232B61AB60AFE7012320462376FFF7DB
S31508009E1023FF94F8353084F83050032BC0D0204601
S31508009E20FFF726FDBCE700BF0B7000F00D7000F0D1
S31508009E300C7000F02DE9F04305468FB0874F06AE4B
S31508009E400C460FCF0FC697E80F0086E80F001822BA
S31508009E5000216846B1F0BEFA002D00F0FC8024B956
S31508009E607F4E30460FB0BDE8F083602200212846B9
S31508009E70B1F0B0FA236828462B60022385F83630FD
S31508009E80237C2B71FFF704FC06460028E9D1237FC3
S31508009E90744A85F835302368934200F0BC80724ACC
S31508009EA09342DDD157214FF48013704AC5E9042344
S31508009EB00023696285F8313085F83030D4E9091213
S31508009EC0A9620B80A96A3A204B80A96A684E8B80E2
S31508009ED085F83030EA621380EA6A01215380EA6A1B
S31508009EE0938085F8313085F8333000F0F1FB012195
S31508009EF0686A00F0EDFB2379002B00F091800121C0
S31508009F00362000F0E5FBD6F8203223F0070343F0AD
S31508009F1003031022C6F82032237C564F284607EB47
S31508009F204313C3F89424A17B237C227B07EB4313BA
S31508009F3042EA0142C3F8AC24237CE17B627B2533E9
S31508009F4042EA014207EB43135A60237B0121EB7671
S31508009F50A37BEB77637B2B77E37B85F82030637FE6
S31508009F606B77A37F85F82130E37FAB7794F82030B1
S31508009F7085F8223074F0EAF8064600287FF471AFB7
S31508009F80A3684FF002090893638A8DF82590ADF807
S31508009F902830A38ACDF834D0ADF82630A37D8DF8C5
S31508009FA02430A3690B930123ADF8063074F020FA28
S31508009FB0227F8046032A3AD141F29441237C07EB5B
S31508009FC0431343F80190237C94F82000E17F07EBC4
S31508009FD0431341EA004103F5A5531960217CA07F8C
S31508009FE007EB411741F29C41637F43EA00437B50EC
S31508009FF08DF8002006238DF818302379206806A9E5
S3150800A00033B374F04CFA2846FFF784FB06464046FD
S3150800A01074F0F4F925E756214FF47023164A45E7FC
S3150800A020D6F8203223F0070343F0010371E7022A2A
S3150800A030E0D195F821001149FFF72AFAFFF710FA3F
S3150800A0404FF4007328462B83AE76FFF705FED1E75B
S3150800A05074F021FAD7E70A4E03E700BF5CBB0B088A
S3150800A060037000F00000015B00000A5001001000B8
S3150800A0700080005000C0035001000F00F19700084F
S3150800A080027000F0F0B587B004461646FFF7EEFA00
S3150800A090054658BB0493194BCDE90116059394F868
S3150800A0A0363003962BBB23689B6903F0020313B96A
S3150800A0B02046FFF717FC6A46E06A01A9FFF740FB4E
S3150800A0C0054698B994F8313083B974F091F9E36A82
S3150800A0D006469B889BB233B120460099FFF778FC69
S3150800A0E0012384F83430304674F088F9284607B0DE
S3150800A0F0F0BD022BDCD123689B6CD6E7017000F01B
S3150800A100044BD3F88420D206FBD4D3F88400C0F3DA
S3150800A11081107047004000502E4B98424AD022D8F2
S3150800A1202D4B984240D014D82C4B984239D00AD897
S3150800A1302B4B984232D02B4B98422FD02A4B984221
S3150800A1402CD000207047294B9842FAD1284B186F1B
S3150800A1507047284B98422AD0274B9842F1D1244B76
S3150800A160D3F880007047254B98422BD009D8244B4A
S3150800A170984223D0234B9842E3D11D4BD3F88C0049
S3150800A1807047214B984221D003F5740303F5105309
S3150800A1909842D6D1164BD3F898007047144B986D51
S3150800A1A07047134B586E7047114B586F7047104BDA
S3150800A1B0986F70470E4BD3F8840070470C4BD3F852
S3150800A1C0880070470A4BD3F890007047084BD3F8BD
S3150800A1D0940070470048E8010024F400C0CF6A00E4
S3150800A1E080841E0000093D0040420F00405DC60005
S3150800A1F00080E00FC0EA210180BA8C01007E560378
S3150800A20080D54302006CDC020090D00338B5104BB1
S3150800A2100546D3F880300C4603F00303022B0BD017
S3150800A220032B0DD0012B0FD1FEF7EEFA0E2305B145
S3150800A230286004B1236038BDFEF730FB0723F6E734
S3150800A240FEF7D6FA0623F2E700231846EFE700BF23
S3150800A2500080005038B5184B0546D3F820010C4647
S3150800A26000F00700062823D8DFE800F0040A0E16D7
S3150800A270121A1E00012305B1286004B1236038BDF7
S3150800A280FEF7B6FA0523F6E7FEF7EEFA0323F2E73A
S3150800A290FEF704FB0723EEE7FEF7FCFA0223EAE7DC
S3150800A2A0FEF7A6FA0623E6E7FEF7DEFA0423E2E758
S3150800A2B000231846DFE700BF0080005038B5174B6B
S3150800A2C00546D3F828310C4603F00703013B052B56
S3150800A2D020D8DFE803F003131B0F0B17FEF788FAE5
S3150800A2E0052305B1286004B1236038BDFEF780FA5E
S3150800A2F00623F6E7FEF7D2FA0723F2E7FEF7B4FAE3
S3150800A3000323EEE7FEF7B0FA0423EAE7FEF7C2FAFC
S3150800A3100223E6E700231846E3E700BF0080005063
S3150800A32073B50D460021114B0191D3F880410646BD
S3150800A33004F00304022C13D0032C0CD0012C13D1E7
S3150800A34001A8FFF787FF10240EB1019B336005B102
S3150800A3502C6002B070BDFEF7A1FA07240190F3E75E
S3150800A360FEF798FA0190EFE70C46EDE700800050FB
S3150800A370002337B50193164B0546D3F820320C4611
S3150800A38003F00703042B21D8DFE803F0030B1116AB
S3150800A3901B0001230DB1019A2A6004B1236003B0A2
S3150800A3A030BD002101A8FFF789FF1223F2E7FEF767
S3150800A3B075FA07230190EDE773F00AFD0A23019069
S3150800A3C0E8E7FEF7ADFA09230190E3E70023E1E7A2
S3150800A3D00080005038B5104B0546D3F840310C467E
S3150800A3E003F00303022B0BD0032B0DD0012B0FD147
S3150800A3F073F0EEFC0A2305B1286004B1236038BD6A
S3150800A400FEF78EFA0923F6E773F0E5FC0C23F2E76C
S3150800A41001230020EFE700BF00800050002337B576
S3150800A4200193164B0546D3F860320C4603F0070332
S3150800A430013B032B1FD8DFE803F0020E1914002195
S3150800A44001A8FFF707FF10230DB1019A2A6004B18E
S3150800A450236003B030BD002101A8FFF7BBFF11231D
S3150800A460F2E7FEF71BFA07230190EDE7FEF712FA6B
S3150800A47002230190E8E70023E6E700BF00800050CA
S3150800A480002337B50193164B0546D3F894320C468C
S3150800A49003F00703013B032B1FD8DFE803F0020E86
S3150800A4A01914002101A8FFF7D5FE10230DB1019A52
S3150800A4B02A6004B1236003B030BD002101A8FFF76C
S3150800A4C089FF1123F2E7FEF7E9F907230190EDE783
S3150800A4D0FEF7E0F902230190E8E70023E6E700BF6C
S3150800A4E00080005038B5144B0546D3F800020C46D8
S3150800A4F000F0070004281BD8DFE800F003090D1157
S3150800A5001500012305B1286004B1236038BD73F036
S3150800A5105FFC0A23F6E7FEF703FA0923F2E773F06E
S3150800A5205AFC0C23EEE7FEF789F90F23800AE9E7C0
S3150800A53000231846E6E700BF0080005038B5144BE4
S3150800A5400546D3F808020C4600F0070004281BD875
S3150800A550DFE800F003090D111500012305B1286095
S3150800A56004B1236038BD73F033FC0A23F6E7FEF71F
S3150800A570D7F90923F2E773F02EFC0C23EEE7FEF772
S3150800A5805DF90F23800AE9E700231846E6E700BFCE
S3150800A5900080005038B5104B0546D3F840320C46BB
S3150800A5A003F00303022B0BD0032B0DD0012B0FD185
S3150800A5B073F00EFC0A2305B1286004B1236038BD88
S3150800A5C0FEF7AEF90923F6E773F005FC0C23F2E76C
S3150800A5D001230020EFE700BF0080005038B5104B7C
S3150800A5E00546D3F860310C4603F00303022B0BD063
S3150800A5F0032B0DD0012B0FD173F0EAFB0A2305B10B
S3150800A600286004B1236038BDFEF78AF90923F6E706
S3150800A61073F0E1FB0C23F2E701230020EFE700BF0C
S3150800A62000800050B0F5207F1FD009D8B0F5007F14
S3150800A63015D003D868B1B0F5C07F0AD000200CE069
S3150800A640B0F5607FFAD10B4BD3F88000C0F3011048
S3150800A65003E0084B186FC0F3033001307047054B11
S3150800A660D3F89000C0F30460F7E7024B186FC0F305
S3150800A6708020F2E70080005002464FF48030104BED
S3150800A68010B598660020FFF7CDFF504341F67132AA
S3150800A6900C4BDC69DA635A6804F4803422F44012FD
S3150800A6A059B90949884294BF002001200005024390
S3150800A6B05A600CB10022DA6310BD0449F2E700BF04
S3150800A6C00090005000000350005A6202002D31012C
S3150800A6D0430905D0012B0CD0022B084B18BF0023C9
S3150800A6E000F01F0039B103F58053012282401A6039
S3150800A6F07047034BF4E703F50053F6E7688000500C
S3150800A700648000501FB5002180280446CDE9001159
S3150800A71000F0A58035D85E2846D85E2844D8DFE8FC
S3150800A72000F0A24343434343434343434343434322
S3150800A73043434343434343434343434343434343DB
S3150800A7404343A2AAA2AABABABABABAAAC44DDA7135
S3150800A7504DAAAAAA4343434343434343AAAAAA7911
S3150800A760E4AA43434343434343434343434343BA2C
S3150800A770A2A2A2DF4D4DE9885EBF434343434399F6
S3150800A780A200B0F5B06F00F090802DD8B0F5207F0C
S3150800A79071D00CD8B0F5C07F65D0B0F5007F65D014
S3150800A7A0B0F5807F00F08680009804B010BDB0F543
S3150800A7B0607F6BD00DD8B0F5407FF5D1FEF73EF837
S3150800A7C002464FF42070FFF72DFFB2FBF0F2520855
S3150800A7D05AE0B0F5806F5ED0B0F5A06FE4D10021E5
S3150800A7E06846FFF7C5FDDFE7B0F5106F78D016D8D5
S3150800A7F0B0F5E06F79D00AD8B0F5C06F6BD0B0F578
S3150800A800D06FD1D100216846FFF76CFECCE7B0F5D2
S3150800A810F06FC9D100216846FFF7E0FEC4E7B0F53E
S3150800A820406F3DD013D8B0F5206F63D0B0F5286FD0
S3150800A830BAD10021324B0391D3F8703203F00303E7
S3150800A840012B02D103A8FFF7C5FD039B3CE0B0F539
S3150800A850486FA9D100216846FFF712FEA4E7FDF765
S3150800A860D3FF0090A0E7FDF7E9FFFAE7FDF7CCFF75
S3150800A8700246204604E0FDF7E1FF02464FF4207049
S3150800A880FFF7D0FEB2FBF0F200928DE701A8FFF7C2
S3150800A890BDFC019AEDE700216846FFF7DBFC83E77C
S3150800A8A000216846FFF70AFD7EE700216846FFF7A4
S3150800A8B037FD79E74FF0E02302911B695B0705D561
S3150800A8C0FDF7BCFF0290029B00936DE703A902A85F
S3150800A8D0FFF780FDF7E700216846FFF77BFD63E792
S3150800A8E000216846FFF72AFE5EE700216846FFF763
S3150800A8F051FE59E700216846FFF790FD54E700BF6F
S3150800A9000080005008B58020FFF7FCFE034B9842F4
S3150800A9109EBF4FF48032024B1A6708BD005A620286
S3150800A92000A000501FB503460020B3F5807F0190B4
S3150800A93000F0C18064D85D2B55D84C2B07D82D2B39
S3150800A94048D8232B2CD8019805B05DF804FB4D3B5D
S3150800A950102BF8D801A252F823F000BFADAA0008C0
S3150800A96047A9000847A9000847A9000863AA0008DC
S3150800A97047A9000847A9000831AB000881AA0008C2
S3150800A98027AA000827AB000847A9000847A9000816
S3150800A99047A9000847A9000847A900083BAB0008D3
S3150800A9A0243B092BCFD801A252F823F0ADAA000800
S3150800A9B0ADAA0008ADAA0008ADAA0008ADAA00080D
S3150800A9C047A90008A3AA000847A9000843AA00083F
S3150800A9D0E3AA00083D2B7FD03E2BB4D1002001A965
S3150800A9E0FFF7D8FDAFE7802BADD1594B1B6F03F0AE
S3150800A9F00703013B032BA6D8DFE803F0514E858DEC
S3150800AA00B3F5F06F68D021D8B3F5B06F49D00FD839
S3150800AA10B3F5607F00F0838095D3B3F5806F45D09A
S3150800AA20B3F5A06F8FD1002001A9FFF7A1FC8AE733
S3150800AA30B3F5D06F55D0B3F5E06FCFD0B3F5C06F8F
S3150800AA4081D1002001A9FFF7C5FC7CE7B3F5206F8B
S3150800AA506ED00BD8B3F5086F48D0B3F5106F7FF4F6
S3150800AA6072AF002001A9FFF769FD6CE7B3F5406FE7
S3150800AA7059D0B3F5486F60D0B3F5286F7FF463AF4C
S3150800AA80334BD3F8703203F00303012B5AD0022B51
S3150800AA900CBF1523002300E00523019353E7022387
S3150800AAA0FBE7002001A9FFF73BFC4CE7002001A9C2
S3150800AAB0FFF7D0FB47E74FF0E02302901B695B07DF
S3150800AAC005D5FDF7BBFE0D230393039BE5E703A915
S3150800AAD002A8FFF77FFCF8E7002001A9FFF77EFD33
S3150800AAE031E7002001A9FFF7FDFC2CE7184BD3F846
S3150800AAF0003103F00303022B07D0032B09D0012BE7
S3150800AB000BD1FDF7B1FE0323C7E7FDF709FF0923BC
S3150800AB10C3E773F05BF90823BFE70123BDE701A983
S3150800AB20FFF774FB0FE7002001A9FFF7C7FB0AE749
S3150800AB30002001A9FFF772FC05E7002001A9FFF72D
S3150800AB409FFC00E7002103A8FFF744FC1123A4E7B4
S3150800AB500080005008B5FFF7E5FE092811D00A382D
S3150800AB60012802D94FF6FF7008BD4FF48002064B44
S3150800AB705A6603F5D8335B6ADB07F3D54FF4FA70E8
S3150800AB80F2E7024B1888EFE7009000507219002090
S3150800AB9038B504468020FFF7C5FE032800F08A80F2
S3150800ABA04FF48012544B4FF0A0615A6645F60E03D7
S3150800ABB0524AC2F88030524B99624FF4803103F5FD
S3150800ABC080539962936DD903FCD4916D11F080413D
S3150800ABD0FBD1D4E900031B0543EA0063E07B03438A
S3150800ABE0207B43EA0043607B43EA0033A07B43EAC9
S3150800ABF0801313619069D4E904531B0643EA8563FD
S3150800AC0000F000400343A07E0343207E43EA00434E
S3150800AC10607E43EA00239361136AE06923F00F0319
S3150800AC200343003818BF0120E57E43EA850343EA5B
S3150800AC30C0031362E369334D002B3CD194F82430EA
S3150800AC40916A94F82000DB00294043EA40130B433D
S3150800AC5094F8211043EA011343F4803393622A4996
S3150800AC60264A936D31EA0303FBD14FF080712448DD
S3150800AC7081621369A56823F4700343EA05531361D7
S3150800AC804FF00043836194F822300BB91F4B996249
S3150800AC9094F823303BB94FF480321C4B9A62174A1A
S3150800ACA0936D5B00FCD494F825301BB1134B184AFE
S3150800ACB0C3F8802038BD022B08D11161154891616F
S3150800ACC04FF408524FF47F4173F054FB0B4994F844
S3150800ACD022308A6A94F820001B062A4043EA401369
S3150800ACE0134394F8242043EAC20394F8232043EA42
S3150800ACF002438B62D7E700BF009000500040005A1D
S3150800AD000050005AC7FFFEFE030001000060005A0B
S3150800AD10F1A7FFFF3440005A70B5194CFF28A66A00
S3150800AD202BD8A36D4FF0807113F4803F18BF4FF4F2
S3150800AD308032144B18BF9A629962134AA36992F932
S3150800AD40005023F47F03054423F47F4343EA00239A
S3150800AD5085F3080543EA0543A36132460B4873F0B9
S3150800AD6009FBA36DDB0301D4002070BD32464FF406
S3150800AD708031064873F0FEFAF6E72120F5E700BFB2
S3150800AD800040005A0050005A931900202840005AE3
S3150800AD90014B93F900007047931900204FF4803354
S3150800ADA011481249826A8B62836D03F00303032BF1
S3150800ADB0FAD14FF080730E488B620B4B996D30EACF
S3150800ADC00101FBD1012009490865996D8907FCD461
S3150800ADD0054B996D8807FCD5996D8907FCD50549FA
S3150800ADE0054873F0C7BA00BF0040005A0050005A21
S3150800ADF003000100000001012840005A4FF4000139
S3150800AE001B4A437810B551664FF4D151022402F516
S3150800AE10B832516217494F2B4C604FF0010428BFD6
S3150800AE204F2301F580514C601169C903FCD40178A0
S3150800AE3043EA01235361D0E901131B0143EA0123C5
S3150800AE40417B0B43017B43EA41039360C37B817BD0
S3150800AE501B0143EA4113417C0B43017C43EA41034E
S3150800AE605360837C13B16FF4D153536210BD00BF96
S3150800AE700090005000100250014B1880704700BF28
S3150800AE8072190020014B1880704700BF7019002006
S3150800AE904FF4800208B5184B5A660223174A5360C6
S3150800AEA0936813F48033FBD1012822D1FDF7DCFC2B
S3150800AEB0134B984215D003F5122303F5F86398420D
S3150800AEC013D0104B00EB8002400AB3FBF0F3520A92
S3150800AED00A49CA620B6301234B620022074B5A6078
S3150800AEE008BD45F67A13084AF2E745F61A03074AF3
S3150800AEF0EEE75362F1E700BF0090005000400250B1
S3150800AF0000F0490264666666D8B80500BBCF05003E
S3150800AF10B0F5207F10B50C465DD008D8B0F5007F97
S3150800AF204ED003D8C0B1B0F5C07F15D010BDB0F56E
S3150800AF30607FFBD12C4B4C1ED3F8FC202B4912F01A
S3150800AF40807F4FEA041427D1D1F8803023F03003EC
S3150800AF502343C1F88030E9E773F01BFA73F027FA48
S3150800AF604FF48031224B214A1967136F013C23F4B1
S3150800AF70704343EA04331367FDF760FC0446FFF7A2
S3150800AF80BFF8C0F10201204673F00BFA00F042F850
S3150800AF90BDE81040FFF7B6BCD3F8FC2022F080725B
S3150800AFA0C3F8FC20D1F8802022F030022243C1F8F1
S3150800AFB08020D3F8FC2042F08072C3F8FC20B5E765
S3150800AFC00A4A4C1ED2F8903023F0F85343EA046339
S3150800AFD0C2F89030AAE7054A4C1E136F23F4806323
S3150800AFE043EA84231367A1E700ED00E000800050E0
S3150800AFF00090005008B50121022000F0B1F973F065
S3150800B000C8F973F0D4F94FF48032014B1A6708BDBA
S3150800B0100090005008B54FF4C070FFF773FBBDE809
S3150800B02008400449884294BF012102214FF4207048
S3150800B030FFF76EBF80F0FA024FF4C02201212DE916
S3150800B040F0410746684B5A66684A03F598335C68C8
S3150800B05051605D6815F00205FBD13E68FFF750F8B0
S3150800B060012805D1624B9E4202D90020BDE8F08135
S3150800B070604A002311461068864202D35068864209
S3150800B08005D90133192B02F11002F4D1002301EB83
S3150800B0900313D3E9028028B1FFF73EF800F07F00DA
S3150800B0A048EA00088020FFF73DFC05287AD173F0AE
S3150800B0B070F973F07CF94FF480324B4B4FF4C07043
S3150800B0C01A67FFF7AFFA0128054667D102214FF440
S3150800B0D0C070FFF71DFF0126474BDA6812F0060F0E
S3150800B0E0FBD19968C3F808809A6882EA080212F4C4
S3150800B0F0F81F6BD1BA88FB8843EA02433F4AD360FC
S3150800B100BB68032B50D1A2F5A032D2F8003123F048
S3150800B110030343F00103C2F800317B7D3A7D9B01AE
S3150800B12043EA82033A6913433A7B43EA4203334AC2
S3150800B13093603868FDF762FB002707222B4B1A61DC
S3150800B1400122A3F580535A60A3F580531C6914F0B5
S3150800B1500704FBD08020FFF7E5FB052817D126B1A9
S3150800B16029464FF4C070FFF7D3FEFDF767FB054687
S3150800B170FDF73EFBFDF73CFBFEF7C2FFC0F10201FF
S3150800B180284673F00EF9FFF745FFFFF7BBFB002FC4
S3150800B1907FF46BAF631E5842584167E7022801D116
S3150800B1A0042194E7002697E7092B07D1144AD2F819
S3150800B1B0003123F0030343F00203ACE7082BACD1BC
S3150800B1C00F4AD2F8003143F00303A4E714F0010450
S3150800B1D0996001D00127B0E78020FFF7A3FB052877
S3150800B1E07FF443AF0127BAE70090005000E0015012
S3150800B1F0005A62027CBB0B080000015000C00150D7
S3150800B200008000500028ABBF00F16040054B00F5F8
S3150800B210614000F00F00ACBF90F80003185C00090D
S3150800B220704700BF14ED00E0034B5868C0F30800F0
S3150800B230003818BF0120704700ED00E0054B4209B1
S3150800B24053F8223000F01F0023FA00F0C04300F044
S3150800B2500100704700E100E0014608B5EFF31083EE
S3150800B260DB0702D50122104608BDFFF7E7FF0246B5
S3150800B2700028F7D10846FFF7C5FF0146EFF311830B
S3150800B28013B1B0EB131FEDD2074B5B68C3F308038A
S3150800B290002BE8D0103B58B2FFF7B4FF88428CBFAA
S3150800B2A000220122DFE700BF00ED00E0024A536BEF
S3150800B2B00342FCD1704700BF00400950044A417858
S3150800B2C0536F23F4407343EA01235367704700BF63
S3150800B2D00040005010B50C4A0446136943F00403B5
S3150800B2E0136105F07BFA73F08CF8084B084AC3F82B
S3150800B2F0202430BF73F086F805F0AAFA1CB9BDE819
S3150800B3001040FDF79BBA10BD00ED00E000E00350C9
S3150800B3100000FF0F10B50A4A0446136943F00403F8
S3150800B3201361084B084AC3F8202405F057FA30BFC2
S3150800B33005F08EFA1CB9BDE81040FDF77FBA10BDBE
S3150800B34000ED00E000E003500000FF0F034A01791A
S3150800B350D36E23F030030B43D3667047004000508A
S3150800B360F8B504461C4BD3F88420D106FBD4D3F891
S3150800B3708430C3F381139C422CD0FDF745FA012C87
S3150800B380064602D1214673F00CF873F02AF84FF0FE
S3150800B3900072124B07465A66204673F036F84FF489
S3150800B3A080630D4D621E93402B676B6E9A0103D422
S3150800B3B0D5F884309B060AD5384673F016F8022C61
S3150800B3C008D13046BDE8F840002172F0EABFD5F84A
S3150800B3D08430EAE7F8BD00BF004000500060005026
S3150800B3E010B50C4608B9FDF70FFA074B21461B782E
S3150800B3F03BB1064B984204D80120BDE81040FFF740
S3150800B400AFBF0220F9E700BFDA120220005A620233
S3150800B4100278034B012100201A70FFF7E1BF00BF35
S3150800B420DA1202204FF0004238B5244B244C5A66F3
S3150800B4304AF6CD33656C014605F00105236428BB41
S3150800B4400120FFF733FF6368DB0715D51D4B5860EE
S3150800B45008461D4B226BD2070CD4984208D1072404
S3150800B46015B1174B194A1A64ADF09AFC204638BD37
S3150800B4700130EFE79842F2D00024F1E70132236B5E
S3150800B48013F0080305D08A42F8D1E8E700220E49EE
S3150800B490F5E78A42E3D020210A4A91620121A2F502
S3150800B4A0805251600649084A886A800603D4934246
S3150800B4B0D5D00133F8E79342DDE700BF009000508E
S3150800B4C0004009500060095040420F003254FFFF07
S3150800B4D04FF0004238B5164B01465A664AF6CD3348
S3150800B4E0144C154A656C236443780B205B0043F0C3
