S02B00004D61747465724C696768745377697463684F7665725468726561645F62726434313836635F763434FF
S315080060000012002035B200081B2C09084D880A0822
S31508006010015109081B2C09081B2C09081B2C090807
S315080060201B2C09081B2C09081B2C0908516200089F
S315080060301B2C0908D4D30D08F1610008655C090812
S3150800604055B700081B2C09081B2C09081B2C090826
S315080060501B2C09081B2C09081B2C09081B2C0908D2
S315080060601B2C09081B2C09081B2C090845160308B4
S315080060701B2C09081B2C09081B2C09081B2C0908B2
S315080060801B2C09081B2C09081B2C09081B2C0908A2
S315080060901B2C0908C5BE00081B2C09081B2C09085F
S315080060A01B2C0908C5C00008A1C000081B2C09083C
S315080060B01B2C09080D96070899A0070839EA0C0849
S315080060C035EA0C084198070845EA0C083DEA0C0829
S315080060D071A0070841EA0C08D9A0070845A10708D6
S315080060E01B2C09081B2C09081B2C09081B2C090842
S315080060F03D5009081B2C09081B2C09081B2C0908EC
S315080061001B2C09081B2C09081B2C09081B2C090821
S315080061101B2C09081B2C09081B2C09081B2C090811
S315080061201B2C09081B2C09081B2C09081B2C090801
S315080061301B2C09081B2C09081B2C09081B2C0908F1
S315080061401B2C090849F300081B2C090847520908A3
S31508006150B97D07081B2C0908BFE60C08C5E60C081C
S315080061601B2C09081B2C09081B2C09081B2C0908C1
S31508006170013800D0FCE7704700000000000000006E
S315080061800B4A1168086806C881F30B88022181F357
S315080061901488203080F30988BFF36F8F4FF0000012
S315080061A080F31188104700BFAFF30080AFF300807B
S315080061B0405A012000000000000000000000000016
S315080061C007480068006880F3088862B661B6BFF3BE
S315080061D04F8FBFF36F8F02DF00BF00BFAFF30080A2
S315080061E008ED00E0000000000000000000000000CC
S315080061F0EFF30980EFF30B82734620E9FC0F104A90
S31508006200116808604FF0300080F31188BFF34F8F94
S31508006210BFF36F8F11F038F94FF0000080F3118843
S31508006220074A11680868B0E8FC0F82F30B8880F308
S3150800623009881847AFF30080AFF30080AFF30080FA
S31508006240405A012000000000000000000000000085
S315080062501EF0040F0CBFEFF30880EFF30980044922
S31508006260084700BFAFF30080AFF30080AFF30080AC
S31508006270B5810108000000002DE9F043022089B02D
S315080062800EF0C8FB00B9FEE75F4E336803B9FEE7B8
S3150800629010200EF0BFFB33685C4C9B880DF10B0198
S315080062A08DF80B30012320681A46C7F0DEFD9DF8ED
S315080062B00B203168023A0023096892B22068C7F0B9
S315080062C0D4FD534B05AF93E8070087E8070033680A
S315080062D01B681D7815F020051FD02068C7F0F3FB52
S315080062E0002868D02068C7F0EEFB83F0ADFC0246B4
S315080062F00B4641A1D1E9000183F04AFE8046079882
S31508006300894683F0A1FC02460B464046494683F07F
S315080063105FFB83F0ADFF012507902068C7F0EFFB10
S315080063209DF80B30002849D0981DC00083F09CFCCE
S3150800633033A3D3E9002383F001FD8046206889460C
S31508006340C7F0DDFB83F080FC02460B464046494613
S3150800635083F01EFE80460798894683F075FC024640
S315080063600B464046494683F033FB83F081FF32688B
S315080063700790D3697BBB10200EF04CFB18B3079B24
S31508006380326803F5FA7392F820100793214B997037
S3150800639021490978D970917900972A462068C7F06B
S315080063A00FF928B14FF480500EF05EFC51F09AFABE
S315080063B009B0BDE8F0830798C030ACE70798063304
S315080063C000EB4310D3E731683B462A4689792068B3
S315080063D0C7F0E0F8E5E791690B44A03B0393002377
S315080063E0ADF810300D4B9179009301972A46206835
S315080063F003ABC7F0F0F8D4E70000000060E366419D
S315080064000000000080842E41284C0120844B012086
S3150800641048F80D081C140020E41B00201014002066
S31508006420F7B501200EF0F6FA0446002840F0AB80D6
S31508006430594D5A4B5A4EC5E9003005F11003AB6069
S3150800644041F60B23102230607F215648B380D5F0E1
S31508006450A7FE7F22544B1A70544B1B6ADB0700D4E5
S31508006460FEE7214628466AF0E3F9044600B9FEE746
S315080064706BF09CFD00B1FEE720464D496BF0B6F87F
S3150800648000B1FEE702212046C7F0FFFA00B1FEE799
S31508006490204648496BF074FB00B1FEE7012120460F
S315080064A0C7F078FE00B1FEE701212046C7F088FE56
S315080064B0074600B1FEE701463C223F48D5F070FE8C
S315080064C080233A46204605F11401C7F0E4FC8028EB
S315080064D000D0FEE7394D0120C7F057F82CA3D3E9C1
S315080064E000232C602046CDE900234FF0FF324FF001
S315080064F0FF33C7F07FFB014600B1FEE728480EF0E0
S31508006500E5FA012108460EF0B3FA01212868C7F01A
S3150800651009FA044600B1FEE701464FF40C62284822
S31508006520D5F03EFE274B284A9C801C60274B6FF00F
S3150800653063001A609C80264A264B1A60264A9C806D
S315080065405A6118F017F833790B2B00D9FEE77379DF
S315080065500A2BFBD9214B1E6008F048FE20460EF098
S3150800656005FB082228681146C7F05EFB044600B101
S31508006570FEE70FF0F9FA1A4B1A481C7003B0BDE88B
S31508006580F04094F06BBF03B0F0BD00BFAFF30080DE
S315080065900BE020FFE2030000944B0120F14C0108B8
S315080065A08C4B012015340220143402200080E00FA1
S315080065B00700110014F80D08444B0120844B0120F4
S315080065C02C4C0120302C0020AE340220082C002050
S315080065D02F340220E02B0020D02B0020884B0120EE
S315080065E03035022008F80D082DE9F04F00252DED6D
S315080065F0028B04462F46A8469FED398B9BB03A4B33
S315080066000591164602212120384AB8F0F4FE94F87E
S31508006610383004F1080A03930295039A2BB29A427A
S315080066200DD1029B20460CA9CDE90C378DF8388090
S3150800663035F0F2FA1BB0BDEC028BBDE8F08F5AF8C4
S31508006640043F615D2A480493AFF0BDFE03680693D4
S3150800665003798DF81C300BB18368089383893168F8
S31508006660ADF82430D0E90423CDE90A230B680CA839
S315080066709B699847DDE90AB301930198DDE90C2384
S31508006680984208BF93459DF8191026D19DF8389071
S31508006690894522D1174BC8460C93059B164A109379
S315080066A00023314611A81192CDE912338DF85030E6
S315080066B08DED0E8BBEF03AFF316816A80B689B6904
S315080066C09847049AE36B12680CA906A898470CA881
S315080066D035F0AAF8019FCDF808B001359DE700BF4F
S315080066E00000000000000000E3730E08D3820E08C5
S315080066F090D8002044830E083C620F080000000072
S315080067002DE9F04F2DED028B884204460D461746BB
S315080067101E4697B00AD1034601211D202E4A17B0FE
S31508006720BDEC028BBDE8F04FB8F065BE9FED288B37
S315080067300DF10C092A2148460DF1140840F08AFE8D
S3150800674099E8030088E80300DFF890A0DFF890B026
S31508006750BDF81400BDF81630834204D117B0BDEC5D
S31508006760028BBDE8F08F40F0DBFE337881468DF86A
S3150800677024408DF825508DF826708DF828300BB1F9
S3150800678073680B9309AB0893CDF81CA02EF014FC84
S3150800679000230E938DF840308DF851302A23ADF83A
S315080067A030904FF001090D930CAA6B4607A98DEDA1
S315080067B0128B8DF85090A5F08BFA034620B15A46F5
S315080067C049461D20B8F017FE4046AFF0A9FCBFE7C2
S315080067D00000000000000000CCA30E08D8A40E0894
S315080067E00CA40E08000000002DE9F04F2DED028BD9
S315080067F09FED318B9DB00DF108092A21044604ADA1
S31508006800484616461F46DDF8A48040F023FE99E860
S31508006810030085E80300DFF8A8A0DFF8A8B0BDF8F4
S315080068201000BDF81230834204D11DB0BDEC028BB6
S31508006830BDE8F08F40F074FE289B81461B78CDE9B1
S315080068400A6708948DF830301BB1289B5B788DF861
S31508006850313098F800308DF838301BB1D8E902236A
S31508006860CDE9102308AB0793CDF818A02EF0A4FBAA
S3150800687000232A228DF858308DF869300223ADF8A6
S3150800688048904FF00109CDE9132306A96B4612AAD1
S315080068908DED188B8DF86890A5F01AFA034620B18D
S315080068A05A4649461D20B8F0A6FD2846AFF038FCE2
S315080068B0B5E700BFAFF3008000000000000000004D
S315080068C000A50E0863A40E082DE9F0472DED028BEE
S315080068D0C8B01AAB0293B6230393002304468B6011
S315080068E00CA80D46ACF0ABFD41490CA8ACF0C7FDB1
S315080068F0204602AA0CA9ADF0B0FAB8B902A904A8B4
S31508006900ABF082FEDDE904120CA8B6F051FD4FF497
S315080069108072002316210CA8B7F03EF830B90DF1A5
S3150800692003010CA8B6F02CFF064620B148B0BDEC12
S31508006930028BBDE8F08701A90CA8B7F0E0F8019A28
S315080069406B689A4239D860249FED278B01270CA8DB
S31508006950B6F0E8FF50B12128E8D19DF903100CA83C
S31508006960B6F0ABFF0446B8B32046DFE76B689E4235
S3150800697001D3D4F01DFE04FB06F9D5F800A0049057
S315080069808DF820000CA904A88DED068B0AEB0908E2
S315080069908AF07EF90028C9D1049B4AF80930DDE956
S315080069A00623C8E902239DF8203093B1DDE90919C9
S315080069B0B9F1400F08F1200301D91920B6E74A4674
S315080069C01846D5F0EFFCC8E9050988F810700136B5
S315080069D0BDE788F81030FAE70CA8B6F0A3FF21281F
S315080069E0A4D1AE60C0E700BF0000000000000000B0
S315080069F09FA70E08000000002DE9F04F2DED028B31
S31508006A00ABB004460D463BF095FE074600287DD000
S31508006A102046ADF04DFB0021ADF076FB067CD0F8A4
S31508006A2000906EB1EC4600F1200200F16003664664
S31508006A3010685168083203C69A42B446F7D101264F
S31508006A4095F8383000200021002B62D1CDE91201DB
S31508006A5010938DF850308DF8A0304FF00008294675
S31508006A601AA8CDF86080B6F075FC2046ADF0D8FAC5
S31508006A709FED5F8B9DF99420189B01325FFA88FA87
S31508006A8011D083B91AA8B6F04DFF189058B91090CE
S31508006A908DF850001AA910A88DED128B8AF0F8F817
S31508006AA01890002843D0189B212B02D0002B40F0C9
S31508006AB08880C4F830A0FFB120463BF03BFED8B131
S31508006AC02046ADF0F5FA0021ADF01EFB0368057C03
S31508006AD04B4500F0878065B15EB11030ADF01FFB05
S31508006AE04268402A05D169460068D5F02FFB00B9EF
S31508006AF015B1042384F84C312046ADF0D9FA014685
S31508006B0004F5A4703BF03EFA034624E006468146A7
S31508006B1096E7002310938DF85030012395F8392015
S31508006B20CDE912018DF8A0308DF8A12095E75146E0
S31508006B3004F12800ADF0E8FA109A2F4902F5284327
S31508006B40C0338B4205460CD92046ADF098FA00288A
S31508006B5014BF0346B92318462BB0BDEC028BBDE81B
S31508006B60F08FDDE91231BAF1000F16D10B43EBD1E4
S31508006B702A60DDE91223C5E902239DF850303BB1AE
S31508006B8014A8ADF0CCFAD0F804B0BBF1000F07D1C9
S31508006B9000232B7408F101086CE70B43E8D1D3E70F
S31508006BA0BBF1400FD0D805F1200A402200215046FB
S31508006BB0D5F0F6FA14A8ADF0B2FAD0E9001293456A
S31508006BC008D22046ADF05BFA40F28553002818BF7C
S31508006BD00346C0E75046D5F0E5FB0122C5E905ABFB
S31508006BE02A74D7E7002D87D0002E85D0002574E7B4
S31508006BF00000000000000000A06D01000000000079
S31508006C002DE9F04F2DED028B083085B00F469146E1
S31508006C10DDF85080B8F0E4FA0446002800F09980C0
S31508006C206E4600259FED4E8B4FF0010B41F2A45A9C
S31508006C3010AB0FCB86E80F004B4BC4E90255236017
S31508006C40C4E90455C4E9065524336360474B04F187
S31508006C50480C0FCB84ED0E8BC4E90C5584F82050F4
S31508006C6084F840508CE80F00414B84F858B0A4F8DB
S31508006C705AA0E565C4E91955236604F17403C4E905
S31508006C801D3304F18003C4E920333A4B1022C4F8BB
S31508006C9090302946C4E9255584F86C50E567C4F850
S31508006CA08850C4F89C5004F1A000D5F079FA84F80D
S31508006CB0B0B0A4F8B2A0C4F8B45004F1B800B8F063
S31508006CC0EAFF4AF6C873C82284ED348B84ED368B06
S31508006CD0C4E9382304F1F803C4E93E3384F8C45000
S31508006CE0A4F8C850C4F8F05084F8F450C4F8005119
S31508006CF03B68A3607B68E360BB682361FB686361EC
S31508006D003B69A3617B69E3613B7E84F8203033B13C
S31508006D1004F1240307F11C0207CA83E80700384672
S31508006D20A3F0FBFEA8B9B9F1000F12D0B8F1000F15
S31508006D300FD003CE3378C4F8309084F8403001235E
S31508006D4084F8F030231DA063E163C4F88C80C4F88E
S31508006D509C30204605B0BDEC028BBDE8F08F00BF25
S31508006D6000000000000000004C710E0818B7012052
S31508006D703C620F083C710E082DE9F04F2DED028B91
S31508006D809946002300240025CDB08DF8C8304993D4
S31508006D90ADF82831A64BCDE92E45CDE93045CDE9EC
S31508006DA034450C934FF6FF740123DFF89CA2064680
S31508006DB088461746CDF8D8A0ADF820410D93A2B362
S31508006DC0054600F53474A54206D10B2420464DB07D
S31508006DD0BDEC028BBDE8F08F2846A5F09FF808B1F8
S31508006DE09035F0E79FED908BBDF864318DF8C8803B
S31508006DF0ADF820318F4B4FF4C8710E93002309A8C4
S31508006E00CDE909330F93CDF870A00B93ABF090FC46
S31508006E10099C14BB0B240BA8A3F07CFC0AA8A3F0BE
S31508006E2079FC09A8A3F076FCD0E7B1F046FE044643
S31508006E3008B9AC24CAE706F534752846A2F0CEFB95
S31508006E40B4F882308DF8C880ADF8203121460CA8F8
S31508006E5094ED028BB1F0B3FDCCE74FF4C8710AA8E4
S31508006E60ABF066FCDDF828A0BAF1000FD2D04FF4DB
S31508006E70C8710BA8ABF05CFC0B9A002ACAD04FF479
S31508006E80C8734146CDE91332304610AA1094CDE9AD
S31508006E90113A1593B1F071FE04460028BBD141465C
S31508006EA0304612AAB1F04BFE04460028B3D141463B
S31508006EB0304614AAB1F020FE04460028ABD110A92A
S31508006EC016A8ABF0A1FB12A918A8ABF09DFB14A954
S31508006ED01AA8ABF099FB36AB079330AB049334ABE7
S31508006EE003930DF1B80A0EAB0DF1700B8DED008B07
S31508006EF0CDE905AB02931AAA18A916A844F01EF9FB
S31508006F000446002887D10BA8A3F004FC0AA8A3F01E
S31508006F1001FC09A8A3F0FEFBB9F1000F13D1D6F8BE
S31508006F20640300285FD003689B6898470346D6F831
S31508006F306403002B4FD003685A4641465B6998475D
S31508006F40044690B142E7D9F8003048465B6998474D
S31508006F50036859465B6A984708B9C52436E79DF819
S31508006F606031CDF824918DF828319DF86831514665
S31508006F70B3FA83F328465B098DF82931B2F048F84D
S31508006F80044600287FF422AF28460CA9B1F046FD36
S31508006F9006F55D7495F881303FB302211120264A23
S31508006FA0B8F029FAD5E900122B69CDE90121009339
S31508006FB06B6902211120214AB8F01DFA20460F9963
S31508006FC046F0A8F8034630BB96F88233013386F8B4
S31508006FD082330024FAE603684146DB6898470028AE
S31508006FE0C3D11024F2E60324F0E6D5E900121120F5
S31508006FF0CDE900210221124AB8F0FDF920460F9981
S3150800700046F088F803460028E3D0012111200D4AEE
S31508007010B8F0F1F9DDE7012111200A4AB8F0EBF9D9
S31508007020D2E700BFAFF300800000000000000000B8
S31508007030CC010E08D4EA0E08FEE90E081EEA0E0870
S3150800704061EA0E0896EA0E08D82E0F08000000001E
S315080070502DE9F0478AB00DF10D0301931523064675
S3150800706000934FF48072002308460C46B6F0F2FFF0
S31508007070E8B996F892300122009320460023B6F02C
S3150800708070FFA0B996F89330022200932046002399
S31508007090B6F067FF58B90DF10E03019316230322C4
S315080070A0009320460023B6F0D5FF054610B10AB076
S315080070B0BDE8F0874FF0100906F1C8070DF118086A
S315080070C0102200214046D5F06BF80DF10F0301930D
S315080070D015234FF48072009320460023B6F0BAFFBA
S315080070E00028E4D196F89320EBB29A4251D917EDCD
S315080070F00C7BC44637F828ACA7F12603A7F1160E71
S31508007100624618685968083303C273459446F7D12E
S315080071108DED007B042200232046B6F0FDFE0028F4
S31508007120C5D1052200232046CDF800A0B6F019FFE8
S315080071300028BCD14046494606228DE803000023B4
S315080071402046CDE90489B7F042F80028AFD1204699
S315080071509DF90F10B6F0ACFF013530370028A6D1DF
S31508007160032DADD120469DF90E10B6F0A1FF0028DB
S315080071709DD1B6F88A300722009320460023B6F040
S31508007180F0FE002893D120469DF90D10B6F090FF29
S315080071908DE782469FED027BBAE700BFAFF300801A
S315080071A00000000000000000054B18680368996994
S315080071B001A3D3E90023084700E0373B015D03003C
S315080071C0F41500200000000010B52A21ADF5956DD4
S315080071D06D484CF089FB08B1D4F0EAF9029002A98F
S315080071E069484CF02DFA0028F6D1029B2A2BF3D1D8
S315080071F063A3D3E9002365484CF08EFB0028EBD146
S3150800720000220023614808A9CDE908234CF03CFA7E
S315080072100028E1D1DDE9080240F6FA035C499A4202
S3150800722008BF8842D8D101215A484CF02DFB0028C6
S31508007230D2D18DF807000DF1070156484CF0B0F988
S315080072400028C9D19DF80730002BC5D04E484CF010
S31508007250F7F80028C0D14C4803A94CF0F1F940F2E0
S315080072600124A042B8D14C494C48B9F038F8002856
S31508007270B2D14022494804AB0AA94CF02DFA00289D
S31508007280AAD1049B0E2BA7D10F2243490AA8D4F0F2
S315080072905DFF0028A0D142494048B9F020F80028EF
S315080072A09AD104AB40223D480AA94CF015FA049B32
S315080072B0184391D19DF8281000298DD13748B9F087
S315080072C00EF8002888D14022344805AB1AA94CF09C
S315080072D003FAA04280D1F122324933484CF04EFBE2
S315080072E000287FF479AF4FF400722F4806AB2AA91D
S315080072F04CF048FA00287FF46FAF069AF12A7FF41B
S315080073006BAF28492AA8D4F021FF024600287FF44B
S3150800731063AF014624484CF031FB00287FF45CAF8C
S315080073204FF40072204807ABAAA94CF02BFAA042EA
S315080073307FF452AF15484CF08FF800283FF44CAF55
S3150800734014484CF089F800283FF446AF16484CF02C
S3150800735083F800287FF440AF4CF0FEF800287FF44D
S315080073603BAF0A484CF078F800283FF435AF094897
S315080073704CF072F800287FF42FAF0DF5956D10BD0F
S31508007380316EE595FA0800000573080001720800D9
S31508007390316EE5950673080080270F08027308000A
S315080073A07F270F088E260F080272080000000000CB
S315080073B0002370B5404C05468AB0E36318B10088CF
S315080073C023605EF037FA3D48C6F048FB3C4E3D4B1D
S315080073D0304633603C4B736059F008FE0021304656
S315080073E069F026FA32A3D3E90023A062C4E906238A
S315080073F0C1F0CEFED4E9062319431043C4E90601B9
S31508007400CDE900014FF0FF334FF0FF32A06AC6F016
S31508007410F1FB02224FF0FF31A06AC6F005FC0120FD
S315080074205DF08AFF4FF4007300222849A06AC6F06F
S3150800743032FDB0F5007F38D100239422CDE9073319
S3150800744009933C23CDE9033205939623A06A03A941
S31508007450069369F003FE35B3287C5EF069FB0546A2
S31508007460F0B9A06AC6F0E9FE5EF010FB5DF046FFD3
S3150800747020B14FF4807000215BF012FF5DF04EFFE3
S3150800748020B14FF4006000215BF00AFFC1F043FF12
S315080074900120C6F07AF80E4A0E49A06AC1F06CFEC1
S315080074A028460AB070BDFF20D7E70725F8E700BFD2
S315080074B00DD501552000000040370120690345EC31
S315080074C048080220BD51060858080220480602202E
S315080074D021910C0861910C0870B590B00E460446CF
S315080074E006A909AD81E80C000023179928460F93D1
S315080074F074F00CFE9DF858304FF0000120460495B4
S315080075000393159B02939DF850300193079B9FEDBB
S31508007510060B0093069BB268CBF057FF2846C8F0C7
S31508007520D2FB204610B070BD00000000000000002D
S3150800753070B590B00E46044606A909AD81E80C0060
S315080075400023179928460F9374F0C0FD169B4FF039
S315080075500001204604950393159B02939DF850302D
S315080075600193079B9FED060B0093069BB268CBF031
S31508007570FEFF2846C8F0A7FB204610B070BD00BF26
S31508007580000000000000000070B590B00E460446EA
S3150800759006A909AD81E80C000023179928460F9320
S315080075A077F0F8F99DF858304FF000012046049519
S315080075B00393159B02939DF850300193079B9FED0B
S315080075C0060B0093069BB268C8F0B4FE2846C8F0BE
S315080075D07AFB204610B070BD0000000000000000D5
S315080075E070B590B00E46044606A909AD81E80C00B0
S315080075F00023179928460F9377F0A2F9169B4FF0A8
S315080076000001204604950393159B02939DF850307C
S315080076100193079B9FED060B0093069BB268C8F083
S3150800762031FF2846C8F04FFB204610B070BD00BF9A
S3150800763000000000000000002DE9F04F9DB08246D2
S315080076400C464FF000080F9200224FF000091892DE
S315080076500A46179211782B293BD02CD80D2926D803
S31508007660082926D800292FD000220D92179D2A789E
S31508007670302A7DD16A7802F0DF02582A6ED1029349
S3150800768017A90D9B50468A4A019318AB009319AB6C
S3150800769087F070F810F00F0604463ED0062E1AD171
S315080076A00F9B0BB101351D6042464B4640E0202931
S315080076B0DAD10132CDE72D29D6D101210D91511C00
S315080076C017915278002AD1D10F9B002BECD01C6061
S315080076D0EAE70021F2E7189A3AB135211AA8D5F057
S315080076E061F81899504687F093FA013E199A042EC4
S315080076F006D8DFE806F022032B2E2200DDE91A89D8
S31508007700E10548BF49F0004929F000431B0D1B0558
S315080077101BB986F031FF222303600F9B13B1179B19
S315080077200F9A13600D9B002BBED0424609F1004309
S3150800773043EC102B1DB0BDE8F08FDDE91A8302F289
S31508007740334223F4801343EA0259D9E7DFF86891F4
S31508007750D6E76FF000494FF0FF38D1E7179B5A1C60
S3150800776017925B78302BF9D0002BD6D0012300E096
S315080077700023002704930A22179BCDE905770A936D
S3150800778017980578A5F13003D9B2092924D9012219
S315080077904849D4F01CFD00282DD000202A46059D16
S315080077A083460346652A01D0452A13D11DB9049A92
S315080077B0024389D00025179C621C179262782B2AEF
S315080077C06CD02D2A70D04FF0000CA2F13001092997
S315080077D078D91794002696E005990130082917905C
S315080077E0D7BF069902FB073702FB01330693059BB1
S315080077F001330593C4E7179B5A1C17925A78059BC1
S31508007800A3B383461D46A2F13003092B12D90123DF
S31508007810C8E7179B01305A1C17925A78302AF8D0B5
S31508007820A2F13103082B00F2EF8483460020179B50
S3150800783005460A93303A00F1010311D09B4400EB48
S31508007840050C2B460A219C4512D12B180135082B0D
S31508007850054419DC06990A2303FB01230693002332
S31508007860179A1846511C17915278CCE70598D5E710
S31508007870082B03F1010303DC069E4E430696E2E756
S31508007880102BD8BF4F43DEE70F2BDCBF0A2303FBC1
S315080078900727E4E74FF0000B012388E74FF0000CB9
S315080078A0A21C1792A27890E74FF0010CF8E700BFE8
S315080078B0A0F20F082F070E080000F07F179A511C38
S315080078C017915278302AF9D0A2F13101082981D8C6
S315080078D0303A0792179A0C92179A561C17965278AE
S315080078E0A2F1300EBEF1090F38D90C99761A082E76
S315080078F044F61F6603DC07998E42A8BF0E46BCF104
S31508007900000F00D07642002D4FD1049908437FF42A
S3150800791004AF002B7FF4D8AE692A29D026DC492A81
S3150800792026D04E2A7FF4D0AE9B4917A8D4F0CBFDBB
S3150800793000283FF4C9AE179B1B78282B2FD11AAA0B
S31508007940964917A8D4F0D3FD052828D11B9BDDF846
S31508007950688043F0FF4949F4E009DEE6079E0A21FC
S3150800796001FB0621A1F130020792B5E76E2AD9E795
S315080079708B4917A8D4F0A7FD00283FF4A5AE179B9E
S3150800798017A88849013B1793D4F09DFD10B9179B9A
S3150800799001331793DFF81C924FF00008BDE68248C2
S315080079A000F04EFC59EC108BB7E6A6EB0B030698D5
S315080079B02C460C93059B002B08BF2B46102D0593D0
S315080079C0A8BF102482F040F9092D8046894613DCA9
S315080079D00C9B002B3FF4A1AE0C9B78DD162B45DCE7
S315080079E07249424601EBC3014B46D1E9000182F0D8
S315080079F0A5F98046894690E66C4B03EBC40353E928
S31508007A00122382F09BF980468946384682F01CF993
S31508007A1002460B464046494681F0DAFF0F2D80465E
S31508007A208946D5DD2C1B0C9B1C44002C25DC00F05C
S31508007A30A280644214F00F020AD05C4B40464946C5
S31508007A4003EBC203D3E9002382F0A2FA80468946F3
S31508007A50241100F090801F2C40F3B28022234FF0AF
S31508007A6000084FF00009CAF8003056E6C5F12503AC
S31508007A700C9A934219DA2C1B144414F00F030AD0FB
S31508007A804A49424601EBC3014B46D1E9000182F05F
S31508007A9055F98046894634F00F046CD0B4F59A7FC0
S31508007AA041DD2223CAF8003074E7C5F10F053F4CC3
S31508007AB042464B4604EBC501D1E9000182F03EF986
S31508007AC00C9B5D1B04EBC504D4E900238FE7163332
S31508007AD0A8DBABEB0602354B4046494603EBC2032F
S31508007AE0D3E9002382F054FA83E70023069322237E
S31508007AF0DFF8C0904FF00008CAF8003018995046D1
S31508007B0087F086F80699504687F082F80599504618
S31508007B1087F07EF81099504687F07AF8079950460C
S31508007B2087F076F8F9E50023241140464946204FA8
S31508007B300493012C22DC0BB180468946049BA9F1EB
S31508007B4054791B49424601EBC3014B46D1E9000172
S31508007B5082F0F4F8174B0A4680460B4016498B42CA
S31508007B609FD8A1F580118B4286BFDFF850904FF061
S31508007B70FF3802F15479002304934CE0E20704D558
S31508007B80D7E9002382F0DAF80123049A641008374B
S31508007B9001320492CDE700BF11310E088CF20F08AE
S31508007BA086F20F0867021008CC010E08C0FF0F08FE
S31508007BB098FF0F080000F07F0000A07CFFFFEF7F12
S31508007BC014F0100340464946AA4F18BF6A23049387
S31508007BD00023E20704D5D7E9002382F0AFF8012392
S31508007BE0641007F10807F4D10BB180468946049B57
S31508007BF043B1C9F30A524946C2F16B03002B4EDC66
S31508007C006A230493002200234046494682F0FEFA7E
S31508007C1000287FF423AF069B5046059A00932B460F
S31508007C200A9987F05FF8109000283FF43AAF0C9B4A
S31508007C30ABEB060B002BB4BF5B46002311930C9BE2
S31508007C4023EAE3731593002307930593109B504685
S31508007C50596886F09DFF069000283FF448AF109BB0
S31508007C600C301A6903F10C0102329200D4F09AFB27
S31508007C701AAA19A9504649EC108BCDE90A8987F04A
S31508007C800DFB189000283FF432AF0121504687F0CB
S31508007C9073F803460590D0B90023059327E71F2BF1
S31508007CA00EDD342B4FF00008DBBF4FF0FF33C2F177
S31508007CB04B024FF05C799340D8BF03EA01099FE76E
S31508007CC04FF0FF3202FA03F303EA080898E7199C13
S31508007CD01A9A002CA9BF119B159BE718159EB8BFC9
S31508007CE01E1B049BB8BF119FE41A634B1444C2F1D0
S31508007CF03602013C9C4280F2B0801B1B01251F2BDB
S31508007D00A2EB0302CDBFC4F17F449D40002404F5D5
S31508007D107F04C2BF04F57B44E23405FA04F407EB9A
S31508007D20020B049B16445F451E443B46A8BF5B46B0
S31508007D30B342A8BF3346002BC2BFABEB030BF61A00
S31508007D40FF1A119B002B16DD1A460599504687F037
S31508007D50D3F8059000289FD00146189A504687F018
S31508007D6021F80E9000283FF4C2AE1899504686F0C6
S31508007D704FFF0E9B1893BBF1000F71DC0C9B002B79
S31508007D8008DD159A5046069987F0B6F80690002839
S31508007D903FF4ABAE002E08DD32460699504687F012
S31508007DA005F9069000283FF4A0AE002F08DD3A46F4
S31508007DB00599504687F0FAF8059000283FF497AEE3
S31508007DC0069A5046189987F05DF9079000283FF4FF
S31508007DD08EAEC36805990E930023C360D4F095FC54
S31508007DE000284BDA0E9B53EA080340F0BD80C9F31E
S31508007DF01303002B40F0B88029F000431B0D1B0528
S31508007E00B3F1D66F40F2B080079B5B6923B9079B35
S31508007E101B69012B40F3A88001220799504687F079
S31508007E20C5F805990790D4F070FC002840F39C80AB
S31508007E3029F00043049A1B0D1B05002A7AD0B3F1DA
S31508007E40D66F6ED8B3F15C7F46D84FF000084FF076
S31508007E5000092223CAF8003050E6002401255EE70F
S31508007E605A461899504687F0A1F81890002885D1E7
S31508007E703DE600BFB8F20F0802FCFFFFCB4640F014
S31508007E80A4800E9AC9F31303002A41D09C4A934250
S31508007E9059D1049B42467BB9B8F1FF3F40F08A802E
S31508007EA0984B99453FF423AE974BDDF8108009EAC5
S31508007EB0030303F5801921E6934B09EA0303B3F19B
S31508007EC0D46F17D918F101011CD18E4A91453FF498
S31508007ED00EAE03F5801980468C4B40464946002273
S31508007EE081F02CFF884B804689460B40002B7FF497
S31508007EF005AEAEE71E0D4FF0FF31C6F16B06B14079
S31508007F008845E6D0002C5ED014EA0B0FE4D01EE0BC
S31508007F10002B4AD1B8F1000F8AD064B314EA0B0FCC
S31508007F202BE0A3F580134FF0FF386FEA13596FEA79
S31508007F300959D1E7A3F580134FF0FF386FEA1359B3
S31508007F406FEA0959DAE59CB114EA090F0CD04046E4
S31508007F504946049AD3F044FBDDE90A0153EC102B99
S31508007F6081F036FD80468946049B002BB4D1C5E5D1
S31508007F7015EA080FEAE718EA050FF5D0049A40460D
S31508007F804946D3F02DFBDDE90A0153EC102B81F0AD
S31508007F901DFD0022002304460D4682F037F900280D
S31508007FA07FF453AFA046A946DEE7002CB6D115EA02
S31508007FB0080FE2E724B114EA090F3FF49FADC6E7BC
S31508007FC018EA050FF9E72A42A0E705990798D4F0B9
S31508007FD0B7FB00224FF0804355EC104B204629464C
S31508007FE082F028F900286DD00E9B002B78D1B8F1C5
S31508007FF0000F56D1C9F31303002B59D10022444B65
S315080080002046294682F00CF9002858D120462946F0
S315080080100022404B81F092FE04460D4605F10043CE
S3150800802008940993384B0BEA03031493149A3A4BB2
S315080080309A42DDE9086740F0A880ABF1547949EC2B
S31508008040108B87F0B7F8DDE9082351EC100B81F0A7
S3150800805075FE42464B4681F0BBFC0B462A498046D4
S315080080602E4A194091425BD90B9A264B9A4203D164
S315080080700A9B01333FF43BADDFF888904FF0FF3899
S315080080801899504686F0C4FD0699504686F0C0FDFC
S315080080900599504686F0BCFD0799504686F0B8FD0E
S315080080A0D4E5B8F1010F03D1B9F1000F3FF4CDAE15
S315080080B00024174D9FED0E7B8DED087BB2E700245B
S315080080C0144DABE7134B20462946002281F036FEB5
S315080080D00E9B04460D46002BA0D0CDE90845A1E726
S315080080E09FED057B55EC174B8DED087B9AE700BF96
S315080080F0000000000000F0BF000000000000F03F94
S31508008100FFFF0F00FFFFEF7F0000F07F00005039F0
S315080081100000F03F0000E03F0000E07FFFFF9F7C8B
S3150800812003F15479049B4E46002BA9D129F000434C
S31508008130149A1B0D1B059A42A2D12046294687F0A0
S315080081407DFEC9F3130681F0CBFD0B460246294690
S31508008150204646EA080681F039FC0E9B04460D4681
S315080081601E434BD02EA3D3E9002382F059F80028EA
S315080081707FF4C4AC204629462BA3D3E9002382F01A
S315080081806DF800283FF47CAFB8E4049B13B3149B46
S31508008190B3F1D46F1ED82046294625A3D3E9002378
S315080081A082F048F890B12946204682F061F8012805
S315080081B038BF012081F048FD0E9B04460D46D3B911
S315080081C001F1004312901393DDE9126707F1D663B4
S315080081D0149A9F1A9DED0A0B86F0ECFF3046394635
S315080081E053EC102B81F0AAFDDDE90A2381F0F0FBA0
S315080081F08046894696E7CDE91245E5E70EA3D3E919
S31508008200002382F00DF8BCE7652A3FF443AB452A04
S315080082103FF440AB0123FFF778BB00BFAFF3008004
S315080082209535A094FFFFDF3F35E5AF350000E03F09
S315080082300000C0FFFFFFDF419535A094FFFFCF3F49
S315080082409FED010B704700BF000000000000F87F9B
S315080082502DE9F04F1E46D3B000238B46069019939E
S315080082600B9287F0A9FD03681B781693BBF80C30B0
S315080082701F0615D5DBF8103093B940210698A0F0F3
S315080082803BFBCBF80000CBF8100030B90C23069A5C
S3150800829013604FF0FF330E9315E14023CBF81430EB
S315080082A000239FED917B0F9313930E938DED0C7B1B
S315080082B00B9B1C4653F8042B0AB1252AF9D10B9BB4
S315080082C0A3420DD0E51A0B9A594606982B46D4F0C8
S315080082D03FFB013000F0F2800E9B03EBA5030E93E3
S315080082E02368002B00F0EA800022231D4FF0FF349C
S315080082F015461592099253F8042B07920B93079B80
S31508008300392B72D81F2B40F24283079B203B192B2F
S3150800831000F23D83DFE813F073003B033B0378006C
S315080083203B033B033B033B033B033B037C008600C9
S315080083303B03830088003B03A300A600A600A60013
S31508008340A600A600A600A600A600A600332B00F2EB
S315080083501E83DFE813F0F0001C03F0001C031C0367
S315080083601C031C039A001C031C031C031C031C038C
S315080083701C031C031C031C031C031C03D4021C0340
S315080083801C031C031C031C031C031C031C031C03E7
S315080083901C03A300CF00F000F000F0009D00CF0002
S315080083A01C031C03A0001C03410258026702A0001C
S315080083B01C0376021C03C8021C031C0334004C4B26
S315080083C032460F93E80652F8043B089202D469062F
S315080083D048BF9BB2EA0706D52BB1302245F0020505
S315080083E01A92079A1B92022215E2079B453B332BEA
S315080083F0ACD9079B08962A93002315936BE0159B27
S3150800840023B92023159301E045F001050B9B72E77C
S3150800841056F8043B002B0993F8DA5B42099345F0BA
S315080084200405F3E72B23EDE70B9B53F8042B2A2AC5
S31508008430079211D156F8044B0B9344EAE474E5E726
S3150800844001FB042453F8042B0792079A303A092AA9
S31508008450F6D944EAE47451E700240A21F5E745F021
S315080084608005D3E700230993079B0A21099A303B25
S3150800847001FB023309930B9B53F8042B0B93A2F1D0
S3150800848030030792092BEFD939E745F00805BDE710
S3150800849045F04005BAE745F01005B7E73346EE065E
S315080084A053F8040B089312D483F01EF9441C0ED11A
S315080084B0BBF90C3043F04003ABF80C30BBF80C307A
S315080084C059063FF5E6AE0E9853B0BDE8F08F002387
S315080084D02A902B931593984601241F461E460DF1A4
S315080084E0A80908E1AFF300800000000000000000C2
S315080084F0F40010083246E90652F8043B089202D402
S315080085006A0648BF1BB2002B80F238845B422D21D5
S315080085100122671C159100F0F781294625F0800590
S31508008520002B40F0F181002C00F02982012A40F04E
S31508008530EE8100F029BC07364FF0FF3226F007031C
S31508008540B3EC027B8DED0C7B08930C9B10930D9B73
S3150800855023F000431193A34BDDE9100187F030FCAB
S31508008560F0B94FF0FF329F4BDDE9100181F062FE52
S31508008570B0B900220023DDE90C0181F051FE08B1F3
S315080085802D231593984A994B079925F080054FF0A6
S3150800859000080324472994BF914699464746D3E1E4
S315080085A0DDE90C231046194687F00AFC38B10D9B05
S315080085B08F4A002BBCBF2D2315938E4BE4E7631C13
S315080085C051D0079B23F02003472B02D1002C08BF6C
S315080085D0012428230DF1A80845F4807A19AF0493DD
S315080085E018AE079B524621460698019317ABCDF85D
S315080085F00C80029700969DED0C0BD4F0E0FB4045ED
S31508008600814632D1199B282B2FDD990006980A93AB
S31508008610A0F072F90A9B804600283FF449AF5246FB
S3150800862021460297CDE90303079B0698CDE9006327
S315080086309DED0C0B17ABD4F0C2FB8146079B189E29
S3150800864023F02003472B40F08C80F71C10DBB44244
S3150800865080F29C80079B023B0793731E079A189328
S315080086601C922B220EE00624B3E74FF00008E5E73C
S31508008670079B023B0793731E1893079B1C93C6F12F
S3150800868001032D22092B1D927ADD2AA90A260A46FC
S315080086900439B3FBF6F406FB1430303042F8040C08
S315080086A0184623466328F2DC3033A2F1080041F865
S315080086B0043C1DAB2AA988425DD30DF1B3039B1A6E
S315080086C00B3A23F003038A4288BF00231EAAD41854
S315080086D01CABE41AA3101393199B012B03EBA404F8
S315080086E002DC15F0010601D001340026179B002B89
S315080086F06FD155460027A7423B46159905F0020259
S31508008700B8BF23460A9305F08403002940F0448144
S315080087101293002A40F09581002B40F0CE81DDE9C6
S315080087200932A3EB020ABAF1000F40F36081BAF1ED
S31508008730100F314A00F3B7814FEA8A032E4A594689
S315080087400698D4F005F9013000F08881159B002BB6
S3150800875040F09981129B002B00F049814FF0000AE6
S3150800876074E1079B662B1BD0731E079A002B189380
S315080087701C9284DB75E750F8044B43F8044F9AE7DC
S31508008780302220AC13441E921F93A1E7199B9E42E8
S3150800879013DA002ED4BFC6F1020401241C440FE0EC
S315080087A005F00105002E45EA040503DD5DB1013437
S315080087B034449BE74DB1023498E7EC0707D5741C9F
S315080087C06723079392E7344690E701248EE73446F9
S315080087D0F6E72D2315938CE7E80633680E9A0DD530
S315080087E01A600EE0FFFFEF7FB4001008C4001008FF
S315080087F0D4001008E4001008C40110086906EFD573
S315080088001A80043654E5324615F0100152F8043B36
S31508008810089202D0002200217BE615F04002FAD029
S315080088209BB2F7E73246782145F0020552F8043B39
S31508008830079108923022CDE91A21AB4A0F920222FB
S31508008840E9E73346002715F0100653F8049B1597F9
S3150800885008932FD1621C16D0224631464846A246B6
S31508008860D3F092FD08B1A0EB090ABAF1270F0FD988
S315080088700AF1010106988900A0F03EF800283FF4A5
S3150800888017AE804607E04846D3F099FD8246ECE7E6
S315080088904FF000082AA8544600239A4504D1002719
S315080088A0814640F82A7026E719F8032040F8232065
S315080088B00133F2E7631C11D0224639464846D3F005
S315080088C0F3FC804600283FF469AEA0EB09084FEA9E
S315080088D0A8084445A8BF4446B8465FE64846D3F0CC
S315080088E0D8FC0446F8E73246EF0652F8043B0892ED
S315080088F001D501228FE76E0648BF9BB2F9E77B4B8D
S315080089005EE52946012209E6012A00F03A82022A92
S315080089100DF5A47929D003F00702DB08494602F1D0
S31508008920300249F8042DF6D1EE0706D5302A04D0D0
S31508008930302349F8043CA1F1080952AB27464FF009
S315080089400008A3EB09039C104646D4E60DF5A47966
S315080089500A20B3FBF0F100FB1132303249F8042D3E
S315080089601A460B46092AF4D8E7E703F00F020F99CF
S315080089701B0951F8222049F8042DF6D1DDE71AB96A
S31508008980C80701D5302300E20DF5A479D5E7079B82
S31508008990002B7FF42EAD91E59A461292002A66D0F6
S315080089A00A9A03320A92002B7AD0042315AA59464A
S315080089B00698D3F0CDFF013050D0129B002B45D13D
S315080089C0BAF1800F13D1DDE90932A3EB020ABAF135
S315080089D0000F0CDDBAF1100F454A70DC4FEA8A0326
S315080089E0434A59460698D3F0B3FF013036D03F1BA9
S315080089F0002F0BDDDFF8F8A0102F6ADCBB003C4A1D
S31508008A0059460698D3F0A4FF013027D0E90571D45A
S31508008A10A3004A4659460698D3F09AFF01301DD05E
S31508008A206A0700F18881B8F1000F40F0A2810E9B19
S31508008A30089EDDE909218A42ACBF9B185B180E9394
S31508008A4036E40A9902310A9103B39A4608231AAA08
S31508008A5059460698D3F07CFF0130B1D1B8F1000F22
S31508008A603FF42CAD414606989FF049FF26E50A9A41
S31508008A7001320A92002B98D1099BA3EB020ABAF19C
S31508008A80000F3FF754AE4FF0000A8EE7DDE90931D3
S31508008A90A3EB010ABAF1000F7FF760AE129246E621
S31508008AA0DDE90932E9E7402359460698D3F050FF35
S31508008AB00130D3D0AAF1100A39E69A4680E7402356
S31508008AC059460698D3F044FF0130C7D0AAF1100AD8
S31508008AD080E74023524659460698D3F039FF0130BD
S31508008AE0BCD0103F88E700BFF40010083801100812
S31508008AF084011008079B652B40F2DD8000220023C5
S31508008B00DDE90C0181F082FB58B30423A14A5946DA
S31508008B100698D3F01DFF0130A0D0DDE91834A34232
S31508008B2002DBEB077FF57CAF042316AA59460698A5
S31508008B30D3F00EFF013091D0013C002C7FF770AFC7
S31508008B40954E102C02DCA300934A63E74023324675
S31508008B5059460698D3F0FCFE01303FF47FAF103C2F
S31508008B60EFE7189B002B36DC04238A4A59460698F9
S31508008B70D3F0EEFE01303FF471AF05F00102DDE9F6
S31508008B801836334313433FF44BAF042316AA59460A
S31508008B900698D3F0DDFE01303FF460AF189C002C38
S31508008BA00CDA64427C4F102C0ADCA3007A4A594638
S31508008BB00698D3F0CDFE01303FF450AFB30028E756
S31508008BC040233A4659460698D3F0C2FE01303FF490
S31508008BD045AF103CE7E7199C44F31D0AA300B245CC
S31508008BE00793A8BFB246BAF1000F21DCBAF1000F0D
S31508008BF0ACBFA6EB0A073746002F0CDDDFF898A1B5
S31508008C00102F1FDCBB00644A59460698D3F0A0FE15
S31508008C1001303FF423AF189BB6009C421DDD0423A8
S31508008C2016AA59460698D3F093FE013017D115E7D0
S31508008C304FEA8A034A4659460698D3F089FE013018
S31508008C40D4D10BE74023524659460698D3F080FE06
S31508008C5001303FF403AF103FD2E7EF07DFD4079B9D
S31508008C60189F9B1BE71B9B109F42A8BF1F46002F00
S31508008C7009DDBB0009EB060259460698D3F068FEE3
S31508008C8001303FF4EBAE189B002FA4EB0304A8BFFA
S31508008C90E41B002C7FF7C4AE3F4E102C7FF753AF72
S31508008CA04023324659460698D3F052FE01303FF427
S31508008CB0D5AE103CF1E7199E04234A465946012EC3
S31508008CC0069801DCEC071AD5D3F042FE01303FF4D2
S31508008CD0C5AE042316AA59460698D3F039FE0130C4
S31508008CE03FF4BCAE00220023741EDDE90C0181F0BE
S31508008CF08DFA68B9A30009F1040259460698D3F01B
S31508008D0027FE01303FF4AAAE139B1CAA9B0081E6FE
S31508008D10012EF9DD204E102C02DCA3001E4AECE7DA
S31508008D204023324659460698D3F012FE01303FF4E6
S31508008D3095AE103CEFE7DDE909329C1A002C7FF767
S31508008D4072AE164D102C09DCA300144A5946069833
S31508008D50D3F0FEFD01307FF466AE7FE640232A4657
S31508008D6059460698D3F0F4FD01303FF477AE103C2F
S31508008D70E8E7414606989FF0C2FD58E6621C7FF474
S31508008D80C0AD092B3FF6E2AD30330DF5A27951930C
S31508008D90D3E500BF7C01100884011008C40110083F
S31508008DA02DE9F04FC76997B08346209E08910C922B
S31508008DB0129355EC104B8DED000B7FB910209FF0E8
S31508008DC091FD0246CBF81C0020B9A74BEF21A74816
S31508008DD082F0C8F9C0E901770760C760DBF81C3084
S31508008DE0196859B15A680123584693404A608B60FE
S31508008DF085F00EFFDBF81C3000221A602B1EB7BF69
S31508008E0023F00043002301220193A8BF3360019F8A
S31508008E10974BB8BF3260BB4319D142F20F73129A0F
S31508008E201360C7F31303234300F0DB85219B53B973
S31508008E30904B21E0904B03930833219A13600398D3
S31508008E4017B0BDE8F08F8B4B03930333F5E79DED21
S31508008E50007B0022002351EC170B8DED0A7B81F075
S31508008E60D5F9804650B10123129A1360219B13B19C
S31508008E70824B219A1360824B0393E0E7C7F30A56A5
S31508008E8014AA15A958469DED0A0B86F007FA029012
S31508008E90002E76D00B9BA6F2FF36CDF84C80C3F396
S31508008EA0130343F07F53DDE90A0143F440131946DF
S31508008EB00022744B80F08AFD65A3D3E9002380F075
S31508008EC03DFF65A3D3E9002380F082FD04460D46E5
S31508008ED0304680F0C9FE62A3D3E9002380F02EFF56
S31508008EE002460B462046294680F072FD04460D468A
S31508008EF086F07CFF0022074600232046294681F09B
S31508008F008FF940B1384680F0AFFE22462B4681F0F5
S31508008F107DF900B9013F162F52D85B4B03EBC70307
S31508008F20DDE90A01D3E9002381F07AF9002849D05E
S31508008F30013F00231193149B9B1B5A1E4CBFC3F180
S31508008F4001030023079245BF069300230693079360
S31508008F50002F39DB079B10973B440793002309939F
S31508008F60089B092B66D8052BC5BF043B00240124A2
S31508008F700893089B023B032B67D8DFE803F02D3ADA
S31508008F803859DDE914631E4406F23243202BC9BF63
S31508008F90C3F14003C3F120039F4006F21243D8BF32
S31508008FA004FA03F006F1FF36C4BF24FA03F347EACE
S31508008FB0030080F049FE0122A1F1F873139276E7C7
S31508008FC00123B7E71190B6E7069BDB1B06937B42A6
S31508008FD0099300231093C3E700230D930C9B002BE2
S31508008FE056DC012399461A4604930C920CE0012399
S31508008FF0F3E700230D930C9BFB1803F10109049377
S315080090004B46012BB8BF0123DBF81C0000210422C4
S3150800901002F114059D423FD94160584685F0B8FDD6
S31508009020039000283BD1194B024640F2AF11CEE619
S315080090300123DFE7012400230D9408934FF0FF3343
S315080090400022994604931223CFE701230D93F5E7EF
S3150800905061436F63A787D23FB3C8608B288AC63F30
S31508009060FB799F501344D33F16F20F08710210087C
S315080090700000F07F6D0210086402100841F90D081F
S3150800908040F90D080000F83FC0FF0F08C0FE0F08A2
S315080090900C9B99460493B7E701315200B8E7DBF811
S315080090A01C30B9F10E0F039A1A606FD8002C6DD0D8
S315080090B0002F36DD07F00F02A04BF8054FEA2714FC
S315080090C003EBC20393ED007B8DED0E7B17D59C4B0E
S315080090D004F00F044FF00308D3E90823DDE90A0179
S315080090E080F056FFCDE90001954D5CB9DDE90E2308
S315080090F0DDE9000180F04CFFCDE900012BE04FF0DF
S315080091000208F1E7E10709D508F10108DDE90E01D2
S31508009110D5E9002380F012FECDE90E01641008356A
S31508009120E3E700F007817C42844B854D4FF0020847
S3150800913004F00F02241103EBC203DDE90A01D3E9A7
S31508009140002380F0FBFD0023CDE90001002C40F050
S31508009150E580002BD0D1119BDDE90045002B00F0FE
S315080091604C810022774B2046294681F059F8002881
S3150800917000F04381B9F1000F00F03F81049B002BFA
S3150800918000F3E480DDE90A34CDE90034159B002BB1
S3150800919002DB0E2F40F342820D9A002A40F06782C6
S315080091A0099C0025DDF81880B8F1000F0DD0079B43
S315080091B0002B0ADD4345069AA8BF4346D21AA8EBF8
S315080091C003080692079AD31A0793099B0BB30D9BBC
S315080091D0002B00F0A682002C00F0A1822946224628
S315080091E0584685F089FE029A01460546584685F096
S315080091F0D9FD02990646584685F00AFD099B1B1BB0
S31508009200099300F09182099A3146584685F074FE12
S3150800921002900121584685F0AFFD109B0446002BAD
S3150800922000F084821A460146584685F065FE089B7A
S315080092300446012B03DC009B002B00F07C820026F1
S31508009240236904EB83031869D3F010FAC0F12000F0
S315080092501096079B184410F01F0000F09182C0F189
S315080092602003042B40F38182C0F11C00069B0344B3
S3150800927080440693079B03440793069B002B05DD52
S315080092801A460299584685F091FE0290079B002BD4
S3150800929005DD21461A46584685F088FE0446119B88
S315080092A0002B00F0768221460298D3F02EFA002889
S315080092B080F26F8200230A220299584685F0CAFC7A
S315080092C00D9B7E1E0290002B00F05C82002329462F
S315080092D00A22584685F0BEFC049B0546002B03DC93
S315080092E0089B022B00F35E82B8F1000F05DD2946C4
S315080092F04246584685F05AFE0546109B002B00F05C
S31508009300D0826968584685F043FC0746002840F035
S315080093107F820D4B024640F2EF2158E5E20706D55B
S3150800932008F10108D5E9002380F008FD012364103F
S3150800933008350BE74FF002080DE700BFC0FF0F081E
S3150800934098FF0F080000F03FC0FE0F0820460022D5
S31508009350AC4B294680F0F2FC7E1E08F10108049CFD
S31508009360CDE90001404680F07FFCDDE9002380F06E
S31508009370E5FCA54B002280F02BFBA1F15073CDE94B
S315080093800E010F93002C3BD10022A04BDDE9000112
S3150800939080F01CFB02460B46CDE90023DDE90E23CF
S315080093A080F05CFF002840F05781DDE90E2101F1CD
S315080093B00043DDE9000180F033FF00283FF4E2AE08
S315080093C0002425460C9BDDF80CA0DE434FF0000870
S315080093D02146584685F01CFC002D00F0A980B8F1FE
S315080093E0000F05D0A84503D04146584685F010FC25
S315080093F02946584685F00CFC9AE03E464C46B1E7AD
S31508009400834B03EBC40353E90201039B1C440D9BE6
S31508009410002B4AD002460B4600207E4980F0B8FD54
S31508009420DDE90E2380F0D2FADDF80CA0CDE90E01B5
S31508009430DDE9000186F0DAFC054680F015FC0246F7
S3150800944030350B46DDE9000180F0C0FA0AF8015B09
S3150800945002460B46CDE90001DDE90E0180F0FEFE6D
S31508009460002865D100206C49DDE9002380F0AEFABA
S3150800947002460B46DDE90E0180F0F0FE002840F0BA
S315080094800D81A24500F0EA8000225E4BDDE90E015F
S3150800949080F054FC00225B4BCDE90E01DDE90001AA
S315080094A080F04CFCCDE90001C2E7DDE90E2380F02F
S315080094B045FCA046DDF80CA0CDE90E01DDE900016A
S315080094C086F094FC054680F0CFFB024630350B4605
S315080094D0DDE9000180F07AFA0AF8015B02460B46DC
S315080094E0A245CDE900234FF0000223D1494BDDE91F
S315080094F00E0180F06DFA02460B46DDE9000180F0A8
S31508009500ADFE002840F0CA8000204249DDE90E235E
S3150800951080F05CFA02460B46DDE9000180F080FE29
S3150800952070B1C24608F1FF381AF8013C302BF8D062
S31508009530374655E0334B80F001FCCDE90001BDE725
S31508009540DDE90A34CDE90034159B002BFFF628AE79
S315080095500E2F3FF725AE2E4B03EBC70393ED007B8B
S315080095600C9B002B8DED047B02DAB9F1000F64D059
S31508009570DDF80CA0DDE90045DDE90423204629468F
S3150800958080F006FD86F032FC064680F06DFBDDE9CC
S31508009590042380F0D3FB0246204606F130040B462E
S315080095A0294680F013FA0AF8014B039C02460B463B
S315080095B0AAEB0404A14540F0828080F009FA04462B
S315080095C00D46DDE9042380F049FE002865D12046D2
S315080095D02946DDE9042380F019FE08B1F3075CD4B7
S315080095E00299584685F014FB002301378AF80030A3
S315080095F0129B1F60219B002B3FF421ACC3F800A0EF
S315080096001DE400BF0000244000001C400000144078
S31508009610C0FF0F080000E03F0000F03FA24B03EB3D
S31508009620C70393ED007B0C9B002B8DED047B9FDA23
S31508009630B9F1000F9CDC7FF4C3AE00229B4BDDE939
S31508009640040180F07BFBDDE9002380F0FDFD044684
S3150800965000287FF4B5AE3E462546B4E0DDE90A3477
S31508009660CDE90034159B002B01DB0E2FD6DD089AB9
S31508009670012A36DC139A82B303F23343099CDDF8D8
S315080096801880069A012158461A440692079A1A44DF
S31508009690079285F071FB054686E53E4653469A468F
S315080096A013F8012D392A06D1039A9A42F7D13022A6
S315080096B0039901360A701A7801321A7038E70022BF
S315080096C07B4B80F03BFB0022002304460D4680F0CE
S315080096D09DFD00283FF450AF82E7149BC3F1360383
S315080096E0CCE709F1FF34099BA34208DBB9F1000F67
S315080096F0A3EB04040EDBDDF818804B46C1E7099B93
S31508009700109AE31A0994DDF8188000241A444B4687
S315080097101092B6E7069BA3EB09080023B1E7029E61
S3150800972071E5099A029970E5029672E5089B012B84
S3150800973017DC009BABB9019BC3F313039BB9019BD1
S3150800974023F00046360D360536B1069B0126013351
S315080097500693079B01330793109B002B7FF470AD8C
S315080097601096012075E50026F6E73FF486AD1C3312
S31508009770069A1A4498440692079A1A4407927CE570
S315080097800346F4E7049B002B2BDC089B022B09DC21
S3150800979027E0B9F1000F1DDC089B022B1ADD3E46B7
S315080097A0CDF81090049B002B7FF40CAE21460522C1
S315080097B0584685F04FFA014604460298D2F0A5FFAE
S315080097C000287FF7FFADDDF80CA0312301360AF833
S315080097D0013BFBE50D9B3E46CDF81090002B7FF430
S315080097E083AD039F21460298D3F05FFB039B00F1EC
S315080097F03009049A07F8019BFB1A9A4240F3CB807A
S3150800980000230A220299584685F024FA0290E9E7CD
S315080098102A6905F10C010C3002329200D2F0C2FD21
S3150800982001223946584685F0C1FB039BA8460546E2
S3150800983003F1010ADDE9032313440793009B03F0B0
S31508009840010309930AF1FF33214602980493D3F0E2
S315080098502CFB4146069000F130090298D2F055FFDC
S315080098602A4621460746584685F00CFCC26801463A
S3150800987002B3584685F0CCF9002F3ADA012202994C
S31508009880584685F093FB21460290D2F03EFF002809
S3150800989003DC29D119F0010F26D0B9F1390F1DD1F2
S315080098A032E02846C1E700BFC0FF0F080000144099
S315080098B0000024400A900298D2F027FF0A990C90DB
S315080098C0584685F0A5F90C9A5ABB089B53B9099BCB
S315080098D043B9B9F1390F17D0002F05DD069B03F1FF
S315080098E0310901E0002F2ADADDF810A00AF8019BF9
S315080098F06EE5089B3B4304D1009B03F00103002B54
S31508009900BCD0B9F1390F36D1049F392307F8013B8A
S31508009910BA46013F1AF8013C392B5AD001333B703D
S3150800992056E5002F06DB089B3B4306D1009B03F058
S31508009930010313B9002AA1DCD6E7002AE1DC079B5C
S3150800994057460AF8019C53452ED000230A2202994D
S31508009950584685F07FF9A84502904FF000034FF06E
S315080099600A02414658460BD185F074F980460546E9
S315080099700AF1010A66E7DDF810A009F10109B5E761
S3150800998085F068F92946804600230A22584685F05C
S3150800999061F90546ECE7049B4FF00008002BCCBFA5
S315080099A01F460127039B1F4401220299584685F04A
S315080099B0FDFA21460290D2F0A8FE0028A8DC02D1C2
S315080099C019F0010FA4D1BA4617F8013D302BFAD089
S315080099D0FEE4039BBB429BD13123039A01361370E5
S315080099E0F6E4219B002B7FF425AA014BFFF744BA26
S315080099F0640210080348044B834202D0034B03B1A8
S31508009A00184770476C2B00206C2B002000000000C4
S31508009A10064B0749C91A891048BF0131491003D0B6
S31508009A20044B0BB101481847704700BF6C2B002048
S31508009A306C2B00200000000010B5064C237843B9B3
S31508009A40FFF7D8FF044B13B10448AFF30080012396
S31508009A50237010BDCE2A022000000000CC02100898
S31508009A6008B5054B1BB105490548AFF30080BDE8AD
S31508009A700840FFF7CDBF00BF00000000B83C01203A
S31508009A80CC021008A3F5803A704700BF174B002B8D
S31508009A9008BF134B9D46FFF7F5FF00218B460F467F
S31508009AA01348144A121AD2F07BFB0E4B002B00D037
S31508009AB098470D4B002B00D0984700200021040042
S31508009AC00D000D48002802D00C48D1F078FD84F02E
S31508009AD059FD20002900BCF049FE81F061FB00BF5A
S31508009AE0000008000000000000000000001200202E
S31508009AF06C2B0020001C0320BFB50D0800000000D9
S31508009B0010B5224C03F0FEFF236F23F0070343F042
S31508009B100203236789F083FBD4F82031002023F061
S31508009B20070343F00103C4F82031D4F8283123F0A1
S31508009B30070343F00103C4F82831D4F8403123F071
S31508009B40030343F00203C4F84031D4F8603123F02C
S31508009B50030343F00203C4F86031D4F8403223F01B
S31508009B60030343F00203C4F84032D4F8003223F06A
S31508009B70070343F00203C4F80032D4F8083223F08E
S31508009B80070343F00203C4F8083210BD00800050F2
S31508009B9008B5044889F056F9BDE80840024889F036
S31508009BA051B900BFB8D20D08A0D20D0808B50448AF
S31508009BB089F076F9BDE80840024889F071B900BF16
S31508009BC0E8D20D08D0D20D0818B1034B1860002052
S31508009BD070472520704700BFD03C012010B5054CC2
S31508009BE00549206802F0AEFE2068BDE81040FFF780
S31508009BF0EBBF00BF981300206C12002070B58B686D
S31508009C000646012B0D4614468CB025D0022B33D0C0
S31508009C10002B3ED119461C2205A8D2F0C1FA2146CE
S31508009C2005A886F069FE044638B92946304605AACD
S31508009C3031F0F0F900283ED1044629463046002383
S31508009C408522A1F0DEF9234602211D201B4A0CB00D
S31508009C50BDE87040B5F0CFBB0023114605A8ADF8A6
S31508009C60143086F082FE04460028E6D1294630469E
S31508009C7005AA31F05BFADDE7114605A886F077FEFE
S31508009C8004460028D9D12946304605AA31F0B6FA45
S31508009C90D0E700238122A1F0B4F9D5E9012391B2D6
S31508009CA0120C01929AB20291009201211D20044AD7
S31508009CB01B0CB5F0A0FB0CB070BD00BF34D30D086B
S31508009CC000D30D0870B58B6806460C4688B0F3B904
S31508009CD0114604A8ADF810308DF8143000F008FFCE
S31508009CE0054628B92146304604AAA6F0CBFE00BB95
S31508009CF02146304600238522A1F083F92B4602210E
S31508009D001D200D4A08B0BDE87040B5F074BB0023AD
S31508009D108122A1F076F9D4E9012391B2120C0192BD
S31508009D209AB20291009201211D20044A1B0CB5F03B
S31508009D3062FB08B070BD00BF34D30D0800D30D0810
S31508009D4070B58B6806460C4686B0D3B9114605A889
S31508009D5086F000FD054628B92146304605AAA6F034
S31508009D60D2FE00BB2146304600238522A1F049F9E0
S31508009D702B4602211D200D4A06B0BDE87040B5F0FD
S31508009D803ABB00238122A1F03CF9D4E9012391B220
S31508009D90120C01929AB20291009201211D20044AE6
S31508009DA01B0CB5F028FB06B070BD00BF34D30D08F8
S31508009DB000D30D0870B58B680646022B0D4614466F
S31508009DC08AB026D0042B36D0002B41D10022ADF81C
S31508009DD010300023214604A8CDE9062386F0D1FBDE
S31508009DE0044638B92946304604AA32F019FB002839
S31508009DF040D104462946304600238522A1F001F9C0
S31508009E00234602211D201C4A0AB0BDE87040B5F061
S31508009E10F2BA1822002104A8D2F0C2F9214604A8F1
S31508009E2087F019FC04460028E4D12946304604AADE
S31508009E3032F002FCDBE7114604A886F0CBFB0446A9
S31508009E400028D7D12946304604AA32F05FFBCEE770
S31508009E5000238122A1F0D5F8D5E9012391B2120C8D
S31508009E6001929AB20291009201211D20034A1B0C0D
S31508009E70B5F0C1FA0AB070BD34D30D0800D30D0889
S31508009E8070B58B6806460C4688B003BB00200021D7
S31508009E90CDE90601114604A8CDE9043386F09DFBF9
S31508009EA0054628B92146304604AA32F077FE00BB9B
S31508009EB02146304600238522A1F0A3F82B4602212D
S31508009EC01D200D4A08B0BDE87040B5F094BA0023CD
S31508009ED08122A1F096F8D4E9012391B2120C0192DD
S31508009EE09AB20291009201211D20044A1B0CB5F07A
S31508009EF082FA08B070BD00BF34D30D0800D30D0830
S31508009F0070B50D46AB68064611469CB0042B5BD867
S31508009F10DFE803F003305A3F4E00002304A8ADF8EB
S31508009F2010308DF812308DF814308DF820308DF8F9
S31508009F3030308DF840308DF850308DF8603088F02C
S31508009F40B0F8044638B92946304604AA32F03AFF32
S31508009F5000284CD104462946304600238522A1F024
S31508009F6050F8234602211D20224A1CB0BDE8704045
S31508009F70B5F041BA002304A8ADF8103086F06FFD9D
S31508009F8004460028E7D12946304604AA33F032F8B9
S31508009F90DEE7002304A8ADF8103086F062FD04461B
S31508009FA00028D8D12946304604AA32F0F5FFCFE773
S31508009FB004A886F058FD04460028CCD12946304628
S31508009FC004AA33F071F8C3E7002381222946A1F0D9
S31508009FD018F8D5E9012391B2120C01929AB20291AE
S31508009FE0009201211D20044A1B0CB5F004FA1CB08E
S31508009FF070BD00BF34D30D0800D30D0870B58B684B
S3150800A00006460D46144694B0052B79D8DFE803F0CA
S3150800A0100325354959660023214604A8CDE90533A9
S3150800A020ADF8103086F069F9044638B92946304645
S3150800A03004AAA7F0F7F9002874D104462946304641
S3150800A04000238522A0F0DDFF234602211D20364A83
S3150800A05014B0BDE87040B5F0CEB90023214604A877
S3150800A060ADF8103086F04BF904460028E6D12946AB
S3150800A070304604AAA7F012FADDE7002204A8114622
S3150800A0808DF84820B3F094F9214604A887F085FF97
S3150800A09004460028D2D12946304604AA33F002FCE9
S3150800A0A0C9E70023214604A8ADF8103086F029F93F
S3150800A0B004460028C2D12946304604AA33F070FB6C
S3150800A0C0B9E7214604A886F01EF904460028B5D14A
S3150800A0D02946304604AA33F0BFFBACE700232146E5
S3150800A0E004A8CDE90533ADF8103086F020F904460A
S3150800A0F00028A3D12946304604AAA7F03CFA9AE7D5
S3150800A10000238122A0F07DFFD5E9012391B2120C2C
S3150800A11001929AB20291009201211D20034A1B0C5A
S3150800A120B5F069F914B070BD34D30D0800D30D0825
S3150800A13070B58B6806460D4686B0ABB1402B32D05B
S3150800A14000238122A0F05DFFD5E9012391B2120C0C
S3150800A15001929AB20291009201211D201A4A1B0C03
S3150800A160B5F049F906B070BD114605A8ADF814302A
S3150800A17086F0A1F8044638B92946304605AAA7F05C
S3150800A1803CFB0028EED104462946304600238522AA
S3150800A190A0F037FF234602211D200C4A06B0BDE871
S3150800A1A07040B5F028B90023114605A8ADF814305B
S3150800A1B000F01CFB04460028E6D12946304605AACD
S3150800A1C033F0B6FDDDE700BF00D30D0834D30D0824
S3150800A1D070B58B6806460C468CB033BB0020002150
S3150800A1E0CDE90401114604A8ADF818308DF81A30E7
S3150800A1F08DF81C30ADF8283000F038FD054628B932
S3150800A2002146304604AA37F041FC00BB21463046B9
S3150800A21000238522A0F0F5FE2B4602211D200D4ABB
S3150800A2200CB0BDE87040B5F0E6B800238122A0F076
S3150800A230E8FED4E9012391B2120C01929AB2029176
S3150800A240009201211D20044A1B0CB5F0D4F80CB06D
S3150800A25070BD00BF34D30D0800D30D082DE9704337
S3150800A2600D46AB680646114690B00B2B00F2A2804D
S3150800A270DFE803F006A026A035A04661A07281900B
S3150800A280002304A8CDE9043386F074FB044640B9DC
S3150800A2902946304604AA35F08DF8002840F09D80FE
S3150800A2A004462946304600238522A0F0AAFE234606
S3150800A2B002211D204A4A10B0BDE87043B5F09BB88C
S3150800A2C0002304A88DF8103000F0ACFB04460028E3
S3150800A2D0E7D12946304604AA35F00AF8DDE7002317
S3150800A2E004A8CDE904338DF8183086F0DFFF04465C
S3150800A2F00028D6D12946304604AA35F039F9CCE7E4
S3150800A30000234FF000084FF0000904A8CDE90433F4
S3150800A310CDE90933CDE90C898DF81830ADF8383018
S3150800A32086F0F7FF04460028BBD12946304604AA22
S3150800A33034F04AFDB1E7002304A8CDE904338DF8CB
S3150800A340183087F023F804460028AAD12946304653
S3150800A35004AA34F029FCA0E7002304A8CDE90433B5
S3150800A36086F02AFB044600289BD12946304604AAD3
S3150800A37034F098FB91E7002304A88DF8103086F096
S3150800A3803DFB044600288CD12946304604AA34F001
S3150800A39015FB82E7002304A8CDE9043386F030FBD9
S3150800A3A0044600287FF47DAF2946304604AA34F0D7
S3150800A3B0A7FC72E7002381222946A0F022FED5E9F0
S3150800A3C0012391B2120C01929AB2029100920121D4
S3150800A3D01D20044A1B0CB5F00EF810B0BDE87083BA
S3150800A3E034D30D0800D30D0870B58B6806460C46A5
S3150800A3F086B0D3B9114605A886F03AF9054628B9B4
S3150800A4002146304605AAA9F0E1FB00BB21463046A5
S3150800A41000238522A0F0F5FD2B4602211D200D4ABA
S3150800A42006B0BDE87040B4F0E6BF00238122A0F074
S3150800A430E8FDD4E9012391B2120C01929AB2029175
S3150800A440009201211D20044A1B0CB4F0D4FF06B06B
S3150800A45070BD00BF34D30D0800D30D0870B58B68E6
S3150800A46006460C4686B0D3B9114605A886F003F908
S3150800A470054628B92146304605AA37F04FFC00BBE9
S3150800A4802146304600238522A0F0BBFD2B4602213B
S3150800A4901D200D4A06B0BDE87040B4F0ACBF0023DD
S3150800A4A08122A0F0AEFDD4E9012391B2120C0192EB
S3150800A4B09AB20291009201211D20044A1B0CB4F0A5
S3150800A4C09AFF06B070BD00BF34D30D0800D30D083F
S3150800A4D070B58B6806460D46144694B0052B70D8A1
S3150800A4E0DFE803F00327376F4B5F00220023CDE92F
S3150800A4F004230023214604A8ADF8183087F008FD88
S3150800A500044638B92946304604AA38F0A1F8002886
S3150800A51069D104462946304600238522A0F071FDFC
S3150800A520234602211D20314A14B0BDE87040B4F01C
S3150800A53062BF0023214604A88DF8103086F067F91B
S3150800A54004460028E6D12946304604AA38F0B0F871
S3150800A550DDE7002204A811468DF84820B2F028FF4E
S3150800A560214604A887F03BFD04460028D2D1294697
S3150800A570304604AA38F038FBC9E7002204A8114679
S3150800A5808DF84820B2F014FF214604A887F029FD6B
S3150800A59004460028BED12946304604AA38F0EEFA09
S3150800A5A0B5E70023214604A88DF8103087F066FC2D
S3150800A5B004460028AED12946304604AA38F02AF9BE
S3150800A5C0A5E700238122A0F01CFDD5E9012391B25D
S3150800A5D0120C01929AB20291009201211D20044A9E
S3150800A5E01B0CB4F008FF14B070BD00BF34D30D08BF
S3150800A5F000D30D0870B58B6806460C4686B0D3B9ED
S3150800A600114605A886F03AF8054628B92146304687
S3150800A61005AAAAF01AF900BB21463046002385226E
S3150800A620A0F0EFFC2B4602211D200D4A06B0BDE81E
S3150800A6307040B4F0E0BE00238122A0F0E2FCD4E929
S3150800A640012391B2120C01929AB202910092012151
S3150800A6501D20044A1B0CB4F0CEFE06B070BD00BF28
S3150800A66034D30D0800D30D0837B5436804463F2B8D
S3150800A670154605D8292B14D8032B7DD0042B73D067
S3150800A6809AB2009201211D20574A1B0CB4F0B3FE62
S3150800A6900023C3222146284603B0BDE83040A0F077
S3150800A6A0B0BCA3F12A02152AEAD801A050F822F074
S3150800A6B089A7000881A6000881A6000881A60008C7
S3150800A6C081A6000881A6000839A7000881A6000807
S3150800A6D019A7000849A70008A9A70008B9A70008EC
S3150800A6E0D9A7000829A70008C9A7000881A6000855
S3150800A6F081A6000881A6000809A7000881A6000807
S3150800A70099A7000859A700080A462846214603B013
S3150800A710BDE83040FFF772BA0A462846214603B01C
S3150800A720BDE83040FFF7CEBA0A462846214603B0B0
S3150800A730BDE83040FFF704BB0A462846214603B069
S3150800A740BDE83040FFF736BB0A462846214603B027
S3150800A750BDE83040FFF794BB0A462846214603B0B9
S3150800A760BDE83040FFF7CCBB0A460146284603B091
S3150800A770BDE83040FFF742BC0A460146284603B00A
S3150800A780BDE83040FFF7D4BC0A462846214603B048
S3150800A790BDE83040FFF71CBD0A462846214603B0EF
S3150800A7A0BDE83040FFF75ABD0A462846214603B0A1
S3150800A7B0BDE83040FFF718BE0A462846214603B0D2
S3150800A7C0BDE83040FFF74ABE0A462846214603B090
S3150800A7D0BDE83040FFF77CBE0A462846214603B04E
S3150800A7E0BDE83040FFF706BF5DD30D08002370B5FE
S3150800A7F005460C4686B0234E8DF80830039104A80A
S3150800A80002A985F0B9FC9DF8143004A8012B04D1DF
S3150800A81085F0E8FC006806B070BD85F0DDFC0078C0
S3150800A820D0B902213246B4F0E6FD20460DF1070103
S3150800A830B2F0E6FE0028EED19DF807300B2B03D0C8
S3150800A84004D8032B28BF03232B70D8E79A1CD2B24F
S3150800A850022A28BF0323F7E70128D0D102210020C6
S3150800A8603246B4F0C8FD20460DF10701B2F0C8FE25
S3150800A8700028D0D19DF80730003B18BF01236B7024
S3150800A880BDE700BF79D30D080023F0B504460D4691
S3150800A89087B0474E8DF80830039104A802A985F0C1
S3150800A8A06BFC9DF8143004A8012B04D185F09AFCA2
S3150800A8B0006807B0F0BD85F08FFC0178012913D137
S3150800A8C0022100203246B4F096FD28460DF1070114
S3150800A8D0B2F096FE0028ECD19DF807305A1E042ADD
S3150800A8E088BF00232370D8E7022912D100203246F8
S3150800A8F0B4F081FD28460DF10701B2F081FE00286B
S3150800A900D7D19DF807305A1E022A88BF00236370E4
S3150800A910C3E7032920D12846B2F031FE142802D114
S3150800A92000232372B9E720460123002200F8083FD6
S3150800A93000F108071146384684F84820B2F038FD79
S3150800A9402846B2F01CFE162822D12946384685F03C
S3150800A950AFFB0028A1D0ACE7042920D12846B2F0E5
S3150800A9600EFE14284FF0000202D184F8502094E716
S3150800A970012304F158071146384684F8503084F804
S3150800A9809020B2F015FD2846B2F0F9FD162801D040
S3150800A9908E208EE72946384685F08AFBD9E7FE29B8
S3150800A9A07FF47BAF284604F19801B2F029FED0E780
S3150800A9B079D30D08002370B505460C4686B0184EA7
S3150800A9C08DF80830039104A802A985F0D5FB9DF8F7
S3150800A9D0143004A8012B04D185F004FC006806B0E5
S3150800A9E070BD85F0F9FB007888B902213246B4F0CB
S3150800A9F002FD20460DF10701B2F002FE0028EED155
S3150800AA009DF80730032B28BF03232B70DBE70128AB
S3150800AA10D9D12046291DB2F01BFE0028D3D0DEE787
S3150800AA2079D30D08002370B505460C4686B0154E39
S3150800AA308DF80830039104A802A985F09DFB9DF8BE
S3150800AA40143004A8012B04D185F0CCFB006806B0AD
S3150800AA5070BD85F0C1FB00780028ECD10221324692
S3150800AA60B4F0C9FC20460DF10701B2F0C9FD002873
S3150800AA70EDD19DF807305A1E012A88BF00232B7096
S3150800AA80D9E700BF79D30D0840F20E53984227D074
S3150800AA9007D83C280AD040F2011398420BD0002070
S3150800AAA07047124B9842FAD1122915E002298CBF39
S3150800AAB00020012070472729F1D8192903D8012930
S3150800AAC009D80120704743F20913A1F11A00C340BF
S3150800AAD003F001007047032914BF002001207047C6
S3150800AAE00029EED0881E0128E1E700BF05FCF1FF2A
S3150800AAF0002370B505460C4686B0234E8DF80830FF
S3150800AB00039104A802A985F037FB9DF8143004A820
S3150800AB10012B04D185F066FB006806B070BD85F090
S3150800AB205BFB007888B902213246B4F064FC204603
S3150800AB300DF10701B2F064FD0028EED19DF807304B
S3150800AB40032B28BF03232B70DBE7012812D1022130
S3150800AB5000203246B4F04FFC20460DF10701B2F052
S3150800AB604FFD0028D9D19DF80730022B28BF0223B4
S3150800AB706B70C6E70228C4D12046291D86F080F8E6
S3150800AB800028BED0C9E700BF79D30D0837B50546FA
S3150800AB900C4600200221074AB4F02DFC28460DF188
S3150800ABA00601B2F041FD10B9BDF80630238003B0A6
S3150800ABB030BD00BF79D30D08002370B505460C4695
S3150800ABC086B0294E8DF80830039104A802A985F0AD
S3150800ABD0D3FA9DF8143004A8012B04D185F002FBA2
S3150800ABE0006806B070BD85F0F7FA007888B90221CA
S3150800ABF03246B4F000FC20460DF10701B2F000FD24
S3150800AC000028EED19DF80730042B28BF04232B70AB
S3150800AC10DBE701380628D8D8DFE800F0040B111462
S3150800AC20171D2300291D204686F0ACF90028CCD034
S3150800AC30D7E705F10C01204686F022F8F6E705F17C
S3150800AC401801F0E705F12001F5E705F12C0120468A
S3150800AC5086F055FBEAE7204605F1380186F01FFB2A
S3150800AC60E4E705F13C01F2E779D30D08002370B556
S3150800AC7005460C4686B0244E8DF80830039104A884
S3150800AC8002A985F079FA9DF8143004A8012B04D19D
S3150800AC9085F0A8FA006806B070BD85F09DFA0378BD
S3150800ACA033B929462046B2F09CFC0028E7D0F2E7E3
S3150800ACB0013B032BE3D8DFE803F002081B212046FB
S3150800ACC005F10801FFF762FFEFE70221002032468F
S3150800ACD0B4F091FB20460DF10701B2F091FC002873
S3150800ACE0D9D19DF80730032B28BF0323AB72C6E7DB
S3150800ACF0204605F10C0186F002FBD6E7204605F151
S3150800AD001801B2F091FCD0E779D30D0837B505469E
S3150800AD100C4600200221084AB4F06DFB28460DF1C6
S3150800AD200701B2F06DFC28B99DF80730032B28BF40
S3150800AD300323237003B030BD79D30D0837B5054614
S3150800AD400C4600200221084AB4F055FB28460DF1AE
S3150800AD500701B2F055FC28B99DF80730052B28BF26
S3150800AD600523237003B030BD79D30D0837B50546E2
S3150800AD700C4600200221084AB4F03DFB28460DF196
S3150800AD800701B2F03DFC28B99DF80730112B28BF02
S3150800AD901123237003B030BD79D30D08002330B5D5
S3150800ADA005460C4687B08DF80830039104A802A919
S3150800ADB085F0E2F99DF8143004A8012B04D185F03A
S3150800ADC011FA006807B030BD85F006FA037833B982
S3150800ADD029462046B2F028FC0028E7D0F2E7013BD6
S3150800ADE0062BE3D8DFE803F004171C2225282B00DE
S3150800ADF002210020134AB4F0FEFA20460DF107019D
S3150800AE00B2F0FEFB0028DDD19DF80730022B28BFE3
S3150800AE100223AB70CAE7291D204686F0B9FDDBE799
S3150800AE2005F11001204687F0EAF8D5E705F120017B
S3150800AE30F2E705F13001F5E705F14001ECE705F128
S3150800AE405001EFE779D30D08012208B5074B1A70B0
S3150800AE500022074B1A700422064B1A701F22064B53
S3150800AE601A7007F071FD054B186008BDDE1B00203F
S3150800AE70CF2A0220DD1B0020DC1B0020343D0120E8
S3150800AE802DE9F043044689B0214E01AD88461746A0
S3150800AE900FCE0FC596E8070085E807001D4E01216D
S3150800AEA03A20D4F80090D6F8205702F099F960684D
S3150800AEB0012102F095F9617B207B0023042203F02F
S3150800AEC095FB0422617A207A002303F08FFB012385
S3150800AED0484601A98DF81230CDF80C80ADF81470EB
S3150800AEE003F0A2FD0020627A237A05F0040543EAFE
S3150800AEF00243C6F83837627B237B45F0180543EAD8
S3150800AF000243C6F83437C6F8205709B0BDE8F083BF
S3150800AF1088D30D0800C003504022024BC3F8A02076
S3150800AF20704700BF00F0035013B5044608F0BCFC98
S3150800AF3000230122217BCDE900324900B0FBF1F163
S3150800AF40024A03488AF00FF902B010BD19AF00088B
S3150800AF504C3D0120F7B54FF48076104C054604F5B4
S3150800AF608053C3F8A060407B08F0D6FE04230C4F3C
S3150800AF7002220DF106013846ADF8063087F02DFE9F
S3150800AF80384687F03BFEA87B08F0C6FE002004F58D
S3150800AF900054C4F8A06003B0F0BD00BF00C0035061
S3150800AFA09C13002070B50646354601213A2002F06A
S3150800AFB017F9B16800220F48FFF762FF0E4C00230D
S3150800AFC004220821022003F011FB00230422062193
S3150800AFD0022003F00BFB0FCD0FC401222B6830466D
S3150800AFE02360064B1A70FFF79FFF3046FFF7B2FF44
S3150800AFF0002070BD9C130020383D0120D02A022075
S3150800B0002DE9F74F14464FF480720688984603795F
S3150800B01001345E43254BA4B2C3F8A0200546407B05
S3150800B0200F4608F079FE230243F001030222204866
S3150800B0300DF10601ADF806304FF0000B87F0CDFD97
S3150800B04001342402DFF86890F610A4B208F1FF3A3A
S3150800B050C34511D1164887F0D1FDA87B08F05CFEE0
S3150800B0604FF48072134B1248C3F8A02087F0CBFD2B
S3150800B070002003B0BDE8F08F39463246484687F0CF
S3150800B080ACFDDA450CBF4FF6FF7344F0FF0302220E
S3150800B09048460DF1060104F58074ADF806303744CC
S3150800B0A087F09BFD0BF1010BA4B2D1E700D003504A
S3150800B0B09C13002000E00350034B04481B78002B28
S3150800B0C008BF0020704700BFD02A0220383D012063
S3150800B0D030B5064D87B001AC0FCD0FC42B6801A85B
S3150800B0E02360FFF75FFF07B030BD00BFA4D30D088C
S3150800B0F02DE9F043434D89B001AC0FCD0FC495E857
S3150800B1000700012584E8070001213A2002F068F8C3
S3150800B1103D4F0121292002F063F83C4B384601A92E
S3150800B12003938DF8125003F07FFC2B462946042220
S3150800B130022003F05BFA02212A460846002303F0A0
S3150800B14055FA2B4604220321022003F04FFA042263
S3150800B1502B461146022003F049FA2D4C2D4B10269A
S3150800B160C4F834374FF00213C4F83037A3F58033E8
S3150800B170C4F838371C2304F50059C4F820374FF4AF
S3150800B180487008F0C9FD04F580581420C9F8A06075
S3150800B19008F0C2FD2320C8F8A06008F0BDFDB9215B
S3150800B1A03846C9F8A06088F04AF9002329461A46A5
S3150800B1B00220C8F8A06003F019FA002302211A46F3
S3150800B1C0084603F013FA2B4600220321022003F057
S3150800B1D00DFA2B4600220421022003F007FA38460E
S3150800B1E003F000FC00212920C4F83417C4F83017EE
S3150800B1F0C4F83817C4F8201701F0F2FF09B0BDE803
S3150800B200F08300BFB8D30D0800C0055000127A00BD
S3150800B21000C00350020003000348044A0449121AF6
S3150800B220921087F0FBBC00BF4C1C10084C1C100881
S3150800B230001C032008B500F02FF8FFF7EDFF124BAE
S3150800B24012498B4212D30020114B12498B4218D354
S3150800B250FEF71CFC186850F82240586840F822404F
S3150800B260013298688242F5D30C33EAE70022F8E700
S3150800B2701C6844F8220001325C68A242F8D30833FD
S3150800B280E4E70022F8E700BFD4021008E00210083D
S3150800B290E0021008E00210084FF480414FF0FF303A
S3150800B2A010B5114B114A9A60D3F8882042F47002FF
S3150800B2B0C3F888200E4A91660E4901F500521066B9
S3150800B2C00D4850660220C3F8D000BFF34F8FBFF376
S3150800B2D06F8F01244FF440330848C0F88041D3608B
S3150800B2E004600B6110BD00BF00ED00E000600008BF
S3150800B2F00090005000800044F7FF370000E100E0AE
S3150800B300014B1868704700BFB0130020014B186046
S3150800B310704700BFB0130020084B1B6F03F00703EC
S3150800B320022B04D0032B05D0012B05D0FEE7044BD6
S3150800B33018687047034BFBE70348704700800050C6
S3150800B340B0130020B8130020002D310108B5FFF70F
S3150800B350E3FF054B1B6FC3F303330133B0FBF3F075
S3150800B360024B186008BD00BF00800050AC130020D7
S3150800B3700048704700B4C404014B1868704700BF02
S3150800B380B8130020054B1860054B1B6F03F0070325
S3150800B390032B01D1FFF7DABF704700BFB8130020AF
S3150800B3A00080005000487047002D31014FF0B4432B
S3150800B3B09868C0F304400C280AD8DFE800F00B09A7
S3150800B3C009090909072119091B1D1F000F4870479C
S3150800B3D0002070479B6803F04073B3F1807F11D05B
S3150800B3E0B3F1007F10D00A4A002B08BF10467047F9
S3150800B3F00848704708487047084870470848704723
S3150800B400084870470848704708487047405DC600B6
S3150800B41000093D00C0EA210180BA8C010048E80114
S3150800B420005A62020024F40080841E0040420F0085
S3150800B430014B1868704700BFB4130020BFF34F8F45
S3150800B4400549064BCA6802F4E0621343CB60BFF3B2
S3150800B4504F8F00BFFDE700BF00ED00E00400FA05CE
S3150800B4604FF000639A6A02F17841B1F5C04F03D2F2
S3150800B4701168074A914203D000230370836070471E
S3150800B480012202709A6A926842609B6A9B69F5E794
S3150800B49007B0CD5E08B54FF00053024A1A60FFF7B1
S3150800B4A0CDFF00BF02020FF073B54F4B04461A7862
S3150800B4B01AB102221A7002B070BDCDE90022002826
S3150800B4C0F9D001261E7087F0C6FE484D484B186015
S3150800B4D06BF056F92B785BB900F006FE40B9454883
S3150800B4E00823454A4549006864F072FC00B92E7085
