S02B00004D61747465724C696768745377697463684F7665725468726561645F62726434313836635F763434FF
S315080060000012002035B200085B3409088D900A0892
S31508006010415909085B3409085B3409085B340908E7
S315080060205B3409085B3409085B34090851620008C7
S315080060305B340908F4D80D08F1610008A56409085D
S3150800604055B700085B3409085B3409085B3409084E
S315080060505B3409085B3409085B3409085B340908B2
S315080060605B3409085B3409085B34090845160308DC
S315080060705B3409085B3409085B3409085B34090892
S315080060805B3409085B3409085B3409085B34090882
S315080060905B340908C5BE00085B3409085B34090887
S315080060A05B340908C5C00008A1C000085B340908AC
S315080060B05B340908E19D07086DA8070863EF0C081B
S315080060C05FEF0C0815A007086FEF0C0867EF0C08C0
S315080060D045A807086BEF0C08ADA8070819A9070813
S315080060E05B3409085B3409085B3409085B34090822
S315080060F07D5809085B3409085B3409085B340908CC
S315080061005B3409085B3409085B3409085B34090801
S315080061105B3409085B3409085B3409085B340908F1
S315080061205B3409085B3409085B3409085B340908E1
S315080061305B3409085B3409085B3409085B340908D1
S315080061405B34090849F300085B340908875A0908CB
S315080061508D8507085B340908E9EB0C08EFEB0C089A
S315080061605B3409085B3409085B3409085B340908A1
S31508006170013800D0FCE7704700000000000000006E
S315080061800B4A1168086806C881F30B88022181F357
S315080061901488203080F30988BFF36F8F4FF0000012
S315080061A080F31188104700BFAFF30080AFF300807B
S315080061B0405A012000000000000000000000000016
S315080061C007480068006880F3088862B661B6BFF3BE
S315080061D04F8FBFF36F8F02DF00BF00BFAFF30080A2
S315080061E008ED00E0000000000000000000000000CC
S315080061F0EFF30980EFF30B82734620E9FC0F104A90
S31508006200116808604FF0300080F31188BFF34F8F94
S31508006210BFF36F8F11F038F94FF0000080F3118843
S31508006220074A11680868B0E8FC0F82F30B8880F308
S3150800623009881847AFF30080AFF30080AFF30080FA
S31508006240405A012000000000000000000000000085
S315080062501EF0040F0CBFEFF30880EFF30980044922
S31508006260084700BFAFF30080AFF30080AFF30080AC
S31508006270B5810108000000002DE9F043022089B02D
S315080062800EF0C8FB00B9FEE75F4E336803B9FEE7B8
S3150800629010200EF0BFFB33685C4C9B880DF10B0198
S315080062A08DF80B30012320681A46C8F073F89DF85C
S315080062B00B203168023A0023096892B22068C8F0B8
S315080062C069F8534B05AF93E8070087E8070033687A
S315080062D01B681D7815F020051FD02068C7F088FEBA
S315080062E0002868D02068C7F083FE84F097F8024635
S315080062F00B4641A1D1E9000184F034FA804607989B
S31508006300894684F08BF802460B464046494683F098
S3150800631049FF84F097FB012507902068C7F084FEA3
S315080063209DF80B30002849D0981DC00084F086F8E7
S3150800633033A3D3E9002384F0EBF880462068894626
S31508006340C7F072FE84F06AF802460B464046494694
S3150800635084F008FA80460798894684F05FF8024672
S315080063600B464046494683F01DFF84F06BFB3268B6
S315080063700790D3697BBB10200EF04CFB18B3079B24
S31508006380326803F5FA7392F820100793214B997037
S3150800639021490978D970917900972A462068C7F06B
S315080063A0A4FB28B14FF480500EF05EFC51F02CFC93
S315080063B009B0BDE8F0830798C030ACE70798063304
S315080063C000EB4310D3E731683B462A4689792068B3
S315080063D0C7F075FBE5E791690B44A03B03930023DF
S315080063E0ADF810300D4B9179009301972A46206835
S315080063F003ABC7F085FBD4E70000000060E3664105
S315080064000000000080842E41284C0120844B012086
S3150800641068FD0D081C140020E41B00201014002041
S31508006420F7B501200EF0F6FA0446002840F0AB80D6
S31508006430594D5A4B5A4EC5E9003005F11003AB6069
S3150800644041F60B23102230607F215648B380D6F0E0
S315080064503CF97F22544B1A70544B1B6ADB0700D455
S31508006460FEE7214628466AF0CDFD044600B9FEE758
S315080064706CF086F900B1FEE720464D496BF0A0FCAA
S3150800648000B1FEE702212046C7F094FD00B1FEE701
S31508006490204648496BF05EFF00B1FEE70121204621
S315080064A0C8F00DF900B1FEE701212046C8F01DF934
S315080064B0074600B1FEE701463C223F48D6F005F9FB
S315080064C080233A46204605F11401C7F079FF802853
S315080064D000D0FEE7394D0120C7F0ECFA2CA3D3E92A
S315080064E000232C602046CDE900234FF0FF324FF001
S315080064F0FF33C7F014FE014600B1FEE728480EF048
S31508006500E5FA012108460EF0B3FA01212868C7F01A
S315080065109EFC044600B1FEE701464FF40C6228488B
S31508006520D6F0D3F8274B284A9C801C60274B6FF07F
S3150800653063001A609C80264A264B1A60264A9C806D
S315080065405A6118F017F833790B2B00D9FEE77379DF
S315080065500A2BFBD9214B1E6008F048FE20460EF098
S3150800656005FB082228681146C7F0F3FD044600B16A
S31508006570FEE70FF0F9FA1A4B1A481C7003B0BDE88B
S31508006580F04095F08BBB03B0F0BD00BFAFF30080C1
S315080065900BE020FFE2030000944B0120F14C0108B8
S315080065A08C4B012019350220183502200080E00F97
S315080065B00700110034FD0D08444B0120844B0120CF
S315080065C02C4C0120302C0020B2350220082C00204B
S315080065D033350220E02B0020D02B0020884B0120E9
S315080065E03436022028FD0D082DE9F04F00252DED43
S315080065F0028B04462F46A8469FED398B9BB03A4B33
S315080066000591164602212120384AB9F0F8F994F87E
S31508006610383004F1080A03930295039A2BB29A427A
S315080066200DD1029B20460CA9CDE90C378DF8388090
S3150800663035F018FB1BB0BDEC028BBDE8F08F5AF89D
S31508006640043F615D2A480493B0F0C1F903680693D4
S3150800665003798DF81C300BB18368089383893168F8
S31508006660ADF82430D0E90423CDE90A230B680CA839
S315080066709B699847DDE90AB301930198DDE90C2384
S31508006680984208BF93459DF8191026D19DF8389071
S31508006690894522D1174BC8460C93059B164A109379
S315080066A00023314611A81192CDE912338DF85030E6
S315080066B08DED0E8BBFF031FA316816A80B689B6911
S315080066C09847049AE36B12680CA906A898470CA881
S315080066D035F0AAF8019FCDF808B001359DE700BF4F
S315080066E00000000000000000BF8A0E081F9F0E0869
S315080066F090D8002020A00E0890C70F0800000000C0
S315080067002DE9F04F2DED028B884204460D461746BB
S315080067101E4697B00AD1034601211D202E4A17B0FE
S31508006720BDEC028BBDE8F04FB9F069B99FED288B37
S315080067300DF10C092A2148460DF1140841F010F80C
S3150800674099E8030088E80300DFF890A0DFF890B026
S31508006750BDF81400BDF81630834204D117B0BDEC5D
S31508006760028BBDE8F08F41F061F8337881468DF8E9
S3150800677024408DF825508DF826708DF828300BB1F9
S3150800678073680B9309AB0893CDF81CA02EF014FC84
S3150800679000230E938DF840308DF851302A23ADF83A
S315080067A030904FF001090D930CAA6B4607A98DEDA1
S315080067B0128B8DF85090A5F0ABFE034620B15A46D1
S315080067C049461D20B9F01BF94046AFF0ADFFBFE7BB
S315080067D0000000000000000094D50E0830D80E080E
S315080067E0D4D50E08000000002DE9F04F2DED028BE0
S315080067F09FED318B9DB00DF108092A21044604ADA1
S31508006800484616461F46DDF8A48040F0A9FF99E8D9
S31508006810030085E80300DFF8A8A0DFF8A8B0BDF8F4
S315080068201000BDF81230834204D11DB0BDEC028BB6
S31508006830BDE8F08F40F0FAFF289B81461B78CDE92A
S315080068400A6708948DF830301BB1289B5B788DF861
S31508006850313098F800308DF838301BB1D8E902236A
S31508006860CDE9102308AB0793CDF818A02EF0A4FBAA
S3150800687000232A228DF858308DF869300223ADF8A6
S3150800688048904FF00109CDE9132306A96B4612AAD1
S315080068908DED188B8DF86890A5F03AFE034620B169
S315080068A05A4649461D20B9F0AAF82846AFF03CFFDB
S315080068B0B5E700BFAFF3008000000000000000004D
S315080068C058D80E082BD60E082DE9F0472DED028B69
S315080068D0C8B01AAB0293B6230393002304468B6011
S315080068E00CA80D46ADF0AFF841490CA8ADF0CBF8B1
S315080068F0204602AA0CA9ADF0B4FDB8B902A904A8AD
S31508006900ACF0A2FADDE904120CA8B7F055F84FF47A
S315080069108072002316210CA8B7F042FB30B90DF19E
S3150800692003010CA8B7F030FA064620B148B0BDEC12
S31508006930028BBDE8F08701A90CA8B7F0E4FB019A21
S315080069406B689A4239D860249FED278B01270CA8DB
S31508006950B7F0ECFA50B12128E8D19DF903100CA83C
S31508006960B7F0AFFA0446B8B32046DFE76B689E4235
S3150800697001D3D5F0B2F804FB06F9D5F800A00490C7
S315080069808DF820000CA904A88DED068B0AEB0908E2
S315080069908AF068FD0028C9D1049B4AF80930DDE968
S315080069A00623C8E902239DF8203093B1DDE90919C9
S315080069B0B9F1400F08F1200301D91920B6E74A4674
S315080069C01846D5F084FFC8E9050988F8107001361D
S315080069D0BDE788F81030FAE70CA8B7F0A7FA21281F
S315080069E0A4D1AE60C0E700BF0000000000000000B0
S315080069F08FDD0E08000000002DE9F04F2DED028B0B
S31508006A00ABB004460D463CF01BF8074600287DD07F
S31508006A102046ADF051FE0021ADF07AFE067CD0F896
S31508006A2000906EB1EC4600F1200200F16003664664
S31508006A3010685168083203C69A42B446F7D101264F
S31508006A4095F8383000200021002B62D1CDE91201DB
S31508006A5010938DF850308DF8A0304FF00008294675
S31508006A601AA8CDF86080B6F079FF2046ADF0DCFDB7
S31508006A709FED5F8B9DF99420189B01325FFA88FA87
S31508006A8011D083B91AA8B7F051FA189058B91090CE
S31508006A908DF850001AA910A88DED128B8AF0E2FC29
S31508006AA01890002843D0189B212B02D0002B40F0C9
S31508006AB08880C4F830A0FFB120463BF0C1FFD8B1AA
S31508006AC02046ADF0F9FD0021ADF022FE0368057CF5
S31508006AD04B4500F0878065B15EB11030ADF023FEFE
S31508006AE04268402A05D169460068D5F0C4FD00B958
S31508006AF015B1042384F84C312046ADF0DDFD01467E
S31508006B0004F5A4703BF0C4FB034624E00646814620
S31508006B1096E7002310938DF85030012395F8392015
S31508006B20CDE912018DF8A0308DF8A12095E75146E0
S31508006B3004F12800ADF0ECFD109A2F4902F5284320
S31508006B40C0338B4205460CD92046ADF09CFD002883
S31508006B5014BF0346B92318462BB0BDEC028BBDE81B
S31508006B60F08FDDE91231BAF1000F16D10B43EBD1E4
S31508006B702A60DDE91223C5E902239DF850303BB1AE
S31508006B8014A8ADF0D0FDD0F804B0BBF1000F07D1C2
S31508006B9000232B7408F101086CE70B43E8D1D3E70F
S31508006BA0BBF1400FD0D805F1200A402200215046FB
S31508006BB0D5F08BFD14A8ADF0B6FDD0E900129345CB
S31508006BC008D22046ADF05FFD40F28553002818BF75
S31508006BD00346C0E75046D5F07AFE0122C5E905AB63
S31508006BE02A74D7E7002D87D0002E85D0002574E7B4
S31508006BF00000000000000000A06D01000000000079
S31508006C002DE9F04F2DED028B083085B00F469146E1
S31508006C10DDF85080B8F0E8FD0446002800F09980B9
S31508006C206E4600259FED4E8B4FF0010B41F2A45A9C
S31508006C3010AB0FCB86E80F004B4BC4E90255236017
S31508006C40C4E90455C4E9065524336360474B04F187
S31508006C50480C0FCB84ED0E8BC4E90C5584F82050F4
S31508006C6084F840508CE80F00414B84F858B0A4F8DB
S31508006C705AA0E565C4E91955236604F17403C4E905
S31508006C801D3304F18003C4E920333A4B1022C4F8BB
S31508006C9090302946C4E9255584F86C50E567C4F850
S31508006CA08850C4F89C5004F1A000D5F00EFD84F875
S31508006CB0B0B0A4F8B2A0C4F8B45004F1B800B9F062
S31508006CC0EEFA4AF6C873C82284ED348B84ED368B07
S31508006CD0C4E9382304F1F803C4E93E3384F8C45000
S31508006CE0A4F8C850C4F8F05084F8F450C4F8005119
S31508006CF03B68A3607B68E360BB682361FB686361EC
S31508006D003B69A3617B69E3613B7E84F8203033B13C
S31508006D1004F1240307F11C0207CA83E80700384672
S31508006D20A4F01BFBA8B9B9F1000F12D0B8F1000FF7
S31508006D300FD003CE3378C4F8309084F8403001235E
S31508006D4084F8F030231DA063E163C4F88C80C4F88E
S31508006D509C30204605B0BDEC028BBDE8F08F00BF25
S31508006D60000000000000000028880E0818B701205F
S31508006D7090C70F0818880E082DE9F04F2DED028BE5
S31508006D809946002300240025CDB08DF8C8304993D4
S31508006D90ADF82831A64BCDE92E45CDE93045CDE9EC
S31508006DA034450C934FF6FF740123DFF89CA2064680
S31508006DB088461746CDF8D8A0ADF820410D93A2B362
S31508006DC0054600F53474A54206D10B2420464DB07D
S31508006DD0BDEC028BBDE8F08F2846A5F0BFFC08B1D4
S31508006DE09035F0E79FED908BBDF864318DF8C8803B
S31508006DF0ADF820318F4B4FF4C8710E93002309A8C4
S31508006E00CDE909330F93CDF870A00B93ACF0B0F829
S31508006E10099C14BB0B240BA8A4F09CF80AA8A4F0A0
S31508006E2099F809A8A4F096F8D0E7B2F04AF904460A
S31508006E3008B9AC24CAE706F534752846A2F0EEFF71
S31508006E40B4F882308DF8C880ADF8203121460CA8F8
S31508006E5094ED028BB2F0B7F8CCE74FF4C8710AA8E4
S31508006E60ACF086F8DDF828A0BAF1000FD2D04FF4BE
S31508006E70C8710BA8ACF07CF80B9A002ACAD04FF45C
S31508006E80C8734146CDE91332304610AA1094CDE9AD
S31508006E90113A1593B2F075F904460028BBD141465C
S31508006EA0304612AAB2F04FF904460028B3D141463B
S31508006EB0304614AAB2F024F904460028ABD110A92A
S31508006EC016A8ABF0C1FF12A918A8ABF0BDFF14A90C
S31508006ED01AA8ABF0B9FF36AB079330AB049334ABC3
S31508006EE003930DF1B80A0EAB0DF1700B8DED008B07
S31508006EF0CDE905AB02931AAA18A916A844F0A4FA74
S31508006F000446002887D10BA8A4F024F80AA8A4F000
S31508006F1021F809A8A4F01EF8B9F1000F13D1D6F884
S31508006F20640300285FD003689B6898470346D6F831
S31508006F306403002B4FD003685A4641465B6998475D
S31508006F40044690B142E7D9F8003048465B6998474D
S31508006F50036859465B6A984708B9C52436E79DF819
S31508006F606031CDF824918DF828319DF86831514665
S31508006F70B3FA83F328465B098DF82931B2F04CFB46
S31508006F80044600287FF422AF28460CA9B2F04AF836
S31508006F9006F55D7495F881303FB302211120264A23
S31508006FA0B8F02DFDD5E900122B69CDE90121009332
S31508006FB06B6902211120214AB8F021FD20460F995C
S31508006FC046F02EFA034630BB96F88233013386F82C
S31508006FD082330024FAE603684146DB6898470028AE
S31508006FE0C3D11024F2E60324F0E6D5E900121120F5
S31508006FF0CDE900210221124AB8F001FD20460F9979
S3150800700046F00EFA03460028E3D0012111200D4A66
S31508007010B8F0F5FCDDE7012111200A4AB8F0EFFCCB
S31508007020D2E700BFAFF300800000000000000000B8
S31508007030EC060E08A42E0F08A62D0F08C62D0F085D
S31508007040092E0F083E2E0F08F4860F0800000000D0
S315080070502DE9F0478AB00DF10D0301931523064675
S3150800706000934FF48072002308460C46B7F0F6FAF0
S31508007070E8B996F892300122009320460023B7F02B
S3150800708074FAA0B996F8933002220093204600239A
S31508007090B7F06BFA58B90DF10E03019316230322C4
S315080070A0009320460023B7F0D9FA054610B10AB076
S315080070B0BDE8F0874FF0100906F1C8070DF118086A
S315080070C0102200214046D5F000FB0DF10F03019375
S315080070D015234FF48072009320460023B7F0BEFABA
S315080070E00028E4D196F89320EBB29A4251D917EDCD
S315080070F00C7BC44637F828ACA7F12603A7F1160E71
S31508007100624618685968083303C273459446F7D12E
S315080071108DED007B042200232046B7F001FA0028F3
S31508007120C5D1052200232046CDF800A0B7F01DFAE8
S315080071300028BCD14046494606228DE803000023B4
S315080071402046CDE90489B7F046FB0028AFD1204692
S315080071509DF90F10B7F0B0FA013530370028A6D1DF
S31508007160032DADD120469DF90E10B7F0A5FA0028DB
S315080071709DD1B6F88A300722009320460023B7F03F
S31508007180F4F9002893D120469DF90D10B7F094FA2A
S315080071908DE782469FED027BBAE700BFAFF300801A
S315080071A00000000000000000054B18680368996994
S315080071B001A3D3E90023084700E0373B015D03003C
S315080071C0F41500200000000010B52A21ADF5956DD4
S315080071D06D484CF01BFD08B1D4F07FFC029002A963
S315080071E069484CF0BFFB0028F6D1029B2A2BF3D145
S315080071F063A3D3E9002365484CF020FD0028EBD1B2
S3150800720000220023614808A9CDE908234CF0CEFBEB
S315080072100028E1D1DDE9080240F6FA035C499A4202
S3150800722008BF8842D8D101215A484CF0BFFC002833
S31508007230D2D18DF807000DF1070156484CF042FBF4
S315080072400028C9D19DF80730002BC5D04E484CF010
S3150800725089FA0028C0D14C4803A94CF083FB40F2B8
S315080072600124A042B8D14C494C48B9F033FB002858
S31508007270B2D14022494804AB0AA94CF0BFFB00280A
S31508007280AAD1049B0E2BA7D10F2243490AA8D5F0F1
S31508007290F2F90028A0D142494048B9F01BFB002862
S315080072A09AD104AB40223D480AA94CF0A7FB049B9F
S315080072B0184391D19DF8281000298DD13748B9F087
S315080072C009FB002888D14022344805AB1AA94CF09E
S315080072D095FBA04280D1F122324933484CF0E0FCBC
S315080072E000287FF479AF4FF400722F4806AB2AA91D
S315080072F04CF0DAFB00287FF46FAF069AF12A7FF488
S315080073006BAF28492AA8D5F0B6F9024600287FF4BB
S3150800731063AF014624484CF0C3FC00287FF45CAFF9
S315080073204FF40072204807ABAAA94CF0BDFBA04257
S315080073307FF452AF15484CF021FA00283FF44CAFC1
S3150800734014484CF01BFA00283FF446AF16484CF098
S3150800735015FA00287FF440AF4CF090FA00287FF425
S315080073603BAF0A484CF00AFA00283FF435AF094803
S315080073704CF004FA00287FF42FAF0DF5956D10BD7B
S31508007380316EE595FA0800000573080001720800D9
S31508007390316EE59506730800C47C0F080273080071
S315080073A0C37C0F08D27B0F08027208000000000099
S315080073B0002370B5404C05468AB0E36318B10088CF
S315080073C023605EF021FE3D48C6F0DDFD3C4E3D4B98
S315080073D0304633603C4B73605AF0F2F90021304670
S315080073E069F010FE32A3D3E90023A062C4E906239C
S315080073F0C2F063F9D4E9062319431043C4E9060128
S31508007400CDE900014FF0FF334FF0FF32A06AC6F016
S3150800741086FE02224FF0FF31A06AC6F09AFE0120CE
S315080074205EF074FB4FF4007300222849A06AC6F088
S31508007430C7FFB0F5007F38D100239422CDE9073382
S3150800744009933C23CDE9033205939623A06A03A941
S3150800745006936AF0EDF935B3287C5EF053FF0546CE
S31508007460F0B9A06AC7F07EF95EF0FAFE5EF030FB6E
S3150800747020B14FF4807000215CF0FCFA5EF038FB16
S3150800748020B14FF4006000215CF0F4FAC2F0D8F99C
S315080074900120C6F00FFB0E4A0E49A06AC2F001F998
S315080074A028460AB070BDFF20D7E70725F8E700BFD2
S315080074B00DD501552000000040370120690345EC31
S315080074C04C090220915906085C0902204C07022043
S315080074D04B960C088B960C0870B590B00E46044671
S315080074E006A909AD81E80C000023179928460F93D1
S315080074F075F014FA9DF858304FF0000120460495AF
S315080075000393159B02939DF850300193079B9FEDBB
S31508007510060B0093069BB268CCF008FD2846C9F016
S3150800752083F9204610B070BD00000000000000007E
S3150800753070B590B00E46044606A909AD81E80C0060
S315080075400023179928460F9375F0C8F9169B4FF034
S315080075500001204604950393159B02939DF850302D
S315080075600193079B9FED060B0093069BB268CCF030
S31508007570AFFD2846C9F058F9204610B070BD00BFC7
S31508007580000000000000000070B590B00E460446EA
S3150800759006A909AD81E80C000023179928460F9320
S315080075A077F000FE9DF858304FF00001204604950C
S315080075B00393159B02939DF850300193079B9FED0B
S315080075C0060B0093069BB268C9F065FC2846C9F00D
S315080075D02BF9204610B070BD000000000000000026
S315080075E070B590B00E46044606A909AD81E80C00B0
S315080075F00023179928460F9377F0AAFD169B4FF09C
S315080076000001204604950393159B02939DF850307C
S315080076100193079B9FED060B0093069BB268C9F082
S31508007620E2FC2846C9F000F9204610B070BD00BF3C
S3150800763000000000000000002DE9F04F9DB08246D2
S315080076400C464FF000080F9200224FF000091892DE
S315080076500A46179211782B293BD02CD80D2926D803
S31508007660082926D800292FD000220D92179D2A789E
S31508007670302A7DD16A7802F0DF02582A6ED1029349
S3150800768017A90D9B50468A4A019318AB009319AB6C
S3150800769087F05AFC10F00F0604463ED0062E1AD183
S315080076A00F9B0BB101351D6042464B4640E0202931
S315080076B0DAD10132CDE72D29D6D101210D91511C00
S315080076C017915278002AD1D10F9B002BECD01C6061
S315080076D0EAE70021F2E7189A3AB135211AA8D5F057
S315080076E0F6FA1899504687F07DFE013E199A042E3F
S315080076F006D8DFE806F022032B2E2200DDE91A89D8
S31508007700E10548BF49F0004929F000431B0D1B0558
S315080077101BB987F01BFB222303600F9B13B1179B32
S315080077200F9A13600D9B002BBED0424609F1004309
S3150800773043EC102B1DB0BDE8F08FDDE91A8302F289
S31508007740334223F4801343EA0259D9E7DFF86891F4
S31508007750D6E76FF000494FF0FF38D1E7179B5A1C60
S3150800776017925B78302BF9D0002BD6D0012300E096
S315080077700023002704930A22179BCDE905770A936D
S3150800778017980578A5F13003D9B2092924D9012219
S315080077904849D4F0B1FF00282DD000202A46059D7F
S315080077A083460346652A01D0452A13D11DB9049A92
S315080077B0024389D00025179C621C179262782B2AEF
S315080077C06CD02D2A70D04FF0000CA2F13001092997
S315080077D078D91794002696E005990130082917905C
S315080077E0D7BF069902FB073702FB01330693059BB1
S315080077F001330593C4E7179B5A1C17925A78059BC1
S31508007800A3B383461D46A2F13003092B12D90123DF
S31508007810C8E7179B01305A1C17925A78302AF8D0B5
S31508007820A2F13103082B00F2EF8483460020179B50
S3150800783005460A93303A00F1010311D09B4400EB48
S31508007840050C2B460A219C4512D12B180135082B0D
S31508007850054419DC06990A2303FB01230693002332
S31508007860179A1846511C17915278CCE70598D5E710
S31508007870082B03F1010303DC069E4E430696E2E756
S31508007880102BD8BF4F43DEE70F2BDCBF0A2303FBC1
S315080078900727E4E74FF0000B012388E74FF0000CB9
S315080078A0A21C1792A27890E74FF0010CF8E700BFE8
S315080078B0506610084F0C0E080000F07F179A511CEE
S315080078C017915278302AF9D0A2F13101082981D8C6
S315080078D0303A0792179A0C92179A561C17965278AE
S315080078E0A2F1300EBEF1090F38D90C99761A082E76
S315080078F044F61F6603DC07998E42A8BF0E46BCF104
S31508007900000F00D07642002D4FD1049908437FF42A
S3150800791004AF002B7FF4D8AE692A29D026DC492A81
S3150800792026D04E2A7FF4D0AE9B4917A8D5F060F82A
S3150800793000283FF4C9AE179B1B78282B2FD11AAA0B
S31508007940964917A8D5F068F8052828D11B9BDDF8B5
S31508007950688043F0FF4949F4E009DEE6079E0A21FC
S3150800796001FB0621A1F130020792B5E76E2AD9E795
S315080079708B4917A8D5F03CF800283FF4A5AE179B0D
S3150800798017A88849013B1793D5F032F810B9179B09
S3150800799001331793DFF81C924FF00008BDE68248C2
S315080079A000F04EFC59EC108BB7E6A6EB0B030698D5
S315080079B02C460C93059B002B08BF2B46102D0593D0
S315080079C0A8BF102482F02AFD092D8046894613DCBB
S315080079D00C9B002B3FF4A1AE0C9B78DD162B45DCE7
S315080079E07249424601EBC3014B46D1E9000182F0D8
S315080079F08FFD8046894690E66C4B03EBC40353E93A
S31508007A00122382F085FD80468946384682F006FDB7
S31508007A1002460B464046494682F0C4FB0F2D804677
S31508007A208946D5DD2C1B0C9B1C44002C25DC00F05C
S31508007A30A280644214F00F020AD05C4B40464946C5
S31508007A4003EBC203D3E9002382F08CFE8046894605
S31508007A50241100F090801F2C40F3B28022234FF0AF
S31508007A6000084FF00009CAF8003056E6C5F12503AC
S31508007A700C9A934219DA2C1B144414F00F030AD0FB
S31508007A804A49424601EBC3014B46D1E9000182F05F
S31508007A903FFD8046894634F00F046CD0B4F59A7FD2
S31508007AA041DD2223CAF8003074E7C5F10F053F4CC3
S31508007AB042464B4604EBC501D1E9000182F028FD98
S31508007AC00C9B5D1B04EBC504D4E900238FE7163332
S31508007AD0A8DBABEB0602354B4046494603EBC2032F
S31508007AE0D3E9002382F03EFE83E700230693222390
S31508007AF0DFF8C0904FF00008CAF8003018995046D1
S31508007B0087F070FC0699504687F06CFC059950463C
S31508007B1087F068FC1099504687F064FC0799504630
S31508007B2087F060FCF9E50023241140464946204FBA
S31508007B300493012C22DC0BB180468946049BA9F1EB
S31508007B4054791B49424601EBC3014B46D1E9000172
S31508007B5082F0DEFC174B0A4680460B4016498B42DC
S31508007B609FD8A1F580118B4286BFDFF850904FF061
S31508007B70FF3802F15479002304934CE0E20704D558
S31508007B80D7E9002382F0C4FC0123049A641008375D
S31508007B9001320492CDE700BF25360E083C66100870
S31508007BA03666100817761008EC060E08707310086B
S31508007BB0487310080000F07F0000A07CFFFFEF7FED
S31508007BC014F0100340464946AA4F18BF6A23049387
S31508007BD00023E20704D5D7E9002382F099FC0123A4
S31508007BE0641007F10807F4D10BB180468946049B57
S31508007BF043B1C9F30A524946C2F16B03002B4EDC66
S31508007C006A230493002200234046494682F0E8FE90
S31508007C1000287FF423AF069B5046059A00932B460F
S31508007C200A9987F049FC109000283FF43AAF0C9B5C
S31508007C30ABEB060B002BB4BF5B46002311930C9BE2
S31508007C4023EAE3731593002307930593109B504685
S31508007C50596887F087FB069000283FF448AF109BC9
S31508007C600C301A6903F10C0102329200D4F02FFE8F
S31508007C701AAA19A9504649EC108BCDE90A8987F04A
S31508007C80F7FE189000283FF432AF0121504687F0DE
S31508007C905DFC03460590D0B90023059327E71F2B03
S31508007CA00EDD342B4FF00008DBBF4FF0FF33C2F177
S31508007CB04B024FF05C799340D8BF03EA01099FE76E
S31508007CC04FF0FF3202FA03F303EA080898E7199C13
S31508007CD01A9A002CA9BF119B159BE718159EB8BFC9
S31508007CE01E1B049BB8BF119FE41A634B1444C2F1D0
S31508007CF03602013C9C4280F2B0801B1B01251F2BDB
S31508007D00A2EB0302CDBFC4F17F449D40002404F5D5
S31508007D107F04C2BF04F57B44E23405FA04F407EB9A
S31508007D20020B049B16445F451E443B46A8BF5B46B0
S31508007D30B342A8BF3346002BC2BFABEB030BF61A00
S31508007D40FF1A119B002B16DD1A460599504687F037
S31508007D50BDFC059000289FD00146189A504687F02A
S31508007D600BFC0E9000283FF4C2AE1899504687F0D7
S31508007D7039FB0E9B1893BBF1000F71DC0C9B002B93
S31508007D8008DD159A5046069987F0A0FC069000284B
S31508007D903FF4ABAE002E08DD32460699504687F012
S31508007DA0EFFC069000283FF4A0AE002F08DD3A4607
S31508007DB00599504687F0E4FC059000283FF497AEF5
S31508007DC0069A5046189987F047FD079000283FF411
S31508007DD08EAEC36805990E930023C360D4F02AFFBC
S31508007DE000284BDA0E9B53EA080340F0BD80C9F31E
S31508007DF01303002B40F0B88029F000431B0D1B0528
S31508007E00B3F1D66F40F2B080079B5B6923B9079B35
S31508007E101B69012B40F3A88001220799504687F079
S31508007E20AFFC05990790D4F005FF002840F39C8025
S31508007E3029F00043049A1B0D1B05002A7AD0B3F1DA
S31508007E40D66F6ED8B3F15C7F46D84FF000084FF076
S31508007E5000092223CAF8003050E6002401255EE70F
S31508007E605A461899504687F08BFC1890002885D1F9
S31508007E703DE600BF6866100802FCFFFFCB4640F0EF
S31508007E80A4800E9AC9F31303002A41D09C4A934250
S31508007E9059D1049B42467BB9B8F1FF3F40F08A802E
S31508007EA0984B99453FF423AE974BDDF8108009EAC5
S31508007EB0030303F5801921E6934B09EA0303B3F19B
S31508007EC0D46F17D918F101011CD18E4A91453FF498
S31508007ED00EAE03F5801980468C4B40464946002273
S31508007EE082F016FB884B804689460B40002B7FF4B0
S31508007EF005AEAEE71E0D4FF0FF31C6F16B06B14079
S31508007F008845E6D0002C5ED014EA0B0FE4D01EE0BC
S31508007F10002B4AD1B8F1000F8AD064B314EA0B0FCC
S31508007F202BE0A3F580134FF0FF386FEA13596FEA79
S31508007F300959D1E7A3F580134FF0FF386FEA1359B3
S31508007F406FEA0959DAE59CB114EA090F0CD04046E4
S31508007F504946049AD3F0D9FDDDE90A0153EC102B02
S31508007F6082F020F980468946049B002BB4D1C5E5EA
S31508007F7015EA080FEAE718EA050FF5D0049A40460D
S31508007F804946D3F0C2FDDDE90A0153EC102B82F015
S31508007F9007F90022002304460D4682F021FD002839
S31508007FA07FF453AFA046A946DEE7002CB6D115EA02
S31508007FB0080FE2E724B114EA090F3FF49FADC6E7BC
S31508007FC018EA050FF9E72A42A0E705990798D4F0B9
S31508007FD04CFE00224FF0804355EC104B20462946B4
S31508007FE082F012FD00286DD00E9B002B78D1B8F1D7
S31508007FF0000F56D1C9F31303002B59D10022444B65
S315080080002046294682F0F6FC002858D12046294603
S315080080100022404B82F07CFA04460D4605F10043E7
S3150800802008940993384B0BEA03031493149A3A4BB2
S315080080309A42DDE9086740F0A880ABF1547949EC2B
S31508008040108B87F0A1FCDDE9082351EC100B82F0B8
S315080080505FFA42464B4682F0A5F80B462A49804607
S315080080602E4A194091425BD90B9A264B9A4203D164
S315080080700A9B01333FF43BADDFF888904FF0FF3899
S315080080801899504687F0AEF90699504687F0AAF92E
S315080080900599504687F0A6F90799504687F0A2F940
S315080080A0D4E5B8F1010F03D1B9F1000F3FF4CDAE15
S315080080B00024174D9FED0E7B8DED087BB2E700245B
S315080080C0144DABE7134B20462946002282F020FACE
S315080080D00E9B04460D46002BA0D0CDE90845A1E726
S315080080E09FED057B55EC174B8DED087B9AE700BF96
S315080080F0000000000000F0BF000000000000F03F94
S31508008100FFFF0F00FFFFEF7F0000F07F00005039F0
S315080081100000F03F0000E03F0000E07FFFFF9F7C8B
S3150800812003F15479049B4E46002BA9D129F000434C
S31508008130149A1B0D1B059A42A2D12046294688F09F
S3150800814067FAC9F3130682F0B5F90B4602462946C3
S31508008150204646EA080682F023F80E9B04460D469A
S315080081601E434BD02EA3D3E9002382F043FC0028FC
S315080081707FF4C4AC204629462BA3D3E9002382F01A
S3150800818057FC00283FF47CAFB8E4049B13B3149B58
S31508008190B3F1D46F1ED82046294625A3D3E9002378
S315080081A082F032FC90B12946204682F04BFC012829
S315080081B038BF012082F032F90E9B04460D46D3B92A
S315080081C001F1004312901393DDE9126707F1D663B4
S315080081D0149A9F1A9DED0A0B87F0D6FB304639464E
S315080081E053EC102B82F094F9DDE90A2381F0DAFFCB
S315080081F08046894696E7CDE91245E5E70EA3D3E919
S31508008200002382F0F7FBBCE7652A3FF443AB452A17
S315080082103FF440AB0123FFF778BB00BFAFF3008004
S315080082209535A094FFFFDF3F35E5AF350000E03F09
S315080082300000C0FFFFFFDF419535A094FFFFCF3F49
S315080082409FED010B704700BF000000000000F87F9B
S315080082502DE9F04F1E46D3B000238B46069019939E
S315080082600B9288F093F903681B781693BBF80C30C9
S315080082701F0615D5DBF8103093B940210698A0F0F3
S315080082805BFFCBF80000CBF8100030B90C23069A38
S3150800829013604FF0FF330E9315E14023CBF81430EB
S315080082A000239FED917B0F9313930E938DED0C7B1B
S315080082B00B9B1C4653F8042B0AB1252AF9D10B9BB4
S315080082C0A3420DD0E51A0B9A594606982B46D4F0C8
S315080082D0D4FD013000F0F2800E9B03EBA5030E934C
S315080082E02368002B00F0EA800022231D4FF0FF349C
S315080082F015461592099253F8042B07920B93079B80
S31508008300392B72D81F2B40F24283079B203B192B2F
S3150800831000F23D83DFE813F073003B033B0378006C
S315080083203B033B033B033B033B033B037C008600C9
S315080083303B03830088003B03A300A600A600A60013
S31508008340A600A600A600A600A600A600332B00F2EB
S315080083501E83DFE813F0F0001C03F0001C031C0367
S315080083601C031C039A001C031C031C031C031C038C
S315080083701C031C031C031C031C031C03D4021C0340
S315080083801C031C031C031C031C031C031C031C03E7
S315080083901C03A300CF00F000F000F0009D00CF0002
S315080083A01C031C03A0001C03410258026702A0001C
S315080083B01C0376021C03C8021C031C0334004C4B26
S315080083C032460F93E80652F8043B089202D469062F
S315080083D048BF9BB2EA0706D52BB1302245F0020505
S315080083E01A92079A1B92022215E2079B453B332BEA
S315080083F0ACD9079B08962A93002315936BE0159B27
S3150800840023B92023159301E045F001050B9B72E77C
S3150800841056F8043B002B0993F8DA5B42099345F0BA
S315080084200405F3E72B23EDE70B9B53F8042B2A2AC5
S31508008430079211D156F8044B0B9344EAE474E5E726
S3150800844001FB042453F8042B0792079A303A092AA9
S31508008450F6D944EAE47451E700240A21F5E745F021
S315080084608005D3E700230993079B0A21099A303B25
S3150800847001FB023309930B9B53F8042B0B93A2F1D0
S3150800848030030792092BEFD939E745F00805BDE710
S3150800849045F04005BAE745F01005B7E73346EE065E
S315080084A053F8040B089312D483F008FD441C0ED12C
S315080084B0BBF90C3043F04003ABF80C30BBF80C307A
S315080084C059063FF5E6AE0E9853B0BDE8F08F002387
S315080084D02A902B931593984601241F461E460DF1A4
S315080084E0A80908E1AFF300800000000000000000C2
S315080084F0A47410083246E90652F8043B089202D4DE
S315080085006A0648BF1BB2002B80F238845B422D21D5
S315080085100122671C159100F0F781294625F0800590
S31508008520002B40F0F181002C00F02982012A40F04E
S31508008530EE8100F029BC07364FF0FF3226F007031C
S31508008540B3EC027B8DED0C7B08930C9B10930D9B73
S3150800855023F000431193A34BDDE9100188F01AF8C4
S31508008560F0B94FF0FF329F4BDDE9100182F04CFA6B
S31508008570B0B900220023DDE90C0182F03BFA08B10C
S315080085802D231593984A994B079925F080054FF0A6
S3150800859000080324472994BF914699464746D3E1E4
S315080085A0DDE90C231046194687F0F4FF38B10D9B18
S315080085B08F4A002BBCBF2D2315938E4BE4E7631C13
S315080085C051D0079B23F02003472B02D1002C08BF6C
S315080085D0012428230DF1A80845F4807A19AF0493DD
S315080085E018AE079B524621460698019317ABCDF85D
S315080085F00C80029700969DED0C0BD4F075FE404555
S31508008600814632D1199B282B2FDD990006980A93AB
S31508008610A0F092FD0A9B804600283FF449AF5246D7
S3150800862021460297CDE90303079B0698CDE9006327
S315080086309DED0C0B17ABD4F057FE8146079B189E91
S3150800864023F02003472B40F08C80F71C10DBB44244
S3150800865080F29C80079B023B0793731E079A189328
S315080086601C922B220EE00624B3E74FF00008E5E73C
S31508008670079B023B0793731E1893079B1C93C6F12F
S3150800868001032D22092B1D927ADD2AA90A260A46FC
S315080086900439B3FBF6F406FB1430303042F8040C08
S315080086A0184623466328F2DC3033A2F1080041F865
S315080086B0043C1DAB2AA988425DD30DF1B3039B1A6E
S315080086C00B3A23F003038A4288BF00231EAAD41854
S315080086D01CABE41AA3101393199B012B03EBA404F8
S315080086E002DC15F0010601D001340026179B002B89
S315080086F06FD155460027A7423B46159905F0020259
S31508008700B8BF23460A9305F08403002940F0448144
S315080087101293002A40F09581002B40F0CE81DDE9C6
S315080087200932A3EB020ABAF1000F40F36081BAF1ED
S31508008730100F314A00F3B7814FEA8A032E4A594689
S315080087400698D4F09AFB013000F08881159B002B1F
S3150800875040F09981129B002B00F049814FF0000AE6
S3150800876074E1079B662B1BD0731E079A002B189380
S315080087701C9284DB75E750F8044B43F8044F9AE7DC
S31508008780302220AC13441E921F93A1E7199B9E42E8
S3150800879013DA002ED4BFC6F1020401241C440FE0EC
S315080087A005F00105002E45EA040503DD5DB1013437
S315080087B034449BE74DB1023498E7EC0707D5741C9F
S315080087C06723079392E7344690E701248EE73446F9
S315080087D0F6E72D2315938CE7E80633680E9A0DD530
S315080087E01A600EE0FFFFEF7F6474100874741008B7
S315080087F08474100894741008747510086906EFD507
S315080088001A80043654E5324615F0100152F8043B36
S31508008810089202D0002200217BE615F04002FAD029
S315080088209BB2F7E73246782145F0020552F8043B39
S31508008830079108923022CDE91A21AB4A0F920222FB
S31508008840E9E73346002715F0100653F8049B1597F9
S3150800885008932FD1621C16D0224631464846A246B6
S31508008860D4F027F808B1A0EB090ABAF1270F0FD9F7
S315080088700AF1010106988900A0F05EFC00283FF481
S3150800888017AE804607E04846D4F02EF88246ECE755
S315080088904FF000082AA8544600239A4504D1002719
S315080088A0814640F82A7026E719F8032040F8232065
S315080088B00133F2E7631C11D0224639464846D3F005
S315080088C088FF804600283FF469AEA0EB09084FEA06
S315080088D0A8084445A8BF4446B8465FE64846D3F0CC
S315080088E06DFF0446F8E73246EF0652F8043B089255
S315080088F001D501228FE76E0648BF9BB2F9E77B4B8D
S315080089005EE52946012209E6012A00F03A82022A92
S315080089100DF5A47929D003F00702DB08494602F1D0
S31508008920300249F8042DF6D1EE0706D5302A04D0D0
S31508008930302349F8043CA1F1080952AB27464FF009
S315080089400008A3EB09039C104646D4E60DF5A47966
S315080089500A20B3FBF0F100FB1132303249F8042D3E
S315080089601A460B46092AF4D8E7E703F00F020F99CF
S315080089701B0951F8222049F8042DF6D1DDE71AB96A
S31508008980C80701D5302300E20DF5A479D5E7079B82
S31508008990002B7FF42EAD91E59A461292002A66D0F6
S315080089A00A9A03320A92002B7AD0042315AA59464A
S315080089B00698D4F062FA013050D0129B002B45D1AC
S315080089C0BAF1800F13D1DDE90932A3EB020ABAF135
S315080089D0000F0CDDBAF1100F454A70DC4FEA8A0326
S315080089E0434A59460698D4F048FA013036D03F1B18
S315080089F0002F0BDDDFF8F8A0102F6ADCBB003C4A1D
S31508008A0059460698D4F039FA013027D0E90571D4C9
S31508008A10A3004A4659460698D4F02FFA01301DD0CD
S31508008A206A0700F18881B8F1000F40F0A2810E9B19
S31508008A30089EDDE909218A42ACBF9B185B180E9394
S31508008A4036E40A9902310A9103B39A4608231AAA08
S31508008A5059460698D4F011FA0130B1D1B8F1000F91
S31508008A603FF42CAD41460698A0F069FB26E50A9A24
S31508008A7001320A92002B98D1099BA3EB020ABAF19C
S31508008A80000F3FF754AE4FF0000A8EE7DDE90931D3
S31508008A90A3EB010ABAF1000F7FF760AE129246E621
S31508008AA0DDE90932E9E7402359460698D4F0E5F9A5
S31508008AB00130D3D0AAF1100A39E69A4680E7402356
S31508008AC059460698D4F0D9F90130C7D0AAF1100A48
S31508008AD080E74023524659460698D4F0CEF901302D
S31508008AE0BCD0103F88E700BFA4741008E8741008CB
S31508008AF034751008079B652B40F2DD8000220023A1
S31508008B00DDE90C0181F06CFF58B30423A14A5946EC
S31508008B100698D4F0B2F90130A0D0DDE91834A342A2
S31508008B2002DBEB077FF57CAF042316AA59460698A5
S31508008B30D4F0A3F9013091D0013C002C7FF770AF37
S31508008B40954E102C02DCA300934A63E74023324675
S31508008B5059460698D4F091F901303FF47FAF103C9E
S31508008B60EFE7189B002B36DC04238A4A59460698F9
S31508008B70D4F083F901303FF471AF05F00102DDE965
S31508008B801836334313433FF44BAF042316AA59460A
S31508008B900698D4F072F901303FF460AF189C002CA7
S31508008BA00CDA64427C4F102C0ADCA3007A4A594638
S31508008BB00698D4F062F901303FF450AFB30028E7C5
S31508008BC040233A4659460698D4F057F901303FF4FF
S31508008BD045AF103CE7E7199C44F31D0AA300B245CC
S31508008BE00793A8BFB246BAF1000F21DCBAF1000F0D
S31508008BF0ACBFA6EB0A073746002F0CDDDFF898A1B5
S31508008C00102F1FDCBB00644A59460698D4F035F984
S31508008C1001303FF423AF189BB6009C421DDD0423A8
S31508008C2016AA59460698D4F028F9013017D115E73F
S31508008C304FEA8A034A4659460698D4F01EF9013087
S31508008C40D4D10BE74023524659460698D4F015F975
S31508008C5001303FF403AF103FD2E7EF07DFD4079B9D
S31508008C60189F9B1BE71B9B109F42A8BF1F46002F00
S31508008C7009DDBB0009EB060259460698D4F0FDF853
S31508008C8001303FF4EBAE189B002FA4EB0304A8BFFA
S31508008C90E41B002C7FF7C4AE3F4E102C7FF753AF72
S31508008CA04023324659460698D4F0E7F801303FF497
S31508008CB0D5AE103CF1E7199E04234A465946012EC3
S31508008CC0069801DCEC071AD5D4F0D7F801303FF442
S31508008CD0C5AE042316AA59460698D4F0CEF8013034
S31508008CE03FF4BCAE00220023741EDDE90C0181F0BE
S31508008CF077FE68B9A30009F1040259460698D4F02C
S31508008D00BCF801303FF4AAAE139B1CAA9B0081E66F
S31508008D10012EF9DD204E102C02DCA3001E4AECE7DA
S31508008D204023324659460698D4F0A7F801303FF456
S31508008D3095AE103CEFE7DDE909329C1A002C7FF767
S31508008D4072AE164D102C09DCA300144A5946069833
S31508008D50D4F093F801307FF466AE7FE640232A46C6
S31508008D6059460698D4F089F801303FF477AE103C9E
S31508008D70E8E741460698A0F0E2F958E6621C7FF457
S31508008D80C0AD092B3FF6E2AD30330DF5A27951930C
S31508008D90D3E500BF2C7510083475100874751008D3
S31508008DA02DE9F04FC76997B08346209E08910C922B
S31508008DB0129355EC104B8DED000B7FB91020A0F0E7
S31508008DC0B1F90246CBF81C0020B9A74BEF21A748FA
S31508008DD082F0B2FDC0E901770760C760DBF81C3096
S31508008DE0196859B15A680123584693404A608B60FE
S31508008DF086F0F8FADBF81C3000221A602B1EB7BF83
S31508008E0023F00043002301220193A8BF3360019F8A
S31508008E10974BB8BF3260BB4319D142F20F73129A0F
S31508008E201360C7F31303234300F0DB85219B53B973
S31508008E30904B21E0904B03930833219A13600398D3
S31508008E4017B0BDE8F08F8B4B03930333F5E79DED21
S31508008E50007B0022002351EC170B8DED0A7B81F075
S31508008E60BFFD804650B10123129A1360219B13B1AE
S31508008E70824B219A1360824B0393E0E7C7F30A56A5
S31508008E8014AA15A958469DED0A0B86F0F1FD029025
S31508008E90002E76D00B9BA6F2FF36CDF84C80C3F396
S31508008EA0130343F07F53DDE90A0143F440131946DF
S31508008EB00022744B81F074F965A3D3E9002381F08D
S31508008EC027FB65A3D3E9002381F06CF904460D4618
S31508008ED0304681F0B3FA62A3D3E9002381F018FB88
S31508008EE002460B462046294681F05CF904460D46A3
S31508008EF087F066FB0022074600232046294681F0B4
S31508008F0079FD40B1384681F099FA22462B4681F020
S31508008F1067FD00B9013F162F52D85B4B03EBC70319
S31508008F20DDE90A01D3E9002381F064FD002849D070
S31508008F30013F00231193149B9B1B5A1E4CBFC3F180
S31508008F4001030023079245BF069300230693079360
S31508008F50002F39DB079B10973B440793002309939F
S31508008F60089B092B66D8052BC5BF043B00240124A2
S31508008F700893089B023B032B67D8DFE803F02D3ADA
S31508008F803859DDE914631E4406F23243202BC9BF63
S31508008F90C3F14003C3F120039F4006F21243D8BF32
S31508008FA004FA03F006F1FF36C4BF24FA03F347EACE
S31508008FB0030081F033FA0122A1F1F873139276E7E0
S31508008FC00123B7E71190B6E7069BDB1B06937B42A6
S31508008FD0099300231093C3E700230D930C9B002BE2
S31508008FE056DC012399461A4604930C920CE0012399
S31508008FF0F3E700230D930C9BFB1803F10109049377
S315080090004B46012BB8BF0123DBF81C0000210422C4
S3150800901002F114059D423FD94160584686F0A2F9EF
S31508009020039000283BD1194B024640F2AF11CEE619
S315080090300123DFE7012400230D9408934FF0FF3343
S315080090400022994604931223CFE701230D93F5E7EF
S3150800905061436F63A787D23FB3C8608B288AC63F30
S31508009060FB799F501344D33FC66510082176100834
S315080090700000F07F1D7610081476100861FE0D08B2
S3150800908060FE0D080000F83F707310087072100833
S315080090900C9B99460493B7E701315200B8E7DBF811
S315080090A01C30B9F10E0F039A1A606FD8002C6DD0D8
S315080090B0002F36DD07F00F02A04BF8054FEA2714FC
S315080090C003EBC20393ED007B8DED0E7B17D59C4B0E
S315080090D004F00F044FF00308D3E90823DDE90A0179
S315080090E081F040FBCDE90001954D5CB9DDE90E2321
S315080090F0DDE9000181F036FBCDE900012BE04FF0F8
S315080091000208F1E7E10709D508F10108DDE90E01D2
S31508009110D5E9002381F0FCF9CDE90E016410083584
S31508009120E3E700F007817C42844B854D4FF0020847
S3150800913004F00F02241103EBC203DDE90A01D3E9A7
S31508009140002381F0E5F90023CDE90001002C40F069
S31508009150E580002BD0D1119BDDE90045002B00F0FE
S315080091604C810022774B2046294681F043FC002893
S3150800917000F04381B9F1000F00F03F81049B002BFA
S3150800918000F3E480DDE90A34CDE90034159B002BB1
S3150800919002DB0E2F40F342820D9A002A40F06782C6
S315080091A0099C0025DDF81880B8F1000F0DD0079B43
S315080091B0002B0ADD4345069AA8BF4346D21AA8EBF8
S315080091C003080692079AD31A0793099B0BB30D9BBC
S315080091D0002B00F0A682002C00F0A1822946224628
S315080091E0584686F073FA029A01460546584686F0AE
S315080091F0C3F902990646584686F0F4F8099B1B1BE4
S31508009200099300F09182099A3146584686F05EFA2B
S3150800921002900121584686F099F9109B0446002BC6
S3150800922000F084821A460146584686F04FFA089B93
S315080092300446012B03DC009B002B00F07C820026F1
S31508009240236904EB83031869D3F0A5FCC0F1200059
S315080092501096079B184410F01F0000F09182C0F189
S315080092602003042B40F38182C0F11C00069B0344B3
S3150800927080440693079B03440793069B002B05DD52
S315080092801A460299584686F07BFA0290079B002BED
S3150800929005DD21461A46584686F072FA0446119BA1
S315080092A0002B00F0768221460298D3F0C3FC0028F2
S315080092B080F26F8200230A220299584686F0B4F893
S315080092C00D9B7E1E0290002B00F05C82002329462F
S315080092D00A22584686F0A8F8049B0546002B03DCAC
S315080092E0089B022B00F35E82B8F1000F05DD2946C4
S315080092F04246584686F044FA0546109B002B00F075
S31508009300D0826968584686F02DF80746002840F04E
S315080093107F820D4B024640F2EF2158E5E20706D55B
S3150800932008F10108D5E9002381F0F2F80123641059
S3150800933008350BE74FF002080DE700BF70731008F9
S31508009340487310080000F03F70721008204600228B
S31508009350AC4B294681F0DCF87E1E08F10108049C16
S31508009360CDE90001404681F069F8DDE9002381F086
S31508009370CFF8A54B002280F015FFA1F15073CDE977
S315080093800E010F93002C3BD10022A04BDDE9000112
S3150800939080F006FF02460B46CDE90023DDE90E23E1
S315080093A081F046FB002840F05781DDE90E2101F1E6
S315080093B00043DDE9000181F01DFB00283FF4E2AE21
S315080093C0002425460C9BDDF80CA0DE434FF0000870
S315080093D02146584686F006F8002D00F0A980B8F117
S315080093E0000F05D0A84503D04146584685F0FAFF38
S315080093F02946584685F0F6FF9AE03E464C46B1E7C0
S31508009400834B03EBC40353E90201039B1C440D9BE6
S31508009410002B4AD002460B4600207E4981F0A2F96D
S31508009420DDE90E2380F0BCFEDDF80CA0CDE90E01C7
S31508009430DDE9000187F0C4F8054680F0FFFF024623
S3150800944030350B46DDE9000180F0AAFE0AF8015B1B
S3150800945002460B46CDE90001DDE90E0181F0E8FA86
S31508009460002865D100206C49DDE9002380F098FECC
S3150800947002460B46DDE90E0181F0DAFA002840F0D3
S315080094800D81A24500F0EA8000225E4BDDE90E015F
S3150800949081F03EF800225B4BCDE90E01DDE90001C3
S315080094A081F036F8CDE90001C2E7DDE90E2381F047
S315080094B02FF8A046DDF80CA0CDE90E01DDE9000184
S315080094C087F07EF8054680F0B9FF024630350B4630
S315080094D0DDE9000180F064FE0AF8015B02460B46EE
S315080094E0A245CDE900234FF0000223D1494BDDE91F
S315080094F00E0180F057FE02460B46DDE9000181F0B9
S3150800950097FA002840F0CA8000204249DDE90E2378
S3150800951080F046FE02460B46DDE9000181F06AFA54
S3150800952070B1C24608F1FF381AF8013C302BF8D062
S31508009530374655E0334B80F0EBFFCDE90001BDE738
S31508009540DDE90A34CDE90034159B002BFFF628AE79
S315080095500E2F3FF725AE2E4B03EBC70393ED007B8B
S315080095600C9B002B8DED047B02DAB9F1000F64D059
S31508009570DDF80CA0DDE90045DDE90423204629468F
S3150800958081F0F0F887F01CF8064680F057FFDDE911
S31508009590042380F0BDFF0246204606F130040B4640
S315080095A0294680F0FDFD0AF8014B039C02460B464E
S315080095B0AAEB0404A14540F0828080F0F3FD04463E
S315080095C00D46DDE9042381F033FA002865D12046EB
S315080095D02946DDE9042381F003FA08B1F3075CD4D0
S315080095E00299584685F0FEFE002301378AF80030B6
S315080095F0129B1F60219B002B3FF421ACC3F800A0EF
S315080096001DE400BF0000244000001C400000144078
S31508009610707310080000E03F0000F03FA24B03EB18
S31508009620C70393ED007B0C9B002B8DED047B9FDA23
S31508009630B9F1000F9CDC7FF4C3AE00229B4BDDE939
S31508009640040180F065FFDDE9002381F0E7F90446AF
S3150800965000287FF4B5AE3E462546B4E0DDE90A3477
S31508009660CDE90034159B002B01DB0E2FD6DD089AB9
S31508009670012A36DC139A82B303F23343099CDDF8D8
S315080096801880069A012158461A440692079A1A44DF
S31508009690079285F05BFF054686E53E4653469A46A1
S315080096A013F8012D392A06D1039A9A42F7D13022A6
S315080096B0039901360A701A7801321A7038E70022BF
S315080096C07B4B80F025FF0022002304460D4681F0DF
S315080096D087F900283FF450AF82E7149BC3F136039D
S315080096E0CCE709F1FF34099BA34208DBB9F1000F67
S315080096F0A3EB04040EDBDDF818804B46C1E7099B93
S31508009700109AE31A0994DDF8188000241A444B4687
S315080097101092B6E7069BA3EB09080023B1E7029E61
S3150800972071E5099A029970E5029672E5089B012B84
S3150800973017DC009BABB9019BC3F313039BB9019BD1
S3150800974023F00046360D360536B1069B0126013351
S315080097500693079B01330793109B002B7FF470AD8C
S315080097601096012075E50026F6E73FF486AD1C3312
S31508009770069A1A4498440692079A1A4407927CE570
S315080097800346F4E7049B002B2BDC089B022B09DC21
S3150800979027E0B9F1000F1DDC089B022B1ADD3E46B7
S315080097A0CDF81090049B002B7FF40CAE21460522C1
S315080097B0584685F039FE014604460298D3F03AFA2F
S315080097C000287FF7FFADDDF80CA0312301360AF833
S315080097D0013BFBE50D9B3E46CDF81090002B7FF430
S315080097E083AD039F21460298D3F0F4FD039B00F155
S315080097F03009049A07F8019BFB1A9A4240F3CB807A
S3150800980000230A220299584685F00EFE0290E9E7DF
S315080098102A6905F10C010C3002329200D3F057F890
S3150800982001223946584685F0ABFF039BA8460546F4
S3150800983003F1010ADDE9032313440793009B03F0B0
S31508009840010309930AF1FF33214602980493D3F0E2
S31508009850C1FD4146069000F130090298D3F0EAF9B5
S315080098602A4621460746584685F0F6FFC26801464D
S3150800987002B3584685F0B6FD002F3ADA012202995E
S31508009880584685F07DFF21460290D3F0D3F900288B
S3150800989003DC29D119F0010F26D0B9F1390F1DD1F2
S315080098A032E02846C1E700BF707310080000144074
S315080098B0000024400A900298D3F0BCF90A990C904B
S315080098C0584685F08FFD0C9A5ABB089B53B9099BDD
S315080098D043B9B9F1390F17D0002F05DD069B03F1FF
S315080098E0310901E0002F2ADADDF810A00AF8019BF9
S315080098F06EE5089B3B4304D1009B03F00103002B54
S31508009900BCD0B9F1390F36D1049F392307F8013B8A
S31508009910BA46013F1AF8013C392B5AD001333B703D
S3150800992056E5002F06DB089B3B4306D1009B03F058
S31508009930010313B9002AA1DCD6E7002AE1DC079B5C
S3150800994057460AF8019C53452ED000230A2202994D
S31508009950584685F069FDA84502904FF000034FF080
S315080099600A02414658460BD185F05EFD80460546FB
S315080099700AF1010A66E7DDF810A009F10109B5E761
S3150800998085F052FD2946804600230A22584685F06E
S315080099904BFD0546ECE7049B4FF00008002BCCBFB7
S315080099A01F460127039B1F4401220299584685F04A
S315080099B0E7FE21460290D3F03DF90028A8DC02D143
S315080099C019F0010FA4D1BA4617F8013D302BFAD089
S315080099D0FEE4039BBB429BD13123039A01361370E5
S315080099E0F6E4219B002B7FF425AA014BFFF744BA26
S315080099F0147610080348044B834202D0034B03B184
S31508009A00184770476C2B00206C2B002000000000C4
S31508009A10064B0749C91A891048BF0131491003D0B6
S31508009A20044B0BB101481847704700BF6C2B002048
S31508009A306C2B00200000000010B5064C237843B9B3
S31508009A40FFF7D8FF044B13B10448AFF30080012396
S31508009A50237010BDD22B0220000000007C7610086F
S31508009A6008B5054B1BB105490548AFF30080BDE8AD
S31508009A700840FFF7CDBF00BF00000000B83C01203A
S31508009A807C761008A3F5803A704700BF174B002B69
S31508009A9008BF134B9D46FFF7F5FF00218B460F467F
S31508009AA01348144A121AD2F010FE0E4B002B00D09F
S31508009AB098470D4B002B00D0984700200021040042
S31508009AC00D000D48002802D00C48D2F00DF885F09C
S31508009AD043F920002900BDF0DEF881F04BFF00BFF6
S31508009AE0000008000000000000000000001200202E
S31508009AF06C2B0020041D0320E9BA0D0800000000A5
S31508009B0010B5224C03F0FEFF236F23F0070343F042
S31508009B100203236789F0A3FFD4F82031002023F03D
S31508009B20070343F00103C4F82031D4F8283123F0A1
S31508009B30070343F00103C4F82831D4F8403123F071
S31508009B40030343F00203C4F84031D4F8603123F02C
S31508009B50030343F00203C4F86031D4F8403223F01B
S31508009B60030343F00203C4F84032D4F8003223F06A
S31508009B70070343F00203C4F80032D4F8083223F08E
S31508009B80070343F00203C4F8083210BD00800050F2
S31508009B9008B5044889F076FDBDE80840024889F012
S31508009BA071BD00BFD8D70D08C0D70D0808B5044841
S31508009BB089F096FDBDE80840024889F091BD00BFCE
S31508009BC008D80D08F0D70D0818B1034B1860002007
S31508009BD070472520704700BFD03C012010B5054CC2
S31508009BE00549206802F0AEFE2068BDE81040FFF780
S31508009BF0EBBF00BF981300206C12002070B58B686D
S31508009C000646012B0D4614468CB025D0022B33D0C0
S31508009C10002B3ED119461C2205A8D2F056FD214636
S31508009C2005A887F053FA044638B92946304605AAE6
S31508009C3031F0F0F900283ED1044629463046002383
S31508009C408522A1F0FEFD234602211D201B4A0CB0E9
S31508009C50BDE87040B5F0D3BE0023114605A8ADF89F
S31508009C60143087F06CFA04460028E6D129463046B7
S31508009C7005AA31F05BFADDE7114605A887F061FA17
S31508009C8004460028D9D12946304605AA31F0B6FA45
S31508009C90D0E700238122A1F0D4FDD5E9012391B2B2
S31508009CA0120C01929AB20291009201211D20044AD7
S31508009CB01B0CB5F0A4FE0CB070BD00BF54D80D083F
S31508009CC020D80D0870B58B6806460C4688B0F3B9DF
S31508009CD0114604A8ADF810308DF8143000F008FFCE
S31508009CE0054628B92146304604AAA7F0EBFA00BB78
S31508009CF02146304600238522A1F0A3FD2B460221EA
S31508009D001D200D4A08B0BDE87040B5F078BE0023A6
S31508009D108122A1F096FDD4E9012391B2120C019299
S31508009D209AB20291009201211D20044A1B0CB5F03B
S31508009D3066FE08B070BD00BF54D80D0820D80D08BF
S31508009D4070B58B6806460C4686B0D3B9114605A889
S31508009D5087F0EAF8054628B92146304605AAA7F04D
S31508009D60F2FA00BB2146304600238522A1F069FDA0
S31508009D702B4602211D200D4A06B0BDE87040B5F0FD
S31508009D803EBE00238122A1F05CFDD4E9012391B2F5
S31508009D90120C01929AB20291009201211D20044AE6
S31508009DA01B0CB5F02CFE06B070BD00BF54D80D08CC
S31508009DB020D80D0870B58B680646022B0D4614464A
S31508009DC08AB026D0042B36D0002B41D10022ADF81C
S31508009DD010300023214604A8CDE9062386F0BBFFF0
S31508009DE0044638B92946304604AA32F03FFB002813
S31508009DF040D104462946304600238522A1F021FD9C
S31508009E00234602211D201C4A0AB0BDE87040B5F061
S31508009E10F6BD1822002104A8D2F057FC214604A852
S31508009E2088F039F804460028E4D12946304604AAC1
S31508009E3032F028FCDBE7114604A886F0B5FF044695
S31508009E400028D7D12946304604AA32F085FBCEE74A
S31508009E5000238122A1F0F5FCD5E9012391B2120C69
S31508009E6001929AB20291009201211D20034A1B0C0D
S31508009E70B5F0C5FD0AB070BD54D80D0820D80D0838
S31508009E8070B58B6806460C4688B003BB00200021D7
S31508009E90CDE90601114604A8CDE9043386F087FF0B
S31508009EA0054628B92146304604AA32F09DFE00BB75
S31508009EB02146304600238522A1F0C3FC2B46022109
S31508009EC01D200D4A08B0BDE87040B5F098BD0023C6
S31508009ED08122A1F0B6FCD4E9012391B2120C0192B9
S31508009EE09AB20291009201211D20044A1B0CB5F07A
S31508009EF086FD08B070BD00BF54D80D0820D80D08DF
S31508009F0070B50D46AB68064611469CB0042B5BD867
S31508009F10DFE803F003305A3F4E00002304A8ADF8EB
S31508009F2010308DF812308DF814308DF820308DF8F9
S31508009F3030308DF840308DF850308DF8603088F02C
S31508009F40D0FC044638B92946304604AA32F060FFE8
S31508009F5000284CD104462946304600238522A1F024
S31508009F6070FC234602211D20224A1CB0BDE8704021
S31508009F70B5F045BD002304A8ADF8103087F059F9AF
S31508009F8004460028E7D12946304604AA33F058F893
S31508009F90DEE7002304A8ADF8103087F04CF9044634
S31508009FA00028D8D12946304604AA33F01BF8CFE753
S31508009FB004A887F042F904460028CCD12946304641
S31508009FC004AA33F097F8C3E7002381222946A1F0B3
S31508009FD038FCD5E9012391B2120C01929AB202918A
S31508009FE0009201211D20044A1B0CB5F008FD1CB087
S31508009FF070BD00BF54D80D0820D80D0870B58B6801
S3150800A00006460D46144694B0052B79D8DFE803F0CA
S3150800A0100325354959660023214604A8CDE90533A9
S3150800A020ADF8103086F053FD044638B92946304657
S3150800A03004AAA7F017FE002874D10446294630461C
S3150800A04000238522A1F0FDFB234602211D20364A66
S3150800A05014B0BDE87040B5F0D2BC0023214604A870
S3150800A060ADF8103086F035FD04460028E6D12946BD
S3150800A070304604AAA7F032FEDDE7002204A81146FE
S3150800A0808DF84820B3F098FC214604A888F0A5FB73
S3150800A09004460028D2D12946304604AA33F028FCC3
S3150800A0A0C9E70023214604A8ADF8103086F013FD51
S3150800A0B004460028C2D12946304604AA33F096FB46
S3150800A0C0B9E7214604A886F008FD04460028B5D15C
S3150800A0D02946304604AA33F0E5FBACE700232146BF
S3150800A0E004A8CDE90533ADF8103086F00AFD04461C
S3150800A0F00028A3D12946304604AAA7F05CFE9AE7B1
S3150800A10000238122A1F09DFBD5E9012391B2120C0F
S3150800A11001929AB20291009201211D20034A1B0C5A
S3150800A120B5F06DFC14B070BD54D80D0820D80D08D4
S3150800A13070B58B6806460D4686B0ABB1402B32D05B
S3150800A14000238122A1F07DFBD5E9012391B2120CEF
S3150800A15001929AB20291009201211D201A4A1B0C03
S3150800A160B5F04DFC06B070BD114605A8ADF8143023
S3150800A17086F08BFC044638B92946304605AAA7F06E
S3150800A1805CFF0028EED10446294630460023852286
S3150800A190A1F057FB234602211D200C4A06B0BDE854
S3150800A1A07040B5F02CBC0023114605A8ADF8143054
S3150800A1B000F01CFB04460028E6D12946304605AACD
S3150800A1C033F0DCFDDDE700BF20D80D0854D80D08B4
S3150800A1D070B58B6806460C468CB033BB0020002150
S3150800A1E0CDE90401114604A8ADF818308DF81A30E7
S3150800A1F08DF81C30ADF8283000F038FD054628B932
S3150800A2002146304604AA37F0C7FD00BB2146304632
S3150800A21000238522A1F015FB2B4602211D200D4A9D
S3150800A2200CB0BDE87040B5F0EABB00238122A1F06E
S3150800A23008FBD4E9012391B2120C01929AB2029159
S3150800A240009201211D20044A1B0CB5F0D8FB0CB066
S3150800A25070BD00BF54D80D0820D80D082DE97043ED
S3150800A2600D46AB680646114690B00B2B00F2A2804D
S3150800A270DFE803F006A026A035A04661A07281900B
S3150800A280002304A8CDE9043386F05EFF044640B9EE
S3150800A2902946304604AA35F0B3F8002840F09D80D8
S3150800A2A004462946304600238522A1F0CAFA2346E9
S3150800A2B002211D204A4A10B0BDE87043B5F09FBB85
S3150800A2C0002304A88DF8103000F0ACFB04460028E3
S3150800A2D0E7D12946304604AA35F030F8DDE70023F1
S3150800A2E004A8CDE904338DF8183087F0FFFB04463F
S3150800A2F00028D6D12946304604AA35F05FF9CCE7BE
S3150800A30000234FF000084FF0000904A8CDE90433F4
S3150800A310CDE90933CDE90C898DF81830ADF8383018
S3150800A32087F017FC04460028BBD12946304604AA04
S3150800A33034F070FDB1E7002304A8CDE904338DF8A5
S3150800A340183087F043FC04460028AAD1294630462F
S3150800A35004AA34F04FFCA0E7002304A8CDE904338F
S3150800A36086F014FF044600289BD12946304604AAE5
S3150800A37034F0BEFB91E7002304A88DF8103086F070
S3150800A38027FF044600288CD12946304604AA34F013
S3150800A3903BFB82E7002304A8CDE9043386F01AFFC5
S3150800A3A0044600287FF47DAF2946304604AA34F0D7
S3150800A3B0CDFC72E7002381222946A1F042FAD5E9AD
S3150800A3C0012391B2120C01929AB2029100920121D4
S3150800A3D01D20044A1B0CB5F012FB10B0BDE87083B3
S3150800A3E054D80D0820D80D0870B58B6806460C465B
S3150800A3F086B0D3B9114605A886F024FD054628B9C6
S3150800A4002146304605AAA9F0E5FE00BB214630469E
S3150800A41000238522A1F015FA2B4602211D200D4A9C
S3150800A42006B0BDE87040B5F0EABA00238122A1F073
S3150800A43008FAD4E9012391B2120C01929AB2029158
S3150800A440009201211D20044A1B0CB5F0D8FA06B06B
S3150800A45070BD00BF54D80D0820D80D0870B58B689C
S3150800A46006460C4686B0D3B9114605A886F0EDFC1B
S3150800A470054628B92146304605AA37F0D5FD00BB62
S3150800A4802146304600238522A1F0DBF92B4602211E
S3150800A4901D200D4A06B0BDE87040B5F0B0BA0023DD
S3150800A4A08122A1F0CEF9D4E9012391B2120C0192CE
S3150800A4B09AB20291009201211D20044A1B0CB5F0A4
S3150800A4C09EFA06B070BD00BF54D80D0820D80D08F6
S3150800A4D070B58B6806460D46144694B0052B70D8A1
S3150800A4E0DFE803F00327376F4B5F00220023CDE92F
S3150800A4F004230023214604A8ADF8183088F028F96B
S3150800A500044638B92946304604AA38F027FA0028FE
S3150800A51069D104462946304600238522A1F091F9DF
S3150800A520234602211D20314A14B0BDE87040B5F01B
S3150800A53066BA0023214604A88DF8103086F051FD2E
S3150800A54004460028E6D12946304604AA38F036FAE9
S3150800A550DDE7002204A811468DF84820B3F02CFA4E
S3150800A560214604A888F05BF904460028D2D129467A
S3150800A570304604AA38F0BEFCC9E7002204A81146F2
S3150800A5808DF84820B3F018FA214604A888F049F94E
S3150800A59004460028BED12946304604AA38F074FC81
S3150800A5A0B5E70023214604A88DF8103088F086F810
S3150800A5B004460028AED12946304604AA38F0B0FA37
S3150800A5C0A5E700238122A1F03CF9D5E9012391B240
S3150800A5D0120C01929AB20291009201211D20044A9E
S3150800A5E01B0CB5F00CFA14B070BD00BF54D80D089A
S3150800A5F020D80D0870B58B6806460C4686B0D3B9C8
S3150800A600114605A886F024FC054628B92146304699
S3150800A61005AAAAF01EFC00BB214630460023852267
S3150800A620A1F00FF92B4602211D200D4A06B0BDE800
S3150800A6307040B5F0E4B900238122A1F002F9D4E90B
S3150800A640012391B2120C01929AB202910092012151
S3150800A6501D20044A1B0CB5F0D2F906B070BD00BF28
S3150800A66054D80D0820D80D0837B5436804463F2B43
S3150800A670154605D8292B14D8032B7DD0042B73D067
S3150800A6809AB2009201211D20574A1B0CB5F0B7F962
S3150800A6900023C3222146284603B0BDE83040A1F076
S3150800A6A0D0B8A3F12A02152AEAD801A050F822F058
S3150800A6B089A7000881A6000881A6000881A60008C7
S3150800A6C081A6000881A6000839A7000881A6000807
S3150800A6D019A7000849A70008A9A70008B9A70008EC
S3150800A6E0D9A7000829A70008C9A7000881A6000855
S3150800A6F081A6000881A6000809A7000881A6000807
S3150800A70099A7000859A700080A462846214603B013
S3150800A710BDE83040FFF772BA0A462846214603B01C
S3150800A720BDE83040FFF7CEBA0A462846214603B0B0
S3150800A730BDE83040FFF704BB0A462846214603B069
S3150800A740BDE83040FFF736BB0A462846214603B027
S3150800A750BDE83040FFF794BB0A462846214603B0B9
S3150800A760BDE83040FFF7CCBB0A460146284603B091
S3150800A770BDE83040FFF742BC0A460146284603B00A
S3150800A780BDE83040FFF7D4BC0A462846214603B048
S3150800A790BDE83040FFF71CBD0A462846214603B0EF
S3150800A7A0BDE83040FFF75ABD0A462846214603B0A1
S3150800A7B0BDE83040FFF718BE0A462846214603B0D2
S3150800A7C0BDE83040FFF74ABE0A462846214603B090
S3150800A7D0BDE83040FFF77CBE0A462846214603B04E
S3150800A7E0BDE83040FFF706BF7DD80D08002370B5D9
S3150800A7F005460C4686B0234E8DF80830039104A80A
S3150800A80002A986F0A3F89DF8143004A8012B04D1F8
S3150800A81086F0D2F8006806B070BD86F0C7F80078F2
S3150800A820D0B902213246B5F0EAF820460DF1070103
S3150800A830B3F0EAF90028EED19DF807300B2B03D0C8
S3150800A84004D8032B28BF03232B70D8E79A1CD2B24F
S3150800A850022A28BF0323F7E70128D0D102210020C6
S3150800A8603246B5F0CCF820460DF10701B3F0CCF925
S3150800A8700028D0D19DF80730003B18BF01236B7024
S3150800A880BDE700BF99D80D080023F0B504460D466C
S3150800A89087B0474E8DF80830039104A802A986F0C0
S3150800A8A055F89DF8143004A8012B04D186F084F8D5
S3150800A8B0006807B0F0BD86F079F80178012913D150
S3150800A8C0022100203246B5F09AF828460DF1070114
S3150800A8D0B3F09AF90028ECD19DF807305A1E042ADD
S3150800A8E088BF00232370D8E7022912D100203246F8
S3150800A8F0B5F085F828460DF10701B3F085F900286B
S3150800A900D7D19DF807305A1E022A88BF00236370E4
S3150800A910C3E7032920D12846B3F035F9142802D114
S3150800A92000232372B9E720460123002200F8083FD6
S3150800A93000F108071146384684F84820B3F03CF879
S3150800A9402846B3F020F9162822D12946384685F03C
S3150800A95099FF0028A1D0ACE7042920D12846B3F0F6
S3150800A96012F914284FF0000202D184F8502094E717
S3150800A970012304F158071146384684F8503084F804
S3150800A9809020B3F019F82846B3F0FDF8162801D040
S3150800A9908E208EE72946384685F074FFD9E7FE29CA
S3150800A9A07FF47BAF284604F19801B3F02DF9D0E780
S3150800A9B099D80D08002370B505460C4686B0184E82
S3150800A9C08DF80830039104A802A985F0BFFF9DF809
S3150800A9D0143004A8012B04D185F0EEFF006806B0F8
S3150800A9E070BD85F0E3FF007888B902213246B5F0DC
S3150800A9F006F820460DF10701B3F006F90028EED156
S3150800AA009DF80730032B28BF03232B70DBE70128AB
S3150800AA10D9D12046291DB3F01FF90028D3D0DEE787
S3150800AA2099D80D08002370B505460C4686B0154E14
S3150800AA308DF80830039104A802A985F087FF9DF8D0
S3150800AA40143004A8012B04D185F0B6FF006806B0BF
S3150800AA5070BD85F0ABFF00780028ECD102213246A4
S3150800AA60B4F0CDFF20460DF10701B3F0CDF800286C
S3150800AA70EDD19DF807305A1E012A88BF00232B7096
S3150800AA80D9E700BF99D80D0840F20E53984227D04F
S3150800AA9007D83C280AD040F2011398420BD0002070
S3150800AAA07047124B9842FAD1122915E002298CBF39
S3150800AAB00020012070472729F1D8192903D8012930
S3150800AAC009D80120704743F20913A1F11A00C340BF
S3150800AAD003F001007047032914BF002001207047C6
S3150800AAE00029EED0881E0128E1E700BF05FCF1FF2A
S3150800AAF0002370B505460C4686B0234E8DF80830FF
S3150800AB00039104A802A985F021FF9DF8143004A832
S3150800AB10012B04D185F050FF006806B070BD85F0A2
S3150800AB2045FF007888B902213246B4F068FF20460E
S3150800AB300DF10701B3F068F80028EED19DF807304B
S3150800AB40032B28BF03232B70DBE7012812D1022130
S3150800AB5000203246B4F053FF20460DF10701B3F04A
S3150800AB6053F80028D9D19DF80730022B28BF0223B5
S3150800AB706B70C6E70228C4D12046291D86F06AFCF8
S3150800AB800028BED0C9E700BF99D80D0837B50546D5
S3150800AB900C4600200221074AB4F031FF28460DF181
S3150800ABA00601B3F045F810B9BDF80630238003B0A6
S3150800ABB030BD00BF99D80D08002370B505460C4670
S3150800ABC086B0294E8DF80830039104A802A985F0AD
S3150800ABD0BDFE9DF8143004A8012B04D185F0ECFEC7
S3150800ABE0006806B070BD85F0E1FE007888B90221DC
S3150800ABF03246B4F004FF20460DF10701B3F004F81D
S3150800AC000028EED19DF80730042B28BF04232B70AB
S3150800AC10DBE701380628D8D8DFE800F0040B111462
S3150800AC20171D2300291D204686F0A3FD0028CCD039
S3150800AC30D7E705F10C01204686F00CFCF6E705F18E
S3150800AC401801F0E705F12001F5E705F12C0120468A
S3150800AC5086F075FFEAE7204605F1380186F03FFFE2
S3150800AC60E4E705F13C01F2E799D80D08002370B531
S3150800AC7005460C4686B0244E8DF80830039104A884
S3150800AC8002A985F063FE9DF8143004A8012B04D1AF
S3150800AC9085F092FE006806B070BD85F087FE0378E1
S3150800ACA033B929462046B2F0A0FF0028E7D0F2E7DC
S3150800ACB0013B032BE3D8DFE803F002081B212046FB
S3150800ACC005F10801FFF762FFEFE70221002032468F
S3150800ACD0B4F095FE20460DF10701B2F095FF002865
S3150800ACE0D9D19DF80730032B28BF0323AB72C6E7DB
S3150800ACF0204605F10C0186F022FFD6E7204605F12D
S3150800AD001801B2F095FFD0E799D80D0837B5054672
S3150800AD100C4600200221084AB4F071FE28460DF1BF
S3150800AD200701B2F071FF28B99DF80730032B28BF39
S3150800AD300323237003B030BD99D80D0837B50546EF
S3150800AD400C4600200221084AB4F059FE28460DF1A7
S3150800AD500701B2F059FF28B99DF80730052B28BF1F
S3150800AD600523237003B030BD99D80D0837B50546BD
S3150800AD700C4600200221084AB4F041FE28460DF18F
S3150800AD800701B2F041FF28B99DF80730112B28BFFB
S3150800AD901123237003B030BD99D80D08002330B5B0
S3150800ADA005460C4687B08DF80830039104A802A919
S3150800ADB085F0CCFD9DF8143004A8012B04D185F04C
S3150800ADC0FBFD006807B030BD85F0F0FD037833B9A8
S3150800ADD029462046B2F02CFF0028E7D0F2E7013BCF
S3150800ADE0062BE3D8DFE803F004171C2225282B00DE
S3150800ADF002210020134AB4F002FE20460DF1070195
S3150800AE00B2F002FF0028DDD19DF80730022B28BFDB
S3150800AE100223AB70CAE7291D204687F0D9F9DBE77C
S3150800AE2005F11001204687F00AFDD5E705F1200156
S3150800AE30F2E705F13001F5E705F14001ECE705F128
S3150800AE405001EFE799D80D08012208B5074B1A708B
S3150800AE500022074B1A700422064B1A701F22064B53
S3150800AE601A7007F071FD054B186008BDDE1B00203F
S3150800AE70D32B0220DD1B0020DC1B0020343D0120E3
S3150800AE802DE9F043044689B0214E01AD88461746A0
S3150800AE900FCE0FC596E8070085E807001D4E01216D
S3150800AEA03A20D4F80090D6F8205702F099F960684D
S3150800AEB0012102F095F9617B207B0023042203F02F
S3150800AEC095FB0422617A207A002303F08FFB012385
S3150800AED0484601A98DF81230CDF80C80ADF81470EB
S3150800AEE003F0A2FD0020627A237A05F0040543EAFE
S3150800AEF00243C6F83837627B237B45F0180543EAD8
S3150800AF000243C6F83437C6F8205709B0BDE8F083BF
S3150800AF10A8D80D0800C003504022024BC3F8A02051
S3150800AF20704700BF00F0035013B5044608F0BCFC98
S3150800AF3000230122217BCDE900324900B0FBF1F163
S3150800AF40024A03488AF02FFD02B010BD19AF000867
S3150800AF504C3D0120F7B54FF48076104C054604F5B4
S3150800AF608053C3F8A060407B08F0D6FE04230C4F3C
S3150800AF7002220DF106013846ADF8063088F04DFA82
S3150800AF80384688F05BFAA87B08F0C6FE002004F570
S3150800AF900054C4F8A06003B0F0BD00BF00C0035061
S3150800AFA09C13002070B50646354601213A2002F06A
S3150800AFB017F9B16800220F48FFF762FF0E4C00230D
S3150800AFC004220821022003F011FB00230422062193
S3150800AFD0022003F00BFB0FCD0FC401222B6830466D
S3150800AFE02360064B1A70FFF79FFF3046FFF7B2FF44
S3150800AFF0002070BD9C130020383D0120D42B022070
S3150800B0002DE9F74F14464FF480720688984603795F
S3150800B01001345E43254BA4B2C3F8A0200546407B05
S3150800B0200F4608F079FE230243F001030222204866
S3150800B0300DF10601ADF806304FF0000B88F0EDF97A
S3150800B04001342402DFF86890F610A4B208F1FF3A3A
S3150800B050C34511D1164888F0F1F9A87B08F05CFEC3
S3150800B0604FF48072134B1248C3F8A02088F0EBF90E
S3150800B070002003B0BDE8F08F39463246484688F0CE
S3150800B080CCF9DA450CBF4FF6FF7344F0FF030222F2
S3150800B09048460DF1060104F58074ADF806303744CC
S3150800B0A088F0BBF90BF1010BA4B2D1E700D003502D
S3150800B0B09C13002000E00350034B04481B78002B28
S3150800B0C008BF0020704700BFD42B0220383D01205E
S3150800B0D030B5064D87B001AC0FCD0FC42B6801A85B
S3150800B0E02360FFF75FFF07B030BD00BFC4D80D0867
S3150800B0F02DE9F043434D89B001AC0FCD0FC495E857
S3150800B1000700012584E8070001213A2002F068F8C3
S3150800B1103D4F0121292002F063F83C4B384601A92E
S3150800B12003938DF8125003F07FFC2B462946042220
S3150800B130022003F05BFA02212A460846002303F0A0
S3150800B14055FA2B4604220321022003F04FFA042263
S3150800B1502B461146022003F049FA2D4C2D4B10269A
S3150800B160C4F834374FF00213C4F83037A3F58033E8
S3150800B170C4F838371C2304F50059C4F820374FF4AF
S3150800B180487008F0C9FD04F580581420C9F8A06075
S3150800B19008F0C2FD2320C8F8A06008F0BDFDB9215B
S3150800B1A03846C9F8A06088F06AFD002329461A4681
S3150800B1B00220C8F8A06003F019FA002302211A46F3
S3150800B1C0084603F013FA2B4600220321022003F057
S3150800B1D00DFA2B4600220421022003F007FA38460E
S3150800B1E003F000FC00212920C4F83417C4F83017EE
S3150800B1F0C4F83817C4F8201701F0F2FF09B0BDE803
S3150800B200F08300BFD8D80D0800C0055000127A0098
S3150800B21000C00350020003000348044A0449121AF6
S3150800B220921088F01BB900BFFC8F1008FC8F10081D
S3150800B230041D032008B500F02FF8FFF7EDFF124BA9
S3150800B24012498B4212D30020114B12498B4218D354
S3150800B250FEF71CFC186850F82240586840F822404F
S3150800B260013298688242F5D30C33EAE70022F8E700
S3150800B2701C6844F8220001325C68A242F8D30833FD
S3150800B280E4E70022F8E700BF8476100890761008F5
S3150800B29090761008907610084FF480414FF0FF30F2
S3150800B2A010B5114B114A9A60D3F8882042F47002FF
S3150800B2B0C3F888200E4A91660E4901F500521066B9
S3150800B2C00D4850660220C3F8D000BFF34F8FBFF376
S3150800B2D06F8F01244FF440330848C0F88041D3608B
S3150800B2E004600B6110BD00BF00ED00E000600008BF
S3150800B2F00090005000800044F7FF370000E100E0AE
S3150800B300014B1868704700BFB0130020014B186046
S3150800B310704700BFB0130020084B1B6F03F00703EC
S3150800B320022B04D0032B05D0012B05D0FEE7044BD6
S3150800B33018687047034BFBE70348704700800050C6
S3150800B340B0130020B8130020002D310108B5FFF70F
S3150800B350E3FF054B1B6FC3F303330133B0FBF3F075
S3150800B360024B186008BD00BF00800050AC130020D7
S3150800B3700048704700B4C404014B1868704700BF02
S3150800B380B8130020054B1860054B1B6F03F0070325
S3150800B390032B01D1FFF7DABF704700BFB8130020AF
S3150800B3A00080005000487047002D31014FF0B4432B
S3150800B3B09868C0F304400C280AD8DFE800F00B09A7
S3150800B3C009090909072119091B1D1F000F4870479C
S3150800B3D0002070479B6803F04073B3F1807F11D05B
S3150800B3E0B3F1007F10D00A4A002B08BF10467047F9
S3150800B3F00848704708487047084870470848704723
S3150800B400084870470848704708487047405DC600B6
S3150800B41000093D00C0EA210180BA8C010048E80114
S3150800B420005A62020024F40080841E0040420F0085
S3150800B430014B1868704700BFB4130020BFF34F8F45
S3150800B4400549064BCA6802F4E0621343CB60BFF3B2
S3150800B4504F8F00BFFDE700BF00ED00E00400FA05CE
S3150800B4604FF000639A6A02F17841B1F5C04F03D2F2
S3150800B4701168074A914203D000230370836070471E
S3150800B480012202709A6A926842609B6A9B69F5E794
S3150800B49007B0CD5E08B54FF00053024A1A60FFF7B1
S3150800B4A0CDFF00BF02020FF073B54F4B04461A7862
S3150800B4B01AB102221A7002B070BDCDE90022002826
S3150800B4C0F9D001261E7088F0E6FA484D484B1860F8
S3150800B4D06BF040FD2B785BB900F006FE40B9454895
S3150800B4E00823454A4549006865F05CF800B92E709E
